{
  "_format": "hh-sol-artifact-1",
  "contractName": "NomadBadge",
  "sourceName": "contracts/NomadBadge.sol",
  "abi": [
    {
      "inputs": [
        {
          "internalType": "address",
          "name": "erc20Address",
          "type": "address"
        }
      ],
      "stateMutability": "nonpayable",
      "type": "constructor"
    },
    {
      "anonymous": false,
      "inputs": [
        {
          "indexed": true,
          "internalType": "address",
          "name": "owner",
          "type": "address"
        },
        {
          "indexed": true,
          "internalType": "address",
          "name": "approved",
          "type": "address"
        },
        {
          "indexed": true,
          "internalType": "uint256",
          "name": "tokenId",
          "type": "uint256"
        }
      ],
      "name": "Approval",
      "type": "event"
    },
    {
      "anonymous": false,
      "inputs": [
        {
          "indexed": true,
          "internalType": "address",
          "name": "owner",
          "type": "address"
        },
        {
          "indexed": true,
          "internalType": "address",
          "name": "operator",
          "type": "address"
        },
        {
          "indexed": false,
          "internalType": "bool",
          "name": "approved",
          "type": "bool"
        }
      ],
      "name": "ApprovalForAll",
      "type": "event"
    },
    {
      "anonymous": false,
      "inputs": [
        {
          "indexed": false,
          "internalType": "uint256",
          "name": "flightId",
          "type": "uint256"
        }
      ],
      "name": "FlightAdded",
      "type": "event"
    },
    {
      "anonymous": false,
      "inputs": [
        {
          "indexed": false,
          "internalType": "enum NomadBadge.FlightRewardStatus",
          "name": "status",
          "type": "uint8"
        }
      ],
      "name": "FlightStatusUpdated",
      "type": "event"
    },
    {
      "anonymous": false,
      "inputs": [
        {
          "indexed": true,
          "internalType": "address",
          "name": "previousOwner",
          "type": "address"
        },
        {
          "indexed": true,
          "internalType": "address",
          "name": "newOwner",
          "type": "address"
        }
      ],
      "name": "OwnershipTransferred",
      "type": "event"
    },
    {
      "anonymous": false,
      "inputs": [
        {
          "indexed": false,
          "internalType": "uint256",
          "name": "badgeId",
          "type": "uint256"
        },
        {
          "indexed": false,
          "internalType": "address",
          "name": "to",
          "type": "address"
        },
        {
          "indexed": false,
          "internalType": "uint256",
          "name": "points",
          "type": "uint256"
        }
      ],
      "name": "RewardsPointsAssigned",
      "type": "event"
    },
    {
      "anonymous": false,
      "inputs": [
        {
          "indexed": false,
          "internalType": "address",
          "name": "to",
          "type": "address"
        }
      ],
      "name": "RewardsProvided",
      "type": "event"
    },
    {
      "anonymous": false,
      "inputs": [
        {
          "indexed": true,
          "internalType": "address",
          "name": "from",
          "type": "address"
        },
        {
          "indexed": true,
          "internalType": "address",
          "name": "to",
          "type": "address"
        },
        {
          "indexed": true,
          "internalType": "uint256",
          "name": "tokenId",
          "type": "uint256"
        }
      ],
      "name": "Transfer",
      "type": "event"
    },
    {
      "anonymous": false,
      "inputs": [
        {
          "indexed": false,
          "internalType": "uint256",
          "name": "lastTimeStamp",
          "type": "uint256"
        }
      ],
      "name": "UpkeepPerformed",
      "type": "event"
    },
    {
      "inputs": [],
      "name": "DEFAULT_REWARD_POINTS",
      "outputs": [
        {
          "internalType": "uint256",
          "name": "",
          "type": "uint256"
        }
      ],
      "stateMutability": "view",
      "type": "function"
    },
    {
      "inputs": [
        {
          "internalType": "uint256",
          "name": "flightId",
          "type": "uint256"
        }
      ],
      "name": "addFlight",
      "outputs": [],
      "stateMutability": "payable",
      "type": "function"
    },
    {
      "inputs": [
        {
          "internalType": "address",
          "name": "to",
          "type": "address"
        },
        {
          "internalType": "uint256",
          "name": "tokenId",
          "type": "uint256"
        }
      ],
      "name": "approve",
      "outputs": [],
      "stateMutability": "nonpayable",
      "type": "function"
    },
    {
      "inputs": [
        {
          "internalType": "uint256",
          "name": "badgeId",
          "type": "uint256"
        },
        {
          "internalType": "address",
          "name": "passenger",
          "type": "address"
        }
      ],
      "name": "assignPoints",
      "outputs": [],
      "stateMutability": "nonpayable",
      "type": "function"
    },
    {
      "inputs": [
        {
          "internalType": "address",
          "name": "owner",
          "type": "address"
        }
      ],
      "name": "balanceOf",
      "outputs": [
        {
          "internalType": "uint256",
          "name": "",
          "type": "uint256"
        }
      ],
      "stateMutability": "view",
      "type": "function"
    },
    {
      "inputs": [
        {
          "internalType": "bytes",
          "name": "",
          "type": "bytes"
        }
      ],
      "name": "checkUpkeep",
      "outputs": [
        {
          "internalType": "bool",
          "name": "upkeepNeeded",
          "type": "bool"
        },
        {
          "internalType": "bytes",
          "name": "",
          "type": "bytes"
        }
      ],
      "stateMutability": "view",
      "type": "function"
    },
    {
      "inputs": [],
      "name": "constructTokenURI",
      "outputs": [
        {
          "internalType": "string",
          "name": "",
          "type": "string"
        }
      ],
      "stateMutability": "pure",
      "type": "function"
    },
    {
      "inputs": [
        {
          "internalType": "uint256",
          "name": "tokenId",
          "type": "uint256"
        }
      ],
      "name": "getApproved",
      "outputs": [
        {
          "internalType": "address",
          "name": "",
          "type": "address"
        }
      ],
      "stateMutability": "view",
      "type": "function"
    },
    {
      "inputs": [],
      "name": "getBadgeId",
      "outputs": [
        {
          "internalType": "uint256",
          "name": "",
          "type": "uint256"
        }
      ],
      "stateMutability": "view",
      "type": "function"
    },
    {
      "inputs": [
        {
          "internalType": "address",
          "name": "passenger",
          "type": "address"
        }
      ],
      "name": "getPoints",
      "outputs": [
        {
          "internalType": "uint256",
          "name": "",
          "type": "uint256"
        }
      ],
      "stateMutability": "view",
      "type": "function"
    },
    {
      "inputs": [],
      "name": "getScheduledFlights",
      "outputs": [
        {
          "internalType": "uint256[]",
          "name": "",
          "type": "uint256[]"
        }
      ],
      "stateMutability": "view",
      "type": "function"
    },
    {
      "inputs": [
        {
          "internalType": "address",
          "name": "passenger",
          "type": "address"
        }
      ],
      "name": "getTokensRewards",
      "outputs": [
        {
          "internalType": "uint256",
          "name": "",
          "type": "uint256"
        }
      ],
      "stateMutability": "view",
      "type": "function"
    },
    {
      "inputs": [],
      "name": "getTotalBadgesMinted",
      "outputs": [
        {
          "internalType": "uint256",
          "name": "",
          "type": "uint256"
        }
      ],
      "stateMutability": "view",
      "type": "function"
    },
    {
      "inputs": [],
      "name": "getTotalPointsDistributed",
      "outputs": [
        {
          "internalType": "uint256",
          "name": "",
          "type": "uint256"
        }
      ],
      "stateMutability": "view",
      "type": "function"
    },
    {
      "inputs": [
        {
          "internalType": "address",
          "name": "owner",
          "type": "address"
        },
        {
          "internalType": "address",
          "name": "operator",
          "type": "address"
        }
      ],
      "name": "isApprovedForAll",
      "outputs": [
        {
          "internalType": "bool",
          "name": "",
          "type": "bool"
        }
      ],
      "stateMutability": "view",
      "type": "function"
    },
    {
      "inputs": [
        {
          "internalType": "uint256",
          "name": "badgeId",
          "type": "uint256"
        },
        {
          "internalType": "address",
          "name": "owner",
          "type": "address"
        }
      ],
      "name": "isOwner",
      "outputs": [
        {
          "internalType": "bool",
          "name": "",
          "type": "bool"
        }
      ],
      "stateMutability": "view",
      "type": "function"
    },
    {
      "inputs": [],
      "name": "lastTimeStamp",
      "outputs": [
        {
          "internalType": "uint256",
          "name": "",
          "type": "uint256"
        }
      ],
      "stateMutability": "view",
      "type": "function"
    },
    {
      "inputs": [],
      "name": "name",
      "outputs": [
        {
          "internalType": "string",
          "name": "",
          "type": "string"
        }
      ],
      "stateMutability": "view",
      "type": "function"
    },
    {
      "inputs": [],
      "name": "owner",
      "outputs": [
        {
          "internalType": "address",
          "name": "",
          "type": "address"
        }
      ],
      "stateMutability": "view",
      "type": "function"
    },
    {
      "inputs": [
        {
          "internalType": "uint256",
          "name": "tokenId",
          "type": "uint256"
        }
      ],
      "name": "ownerOf",
      "outputs": [
        {
          "internalType": "address",
          "name": "",
          "type": "address"
        }
      ],
      "stateMutability": "view",
      "type": "function"
    },
    {
      "inputs": [
        {
          "internalType": "bytes",
          "name": "",
          "type": "bytes"
        }
      ],
      "name": "performUpkeep",
      "outputs": [],
      "stateMutability": "nonpayable",
      "type": "function"
    },
    {
      "inputs": [],
      "name": "renounceOwnership",
      "outputs": [],
      "stateMutability": "nonpayable",
      "type": "function"
    },
    {
      "inputs": [],
      "name": "runRewardProcess",
      "outputs": [],
      "stateMutability": "nonpayable",
      "type": "function"
    },
    {
      "inputs": [
        {
          "internalType": "address",
          "name": "from",
          "type": "address"
        },
        {
          "internalType": "address",
          "name": "to",
          "type": "address"
        },
        {
          "internalType": "uint256",
          "name": "tokenId",
          "type": "uint256"
        }
      ],
      "name": "safeTransferFrom",
      "outputs": [],
      "stateMutability": "nonpayable",
      "type": "function"
    },
    {
      "inputs": [
        {
          "internalType": "address",
          "name": "from",
          "type": "address"
        },
        {
          "internalType": "address",
          "name": "to",
          "type": "address"
        },
        {
          "internalType": "uint256",
          "name": "tokenId",
          "type": "uint256"
        },
        {
          "internalType": "bytes",
          "name": "data",
          "type": "bytes"
        }
      ],
      "name": "safeTransferFrom",
      "outputs": [],
      "stateMutability": "nonpayable",
      "type": "function"
    },
    {
      "inputs": [
        {
          "internalType": "address",
          "name": "operator",
          "type": "address"
        },
        {
          "internalType": "bool",
          "name": "approved",
          "type": "bool"
        }
      ],
      "name": "setApprovalForAll",
      "outputs": [],
      "stateMutability": "nonpayable",
      "type": "function"
    },
    {
      "inputs": [
        {
          "internalType": "uint256",
          "name": "_updateTimer",
          "type": "uint256"
        }
      ],
      "name": "setUpdateTimer",
      "outputs": [],
      "stateMutability": "nonpayable",
      "type": "function"
    },
    {
      "inputs": [
        {
          "internalType": "bytes4",
          "name": "interfaceId",
          "type": "bytes4"
        }
      ],
      "name": "supportsInterface",
      "outputs": [
        {
          "internalType": "bool",
          "name": "",
          "type": "bool"
        }
      ],
      "stateMutability": "view",
      "type": "function"
    },
    {
      "inputs": [],
      "name": "symbol",
      "outputs": [
        {
          "internalType": "string",
          "name": "",
          "type": "string"
        }
      ],
      "stateMutability": "view",
      "type": "function"
    },
    {
      "inputs": [
        {
          "internalType": "uint256",
          "name": "index",
          "type": "uint256"
        }
      ],
      "name": "tokenByIndex",
      "outputs": [
        {
          "internalType": "uint256",
          "name": "",
          "type": "uint256"
        }
      ],
      "stateMutability": "view",
      "type": "function"
    },
    {
      "inputs": [
        {
          "internalType": "address",
          "name": "owner",
          "type": "address"
        },
        {
          "internalType": "uint256",
          "name": "index",
          "type": "uint256"
        }
      ],
      "name": "tokenOfOwnerByIndex",
      "outputs": [
        {
          "internalType": "uint256",
          "name": "",
          "type": "uint256"
        }
      ],
      "stateMutability": "view",
      "type": "function"
    },
    {
      "inputs": [
        {
          "internalType": "uint256",
          "name": "",
          "type": "uint256"
        }
      ],
      "name": "tokenURI",
      "outputs": [
        {
          "internalType": "string",
          "name": "",
          "type": "string"
        }
      ],
      "stateMutability": "pure",
      "type": "function"
    },
    {
      "inputs": [],
      "name": "totalSupply",
      "outputs": [
        {
          "internalType": "uint256",
          "name": "",
          "type": "uint256"
        }
      ],
      "stateMutability": "view",
      "type": "function"
    },
    {
      "inputs": [
        {
          "internalType": "address",
          "name": "from",
          "type": "address"
        },
        {
          "internalType": "address",
          "name": "to",
          "type": "address"
        },
        {
          "internalType": "uint256",
          "name": "tokenId",
          "type": "uint256"
        }
      ],
      "name": "transferFrom",
      "outputs": [],
      "stateMutability": "nonpayable",
      "type": "function"
    },
    {
      "inputs": [
        {
          "internalType": "address",
          "name": "newOwner",
          "type": "address"
        }
      ],
      "name": "transferOwnership",
      "outputs": [],
      "stateMutability": "nonpayable",
      "type": "function"
    },
    {
      "inputs": [
        {
          "internalType": "uint256",
          "name": "flightId",
          "type": "uint256"
        },
        {
          "internalType": "enum NomadBadge.FlightRewardStatus",
          "name": "status",
          "type": "uint8"
        }
      ],
      "name": "updateFlightStatus",
      "outputs": [],
      "stateMutability": "nonpayable",
      "type": "function"
    },
    {
      "inputs": [],
      "name": "updateTimer",
      "outputs": [
        {
          "internalType": "uint256",
          "name": "",
          "type": "uint256"
        }
      ],
      "stateMutability": "view",
      "type": "function"
    }
  ],
  "bytecode": "0x60a06040526000600d553480156200001657600080fd5b5060405162002d6638038062002d668339810160408190526200003991620001c7565b604080518082018252600a8152694e6f6d6164426164676560b01b6020808301918252835180850190945260038452624e424760e81b908401528151919291620000869160009162000121565b5080516200009c90600190602084019062000121565b505050620000b9620000b3620000cb60201b60201c565b620000cf565b6001600160a01b031660805262000236565b3390565b600b80546001600160a01b038381166001600160a01b0319831681179093556040519116919082907f8be0079c531659141344cd1fd0a4f28419497f9722a3daafe3b4186f6b6457e090600090a35050565b8280546200012f90620001f9565b90600052602060002090601f0160209004810192826200015357600085556200019e565b82601f106200016e57805160ff19168380011785556200019e565b828001600101855582156200019e579182015b828111156200019e57825182559160200191906001019062000181565b50620001ac929150620001b0565b5090565b5b80821115620001ac5760008155600101620001b1565b600060208284031215620001da57600080fd5b81516001600160a01b0381168114620001f257600080fd5b9392505050565b600181811c908216806200020e57607f821691505b602082108114156200023057634e487b7160e01b600052602260045260246000fd5b50919050565b608051612b0d6200025960003960008181611ad90152611bfa0152612b0d6000f3fe60806040526004361061021a5760003560e01c80636e04ff0d11610123578063a6acb726116100ab578063e985e9c51161006f578063e985e9c5146105f0578063eb6039c614610639578063ee204abb14610659578063f2fde38b14610679578063fbf8fd4f1461069957600080fd5b8063a6acb72614610559578063b10b22f414610579578063b88d4fde1461058e578063c085c346146105ae578063c87b56dd146105d057600080fd5b80638da5cb5b116100f25780638da5cb5b146104db5780639534a371146104f957806395d89b411461050e57806396fb21ce14610523578063a22cb4651461053957600080fd5b80636e04ff0d1461045857806370a0823114610486578063715018a6146104a65780637c89b580146104bb57600080fd5b80632f745c59116101a657806342842e0e1161017557806342842e0e146103b85780634585e33b146103d85780634f6ccce7146103f85780635a5d096c146104185780636352211e1461043857600080fd5b80632f745c5914610359578063324354771461037957806339277da81461038c5780633f3b3b27146103a257600080fd5b806318160ddd116101ed57806318160ddd146102d05780631eb0fc25146102ef57806323b872dd1461030f57806328a6f29d1461032f5780632d3715081461034457600080fd5b806301ffc9a71461021f57806306fdde0314610254578063081812fc14610276578063095ea7b3146102ae575b600080fd5b34801561022b57600080fd5b5061023f61023a3660046123c2565b6106ae565b60405190151581526020015b60405180910390f35b34801561026057600080fd5b506102696106bf565b60405161024b9190612437565b34801561028257600080fd5b5061029661029136600461244a565b610751565b6040516001600160a01b03909116815260200161024b565b3480156102ba57600080fd5b506102ce6102c936600461247f565b610778565b005b3480156102dc57600080fd5b506008545b60405190815260200161024b565b3480156102fb57600080fd5b506102ce61030a36600461244a565b610893565b34801561031b57600080fd5b506102ce61032a3660046124a9565b6108a0565b34801561033b57600080fd5b50600d546102e1565b34801561035057600080fd5b506102696108d1565b34801561036557600080fd5b506102e161037436600461247f565b610a9d565b6102ce61038736600461244a565b610b33565b34801561039857600080fd5b506102e160115481565b3480156103ae57600080fd5b506102e160125481565b3480156103c457600080fd5b506102ce6103d33660046124a9565b610c7e565b3480156103e457600080fd5b506102ce6103f33660046124e5565b610c99565b34801561040457600080fd5b506102e161041336600461244a565b610cfa565b34801561042457600080fd5b5061023f610433366004612557565b610d8d565b34801561044457600080fd5b5061029661045336600461244a565b610db3565b34801561046457600080fd5b506104786104733660046124e5565b610e13565b60405161024b929190612583565b34801561049257600080fd5b506102e16104a136600461259e565b610e32565b3480156104b257600080fd5b506102ce610eb8565b3480156104c757600080fd5b506102ce6104d63660046125b9565b610ecc565b3480156104e757600080fd5b50600b546001600160a01b0316610296565b34801561050557600080fd5b506102ce610f38565b34801561051a57600080fd5b506102696110d4565b34801561052f57600080fd5b506102e16105dc81565b34801561054557600080fd5b506102ce6105543660046125ed565b6110e3565b34801561056557600080fd5b506102e161057436600461259e565b6110f2565b34801561058557600080fd5b506102e1611120565b34801561059a57600080fd5b506102ce6105a9366004612634565b611130565b3480156105ba57600080fd5b506105c3611168565b60405161024b9190612710565b3480156105dc57600080fd5b506102696105eb36600461244a565b611318565b3480156105fc57600080fd5b5061023f61060b366004612754565b6001600160a01b03918216600090815260056020908152604080832093909416825291909152205460ff1690565b34801561064557600080fd5b506102ce610654366004612557565b611322565b34801561066557600080fd5b506102e161067436600461259e565b61141c565b34801561068557600080fd5b506102ce61069436600461259e565b6114f0565b3480156106a557600080fd5b506102e1611566565b60006106b9826115a8565b92915050565b6060600080546106ce9061277e565b80601f01602080910402602001604051908101604052809291908181526020018280546106fa9061277e565b80156107475780601f1061071c57610100808354040283529160200191610747565b820191906000526020600020905b81548152906001019060200180831161072a57829003601f168201915b5050505050905090565b600061075c826115cd565b506000908152600460205260409020546001600160a01b031690565b600061078382610db3565b9050806001600160a01b0316836001600160a01b031614156107f65760405162461bcd60e51b815260206004820152602160248201527f4552433732313a20617070726f76616c20746f2063757272656e74206f776e656044820152603960f91b60648201526084015b60405180910390fd5b336001600160a01b03821614806108125750610812813361060b565b6108845760405162461bcd60e51b815260206004820152603d60248201527f4552433732313a20617070726f76652063616c6c6572206973206e6f7420746f60448201527f6b656e206f776e6572206f7220617070726f76656420666f7220616c6c00000060648201526084016107ed565b61088e838361162c565b505050565b61089b61169a565b601155565b6108aa33826116f4565b6108c65760405162461bcd60e51b81526004016107ed906127b9565b61088e838383611773565b60606000604051602001610a58907f3c73766720786d6c6e733d27687474703a2f2f7777772e77332e6f72672f323081527f30302f737667272076657273696f6e3d27312e3127206865696768743d273131602082015270181813903bb4b23a341e9398989818139f60791b60408201527f3c636972636c652063783d27353030272063793d273530302720723d2731353060518201527f272066696c6c3d276c61776e677265656e27207374726f6b653d2723303031316071820152751919139039ba3937b5b296bbb4b23a341e939913979f60511b60918201527f3c7265637420783d273630302720793d27323530272077696474683d2733353060a78201527f27206865696768743d27323530272066696c6c3d277465616c27202f3e00000060c78201527f3c706f6c79676f6e20706f696e74733d273830302c323030203935302c34303060e48201527f203635302c343030272066696c6c3d276f72616e676527202f3e203c2f737667610104820152601f60f91b6101248201526101250190565b60405160208183030381529060405290506000610a74826118e4565b905080604051602001610a879190612806565b6040516020818303038152906040529250505090565b6000610aa883610e32565b8210610b0a5760405162461bcd60e51b815260206004820152602b60248201527f455243373231456e756d657261626c653a206f776e657220696e646578206f7560448201526a74206f6620626f756e647360a81b60648201526084016107ed565b506001600160a01b03919091166000908152600660209081526040808320938352929052205490565b6000818152600f6020526040902054811415610b915760405162461bcd60e51b815260206004820152601960248201527f466c6967687420616c726561647920726567697374657265640000000000000060448201526064016107ed565b60408051606081019091528181526020810160008152336020918201526000838152600f825260409020825181559082015160018083018054909160ff1990911690836005811115610be557610be561284b565b0217905550604091820151600191820180546001600160a01b0390921661010002610100600160a81b0319909216919091179055600e805491820181556000527fbb7b4a454dc3493923482f07822329ed19e8244eff582cc204f8554c3620c3fd01829055518181527f95c861c95c60378d96c8e5f74bed2f87e222f096e0a7ff8736bc6e48b9bc13f69060200160405180910390a150565b61088e83838360405180602001604052806000815250611130565b601154601254610ca99042612877565b1115610cbb5742601255610cbb610f38565b7f94af253de69550dc89f661ee40c3f9ca744b642089664d2d8f145f393a37903c601254604051610cee91815260200190565b60405180910390a15050565b6000610d0560085490565b8210610d685760405162461bcd60e51b815260206004820152602c60248201527f455243373231456e756d657261626c653a20676c6f62616c20696e646578206f60448201526b7574206f6620626f756e647360a01b60648201526084016107ed565b60088281548110610d7b57610d7b61288e565b90600052602060002001549050919050565b6000816001600160a01b0316610da284610db3565b6001600160a01b0316149392505050565b6000818152600260205260408120546001600160a01b0316806106b95760405162461bcd60e51b8152602060048201526018602482015277115490cdcc8c4e881a5b9d985b1a59081d1bdad95b88125160421b60448201526064016107ed565b6000606060115460125442610e289190612877565b1191509250929050565b60006001600160a01b038216610e9c5760405162461bcd60e51b815260206004820152602960248201527f4552433732313a2061646472657373207a65726f206973206e6f7420612076616044820152683634b21037bbb732b960b91b60648201526084016107ed565b506001600160a01b031660009081526003602052604090205490565b610ec061169a565b610eca6000611a4c565b565b610ed461169a565b6000828152600f6020526040902060019081018054839260ff1990911690836005811115610f0457610f0461284b565b02179055507f862e93a44de3578a10562508e4206814b11d4c3a4992c83b481c6100d07bc1b581604051610cee91906128a4565b610f4061169a565b60005b600e548110156110d1576000600e8281548110610f6257610f6261288e565b600091825260209091200154905060016000828152600f602052604090206001015460ff166005811115610f9857610f9861284b565b14156110be576000610fa9600c5490565b6000818152600260205260409020549091506001600160a01b0316156110085760405162461bcd60e51b8152602060048201526014602482015273546f6b656e20616c72656164792065786973747360601b60448201526064016107ed565b6000828152600f602052604090206001015461010090046001600160a01b03166110328183611a9e565b611040600c80546001019055565b61104982611318565b5060008281526010602090815260409182902080546001600160a01b0319166001600160a01b03851690811790915591519182527f2b6f69d559abc93b78b0d468740be7b8aa9bcb6a39fda6376e946cb01aed809f910160405180910390a16110b28282611322565b6110bb81611ab8565b50505b50806110c9816128cc565b915050610f43565b50565b6060600180546106ce9061277e565b6110ee338383611c5a565b5050565b6000806110fe83610e32565b9050600081116106b95760405162461bcd60e51b81526004016107ed906128e7565b600061112b600c5490565b905090565b61113a33836116f4565b6111565760405162461bcd60e51b81526004016107ed906127b9565b61116284848484611d29565b50505050565b606061117261169a565b600e5460009067ffffffffffffffff8111156111905761119061261e565b6040519080825280602002602001820160405280156111b9578160200160208202803683370190505b5090506000805b600e54811015611274576000600e82815481106111df576111df61288e565b600091825260208220015491506000828152600f602052604090206001015460ff1660058111156112125761121261284b565b141561126157600e828154811061122b5761122b61288e565b90600052602060002001548484815181106112485761124861288e565b60209081029190910101528261125d816128cc565b9350505b508061126c816128cc565b9150506111c0565b5060008167ffffffffffffffff8111156112905761129061261e565b6040519080825280602002602001820160405280156112b9578160200160208202803683370190505b50905060005b82811015611310578381815181106112d9576112d961288e565b60200260200101518282815181106112f3576112f361288e565b602090810291909101015280611308816128cc565b9150506112bf565b509250505090565b60606106b96108d1565b61132c8282610d8d565b61138f5760405162461bcd60e51b815260206004820152602e60248201527f596f752063616e206f6e6c792061737369676e20706f696e747320746f20796f60448201526d3ab91037bbb7103a37b5b2b7399760911b60648201526084016107ed565b600082815260106020526040812060010180546105dc92906113b290849061291e565b925050819055506105dc600d60008282546113cd919061291e565b9091555050604080518381526001600160a01b03831660208201526105dc918101919091527fd7c236824feb9d39b4a052e9fbdb4ca22c53d1a04ee99be03514e3c408ad181890606001610cee565b60008061142883610e32565b116114455760405162461bcd60e51b81526004016107ed906128e7565b6000611452836000610a9d565b6000818152601060205260409020549091506001600160a01b0316156114d85760405162461bcd60e51b815260206004820152603560248201527f497420776173206e6f7420706f737369626c6520746f206765742072657761726044820152743239903837b4b73a3990313c903130b233b2a4b21760591b60648201526084016107ed565b60009081526010602052604090206001015492915050565b6114f861169a565b6001600160a01b03811661155d5760405162461bcd60e51b815260206004820152602660248201527f4f776e61626c653a206e6577206f776e657220697320746865207a65726f206160448201526564647265737360d01b60648201526084016107ed565b6110d181611a4c565b60008061157233610e32565b9050600081116115945760405162461bcd60e51b81526004016107ed906128e7565b60006115a1336000610a9d565b9392505050565b60006001600160e01b0319821663780e9d6360e01b14806106b957506106b982611d5c565b6000818152600260205260409020546001600160a01b03166110d15760405162461bcd60e51b8152602060048201526018602482015277115490cdcc8c4e881a5b9d985b1a59081d1bdad95b88125160421b60448201526064016107ed565b600081815260046020526040902080546001600160a01b0319166001600160a01b038416908117909155819061166182610db3565b6001600160a01b03167f8c5be1e5ebec7d5bd14f71427d1e84f3dd0314c0f7b2291e5b200ac8c7c3b92560405160405180910390a45050565b600b546001600160a01b03163314610eca5760405162461bcd60e51b815260206004820181905260248201527f4f776e61626c653a2063616c6c6572206973206e6f7420746865206f776e657260448201526064016107ed565b60008061170083610db3565b9050806001600160a01b0316846001600160a01b0316148061174757506001600160a01b0380821660009081526005602090815260408083209388168352929052205460ff165b8061176b5750836001600160a01b031661176084610751565b6001600160a01b0316145b949350505050565b826001600160a01b031661178682610db3565b6001600160a01b0316146117ac5760405162461bcd60e51b81526004016107ed90612936565b6001600160a01b03821661180e5760405162461bcd60e51b8152602060048201526024808201527f4552433732313a207472616e7366657220746f20746865207a65726f206164646044820152637265737360e01b60648201526084016107ed565b61181b8383836001611dac565b826001600160a01b031661182e82610db3565b6001600160a01b0316146118545760405162461bcd60e51b81526004016107ed90612936565b600081815260046020908152604080832080546001600160a01b03199081169091556001600160a01b0387811680865260038552838620805460001901905590871680865283862080546001019055868652600290945282852080549092168417909155905184937fddf252ad1be2c89b69c2b068fc378daa952ba7f163c4a11628f55a4df523b3ef91a4505050565b606081516000141561190457505060408051602081019091526000815290565b6000604051806060016040528060408152602001612a986040913990506000600384516002611933919061291e565b61193d919061297b565b61194890600461299d565b9050600061195782602061291e565b67ffffffffffffffff81111561196f5761196f61261e565b6040519080825280601f01601f191660200182016040528015611999576020820181803683370190505b509050818152600183018586518101602084015b81831015611a075760039283018051603f601282901c811687015160f890811b8552600c83901c8216880151811b6001860152600683901c8216880151811b60028601529116860151901b938201939093526004016119ad565b600389510660018114611a215760028114611a3257611a3e565b613d3d60f01b600119830152611a3e565b603d60f81b6000198301525b509398975050505050505050565b600b80546001600160a01b038381166001600160a01b0319831681179093556040519116919082907f8be0079c531659141344cd1fd0a4f28419497f9722a3daafe3b4186f6b6457e090600090a35050565b6110ee828260405180602001604052806000815250611e0f565b611ac061169a565b6000611ad46105dc655af3107a400061299d565b9050807f00000000000000000000000000000000000000000000000000000000000000006001600160a01b03166370a08231611b18600b546001600160a01b031690565b6040516001600160e01b031960e084901b1681526001600160a01b03909116600482015260240160206040518083038186803b158015611b5757600080fd5b505afa158015611b6b573d6000803e3d6000fd5b505050506040513d601f19601f82011682018060405250810190611b8f91906129bc565b1015611bd45760405162461bcd60e51b8152602060048201526014602482015273496e73756666696369656e742062616c616e636560601b60448201526064016107ed565b60405163413918c960e11b81526001600160a01b038381166004830152602482018390527f00000000000000000000000000000000000000000000000000000000000000001690638272319290604401600060405180830381600087803b158015611c3e57600080fd5b505af1158015611c52573d6000803e3d6000fd5b505050505050565b816001600160a01b0316836001600160a01b03161415611cbc5760405162461bcd60e51b815260206004820152601960248201527f4552433732313a20617070726f766520746f2063616c6c65720000000000000060448201526064016107ed565b6001600160a01b03838116600081815260056020908152604080832094871680845294825291829020805460ff191686151590811790915591519182527f17307eab39ab6107e8899845ad3d59bd9653f200f220920489ca2b5937696c31910160405180910390a3505050565b611d34848484611773565b611d4084848484611e42565b6111625760405162461bcd60e51b81526004016107ed906129d5565b60006001600160e01b031982166380ac58cd60e01b1480611d8d57506001600160e01b03198216635b5e139f60e01b145b806106b957506301ffc9a760e01b6001600160e01b03198316146106b9565b6001600160a01b03841615611e035760405162461bcd60e51b815260206004820152601860248201527f426164676520746f6b656e20697320736f756c626f756e64000000000000000060448201526064016107ed565b61116284848484611f4f565b611e198383612083565b611e266000848484611e42565b61088e5760405162461bcd60e51b81526004016107ed906129d5565b60006001600160a01b0384163b15611f4457604051630a85bd0160e11b81526001600160a01b0385169063150b7a0290611e86903390899088908890600401612a27565b602060405180830381600087803b158015611ea057600080fd5b505af1925050508015611ed0575060408051601f3d908101601f19168201909252611ecd91810190612a64565b60015b611f2a573d808015611efe576040519150601f19603f3d011682016040523d82523d6000602084013e611f03565b606091505b508051611f225760405162461bcd60e51b81526004016107ed906129d5565b805181602001fd5b6001600160e01b031916630a85bd0160e11b14905061176b565b506001949350505050565b6001811115611fbe5760405162461bcd60e51b815260206004820152603560248201527f455243373231456e756d657261626c653a20636f6e7365637574697665207472604482015274185b9cd9995c9cc81b9bdd081cdd5c1c1bdc9d1959605a1b60648201526084016107ed565b816001600160a01b03851661201a5761201581600880546000838152600960205260408120829055600182018355919091527ff3f7a9fe364faab93b216da50a3214154f22a0a2b415b23a84c8169e8b636ee30155565b61203d565b836001600160a01b0316856001600160a01b03161461203d5761203d858261221c565b6001600160a01b03841661205957612054816122b9565b61207c565b846001600160a01b0316846001600160a01b03161461207c5761207c8482612368565b5050505050565b6001600160a01b0382166120d95760405162461bcd60e51b815260206004820181905260248201527f4552433732313a206d696e7420746f20746865207a65726f206164647265737360448201526064016107ed565b6000818152600260205260409020546001600160a01b03161561213e5760405162461bcd60e51b815260206004820152601c60248201527f4552433732313a20746f6b656e20616c7265616479206d696e7465640000000060448201526064016107ed565b61214c600083836001611dac565b6000818152600260205260409020546001600160a01b0316156121b15760405162461bcd60e51b815260206004820152601c60248201527f4552433732313a20746f6b656e20616c7265616479206d696e7465640000000060448201526064016107ed565b6001600160a01b038216600081815260036020908152604080832080546001019055848352600290915280822080546001600160a01b0319168417905551839291907fddf252ad1be2c89b69c2b068fc378daa952ba7f163c4a11628f55a4df523b3ef908290a45050565b6000600161222984610e32565b6122339190612877565b600083815260076020526040902054909150808214612286576001600160a01b03841660009081526006602090815260408083208584528252808320548484528184208190558352600790915290208190555b5060009182526007602090815260408084208490556001600160a01b039094168352600681528383209183525290812055565b6008546000906122cb90600190612877565b600083815260096020526040812054600880549394509092849081106122f3576122f361288e565b9060005260206000200154905080600883815481106123145761231461288e565b600091825260208083209091019290925582815260099091526040808220849055858252812055600880548061234c5761234c612a81565b6001900381819060005260206000200160009055905550505050565b600061237383610e32565b6001600160a01b039093166000908152600660209081526040808320868452825280832085905593825260079052919091209190915550565b6001600160e01b0319811681146110d157600080fd5b6000602082840312156123d457600080fd5b81356115a1816123ac565b60005b838110156123fa5781810151838201526020016123e2565b838111156111625750506000910152565b600081518084526124238160208601602086016123df565b601f01601f19169290920160200192915050565b6020815260006115a1602083018461240b565b60006020828403121561245c57600080fd5b5035919050565b80356001600160a01b038116811461247a57600080fd5b919050565b6000806040838503121561249257600080fd5b61249b83612463565b946020939093013593505050565b6000806000606084860312156124be57600080fd5b6124c784612463565b92506124d560208501612463565b9150604084013590509250925092565b600080602083850312156124f857600080fd5b823567ffffffffffffffff8082111561251057600080fd5b818501915085601f83011261252457600080fd5b81358181111561253357600080fd5b86602082850101111561254557600080fd5b60209290920196919550909350505050565b6000806040838503121561256a57600080fd5b8235915061257a60208401612463565b90509250929050565b821515815260406020820152600061176b604083018461240b565b6000602082840312156125b057600080fd5b6115a182612463565b600080604083850312156125cc57600080fd5b823591506020830135600681106125e257600080fd5b809150509250929050565b6000806040838503121561260057600080fd5b61260983612463565b9150602083013580151581146125e257600080fd5b634e487b7160e01b600052604160045260246000fd5b6000806000806080858703121561264a57600080fd5b61265385612463565b935061266160208601612463565b925060408501359150606085013567ffffffffffffffff8082111561268557600080fd5b818701915087601f83011261269957600080fd5b8135818111156126ab576126ab61261e565b604051601f8201601f19908116603f011681019083821181831017156126d3576126d361261e565b816040528281528a60208487010111156126ec57600080fd5b82602086016020830137600060208483010152809550505050505092959194509250565b6020808252825182820181905260009190848201906040850190845b818110156127485783518352928401929184019160010161272c565b50909695505050505050565b6000806040838503121561276757600080fd5b61277083612463565b915061257a60208401612463565b600181811c9082168061279257607f821691505b602082108114156127b357634e487b7160e01b600052602260045260246000fd5b50919050565b6020808252602d908201527f4552433732313a2063616c6c6572206973206e6f7420746f6b656e206f776e6560408201526c1c881bdc88185c1c1c9bdd9959609a1b606082015260800190565b7f646174613a696d6167652f7376672b786d6c3b6261736536342c00000000000081526000825161283e81601a8501602087016123df565b91909101601a0192915050565b634e487b7160e01b600052602160045260246000fd5b634e487b7160e01b600052601160045260246000fd5b60008282101561288957612889612861565b500390565b634e487b7160e01b600052603260045260246000fd5b60208101600683106128c657634e487b7160e01b600052602160045260246000fd5b91905290565b60006000198214156128e0576128e0612861565b5060010190565b60208082526018908201527f4e6f20746f6b656e206f776e65642062792073656e6465720000000000000000604082015260600190565b6000821982111561293157612931612861565b500190565b60208082526025908201527f4552433732313a207472616e736665722066726f6d20696e636f72726563742060408201526437bbb732b960d91b606082015260800190565b60008261299857634e487b7160e01b600052601260045260246000fd5b500490565b60008160001904831182151516156129b7576129b7612861565b500290565b6000602082840312156129ce57600080fd5b5051919050565b60208082526032908201527f4552433732313a207472616e7366657220746f206e6f6e20455243373231526560408201527131b2b4bb32b91034b6b83632b6b2b73a32b960711b606082015260800190565b6001600160a01b0385811682528416602082015260408101839052608060608201819052600090612a5a9083018461240b565b9695505050505050565b600060208284031215612a7657600080fd5b81516115a1816123ac565b634e487b7160e01b600052603160045260246000fdfe4142434445464748494a4b4c4d4e4f505152535455565758595a6162636465666768696a6b6c6d6e6f707172737475767778797a303132333435363738392b2fa2646970667358221220155bbfa42275afad29d2855cf0f6fe49ada8d802d80df35d5b490e823184437b64736f6c63430008090033",
  "linkReferences": {},
  "deployedLinkReferences": {}
}