{
  "_format": "hh-sol-artifact-1",
  "contractName": "NomadBadge",
  "sourceName": "contracts/NomadBadge.sol",
  "abi": [
    {
      "inputs": [
        {
          "internalType": "address",
          "name": "erc20Address",
          "type": "address"
        }
      ],
      "stateMutability": "nonpayable",
      "type": "constructor"
    },
    {
      "anonymous": false,
      "inputs": [
        {
          "indexed": true,
          "internalType": "address",
          "name": "owner",
          "type": "address"
        },
        {
          "indexed": true,
          "internalType": "address",
          "name": "approved",
          "type": "address"
        },
        {
          "indexed": true,
          "internalType": "uint256",
          "name": "tokenId",
          "type": "uint256"
        }
      ],
      "name": "Approval",
      "type": "event"
    },
    {
      "anonymous": false,
      "inputs": [
        {
          "indexed": true,
          "internalType": "address",
          "name": "owner",
          "type": "address"
        },
        {
          "indexed": true,
          "internalType": "address",
          "name": "operator",
          "type": "address"
        },
        {
          "indexed": false,
          "internalType": "bool",
          "name": "approved",
          "type": "bool"
        }
      ],
      "name": "ApprovalForAll",
      "type": "event"
    },
    {
      "anonymous": false,
      "inputs": [
        {
          "indexed": false,
          "internalType": "uint256",
          "name": "flightId",
          "type": "uint256"
        }
      ],
      "name": "FlightAdded",
      "type": "event"
    },
    {
      "anonymous": false,
      "inputs": [
        {
          "indexed": false,
          "internalType": "enum NomadBadge.FlightRewardStatus",
          "name": "status",
          "type": "uint8"
        }
      ],
      "name": "FlightStatusUpdated",
      "type": "event"
    },
    {
      "anonymous": false,
      "inputs": [
        {
          "indexed": true,
          "internalType": "address",
          "name": "previousOwner",
          "type": "address"
        },
        {
          "indexed": true,
          "internalType": "address",
          "name": "newOwner",
          "type": "address"
        }
      ],
      "name": "OwnershipTransferred",
      "type": "event"
    },
    {
      "anonymous": false,
      "inputs": [
        {
          "indexed": false,
          "internalType": "uint256",
          "name": "badgeId",
          "type": "uint256"
        },
        {
          "indexed": false,
          "internalType": "address",
          "name": "to",
          "type": "address"
        },
        {
          "indexed": false,
          "internalType": "uint256",
          "name": "points",
          "type": "uint256"
        }
      ],
      "name": "RewardsPointsAssigned",
      "type": "event"
    },
    {
      "anonymous": false,
      "inputs": [
        {
          "indexed": false,
          "internalType": "address",
          "name": "to",
          "type": "address"
        }
      ],
      "name": "RewardsProvided",
      "type": "event"
    },
    {
      "anonymous": false,
      "inputs": [
        {
          "indexed": true,
          "internalType": "address",
          "name": "from",
          "type": "address"
        },
        {
          "indexed": true,
          "internalType": "address",
          "name": "to",
          "type": "address"
        },
        {
          "indexed": true,
          "internalType": "uint256",
          "name": "tokenId",
          "type": "uint256"
        }
      ],
      "name": "Transfer",
      "type": "event"
    },
    {
      "inputs": [],
      "name": "DEFAULT_REWARD_POINTS",
      "outputs": [
        {
          "internalType": "uint256",
          "name": "",
          "type": "uint256"
        }
      ],
      "stateMutability": "view",
      "type": "function"
    },
    {
      "inputs": [
        {
          "internalType": "uint256",
          "name": "flightId",
          "type": "uint256"
        },
        {
          "internalType": "address",
          "name": "passenger",
          "type": "address"
        }
      ],
      "name": "addFlight",
      "outputs": [],
      "stateMutability": "payable",
      "type": "function"
    },
    {
      "inputs": [
        {
          "internalType": "address",
          "name": "to",
          "type": "address"
        },
        {
          "internalType": "uint256",
          "name": "tokenId",
          "type": "uint256"
        }
      ],
      "name": "approve",
      "outputs": [],
      "stateMutability": "nonpayable",
      "type": "function"
    },
    {
      "inputs": [
        {
          "internalType": "uint256",
          "name": "badgeId",
          "type": "uint256"
        },
        {
          "internalType": "address",
          "name": "passenger",
          "type": "address"
        }
      ],
      "name": "assignPoints",
      "outputs": [],
      "stateMutability": "nonpayable",
      "type": "function"
    },
    {
      "inputs": [
        {
          "internalType": "address",
          "name": "owner",
          "type": "address"
        }
      ],
      "name": "balanceOf",
      "outputs": [
        {
          "internalType": "uint256",
          "name": "",
          "type": "uint256"
        }
      ],
      "stateMutability": "view",
      "type": "function"
    },
    {
      "inputs": [
        {
          "internalType": "bytes",
          "name": "",
          "type": "bytes"
        }
      ],
      "name": "checkUpkeep",
      "outputs": [
        {
          "internalType": "bool",
          "name": "upkeepNeeded",
          "type": "bool"
        },
        {
          "internalType": "bytes",
          "name": "",
          "type": "bytes"
        }
      ],
      "stateMutability": "view",
      "type": "function"
    },
    {
      "inputs": [],
      "name": "constructTokenURI",
      "outputs": [
        {
          "internalType": "string",
          "name": "",
          "type": "string"
        }
      ],
      "stateMutability": "pure",
      "type": "function"
    },
    {
      "inputs": [
        {
          "internalType": "uint256",
          "name": "tokenId",
          "type": "uint256"
        }
      ],
      "name": "getApproved",
      "outputs": [
        {
          "internalType": "address",
          "name": "",
          "type": "address"
        }
      ],
      "stateMutability": "view",
      "type": "function"
    },
    {
      "inputs": [
        {
          "internalType": "uint256",
          "name": "badgeId",
          "type": "uint256"
        }
      ],
      "name": "getPoints",
      "outputs": [
        {
          "internalType": "uint256",
          "name": "",
          "type": "uint256"
        }
      ],
      "stateMutability": "view",
      "type": "function"
    },
    {
      "inputs": [],
      "name": "getTotalBadgesMinted",
      "outputs": [
        {
          "internalType": "uint256",
          "name": "",
          "type": "uint256"
        }
      ],
      "stateMutability": "view",
      "type": "function"
    },
    {
      "inputs": [],
      "name": "getTotalPointsDistributed",
      "outputs": [
        {
          "internalType": "uint256",
          "name": "",
          "type": "uint256"
        }
      ],
      "stateMutability": "view",
      "type": "function"
    },
    {
      "inputs": [
        {
          "internalType": "address",
          "name": "owner",
          "type": "address"
        },
        {
          "internalType": "address",
          "name": "operator",
          "type": "address"
        }
      ],
      "name": "isApprovedForAll",
      "outputs": [
        {
          "internalType": "bool",
          "name": "",
          "type": "bool"
        }
      ],
      "stateMutability": "view",
      "type": "function"
    },
    {
      "inputs": [
        {
          "internalType": "uint256",
          "name": "badgeId",
          "type": "uint256"
        },
        {
          "internalType": "address",
          "name": "owner",
          "type": "address"
        }
      ],
      "name": "isOwner",
      "outputs": [
        {
          "internalType": "bool",
          "name": "",
          "type": "bool"
        }
      ],
      "stateMutability": "view",
      "type": "function"
    },
    {
      "inputs": [],
      "name": "lastTimeStamp",
      "outputs": [
        {
          "internalType": "uint256",
          "name": "",
          "type": "uint256"
        }
      ],
      "stateMutability": "view",
      "type": "function"
    },
    {
      "inputs": [],
      "name": "name",
      "outputs": [
        {
          "internalType": "string",
          "name": "",
          "type": "string"
        }
      ],
      "stateMutability": "view",
      "type": "function"
    },
    {
      "inputs": [],
      "name": "owner",
      "outputs": [
        {
          "internalType": "address",
          "name": "",
          "type": "address"
        }
      ],
      "stateMutability": "view",
      "type": "function"
    },
    {
      "inputs": [
        {
          "internalType": "uint256",
          "name": "tokenId",
          "type": "uint256"
        }
      ],
      "name": "ownerOf",
      "outputs": [
        {
          "internalType": "address",
          "name": "",
          "type": "address"
        }
      ],
      "stateMutability": "view",
      "type": "function"
    },
    {
      "inputs": [
        {
          "internalType": "bytes",
          "name": "",
          "type": "bytes"
        }
      ],
      "name": "performUpkeep",
      "outputs": [],
      "stateMutability": "nonpayable",
      "type": "function"
    },
    {
      "inputs": [],
      "name": "renounceOwnership",
      "outputs": [],
      "stateMutability": "nonpayable",
      "type": "function"
    },
    {
      "inputs": [],
      "name": "runRewardProcess",
      "outputs": [],
      "stateMutability": "nonpayable",
      "type": "function"
    },
    {
      "inputs": [
        {
          "internalType": "address",
          "name": "from",
          "type": "address"
        },
        {
          "internalType": "address",
          "name": "to",
          "type": "address"
        },
        {
          "internalType": "uint256",
          "name": "tokenId",
          "type": "uint256"
        }
      ],
      "name": "safeTransferFrom",
      "outputs": [],
      "stateMutability": "nonpayable",
      "type": "function"
    },
    {
      "inputs": [
        {
          "internalType": "address",
          "name": "from",
          "type": "address"
        },
        {
          "internalType": "address",
          "name": "to",
          "type": "address"
        },
        {
          "internalType": "uint256",
          "name": "tokenId",
          "type": "uint256"
        },
        {
          "internalType": "bytes",
          "name": "data",
          "type": "bytes"
        }
      ],
      "name": "safeTransferFrom",
      "outputs": [],
      "stateMutability": "nonpayable",
      "type": "function"
    },
    {
      "inputs": [
        {
          "internalType": "address",
          "name": "operator",
          "type": "address"
        },
        {
          "internalType": "bool",
          "name": "approved",
          "type": "bool"
        }
      ],
      "name": "setApprovalForAll",
      "outputs": [],
      "stateMutability": "nonpayable",
      "type": "function"
    },
    {
      "inputs": [
        {
          "internalType": "uint256",
          "name": "_updateTimer",
          "type": "uint256"
        }
      ],
      "name": "setUpdateTimer",
      "outputs": [],
      "stateMutability": "nonpayable",
      "type": "function"
    },
    {
      "inputs": [
        {
          "internalType": "bytes4",
          "name": "interfaceId",
          "type": "bytes4"
        }
      ],
      "name": "supportsInterface",
      "outputs": [
        {
          "internalType": "bool",
          "name": "",
          "type": "bool"
        }
      ],
      "stateMutability": "view",
      "type": "function"
    },
    {
      "inputs": [],
      "name": "symbol",
      "outputs": [
        {
          "internalType": "string",
          "name": "",
          "type": "string"
        }
      ],
      "stateMutability": "view",
      "type": "function"
    },
    {
      "inputs": [
        {
          "internalType": "uint256",
          "name": "index",
          "type": "uint256"
        }
      ],
      "name": "tokenByIndex",
      "outputs": [
        {
          "internalType": "uint256",
          "name": "",
          "type": "uint256"
        }
      ],
      "stateMutability": "view",
      "type": "function"
    },
    {
      "inputs": [
        {
          "internalType": "address",
          "name": "owner",
          "type": "address"
        },
        {
          "internalType": "uint256",
          "name": "index",
          "type": "uint256"
        }
      ],
      "name": "tokenOfOwnerByIndex",
      "outputs": [
        {
          "internalType": "uint256",
          "name": "",
          "type": "uint256"
        }
      ],
      "stateMutability": "view",
      "type": "function"
    },
    {
      "inputs": [
        {
          "internalType": "uint256",
          "name": "",
          "type": "uint256"
        }
      ],
      "name": "tokenURI",
      "outputs": [
        {
          "internalType": "string",
          "name": "",
          "type": "string"
        }
      ],
      "stateMutability": "pure",
      "type": "function"
    },
    {
      "inputs": [],
      "name": "totalSupply",
      "outputs": [
        {
          "internalType": "uint256",
          "name": "",
          "type": "uint256"
        }
      ],
      "stateMutability": "view",
      "type": "function"
    },
    {
      "inputs": [
        {
          "internalType": "address",
          "name": "from",
          "type": "address"
        },
        {
          "internalType": "address",
          "name": "to",
          "type": "address"
        },
        {
          "internalType": "uint256",
          "name": "tokenId",
          "type": "uint256"
        }
      ],
      "name": "transferFrom",
      "outputs": [],
      "stateMutability": "nonpayable",
      "type": "function"
    },
    {
      "inputs": [
        {
          "internalType": "address",
          "name": "newOwner",
          "type": "address"
        }
      ],
      "name": "transferOwnership",
      "outputs": [],
      "stateMutability": "nonpayable",
      "type": "function"
    },
    {
      "inputs": [
        {
          "internalType": "uint256",
          "name": "flightId",
          "type": "uint256"
        },
        {
          "internalType": "enum NomadBadge.FlightRewardStatus",
          "name": "status",
          "type": "uint8"
        }
      ],
      "name": "updateFlightStatus",
      "outputs": [],
      "stateMutability": "nonpayable",
      "type": "function"
    },
    {
      "inputs": [],
      "name": "updateTimer",
      "outputs": [
        {
          "internalType": "uint256",
          "name": "",
          "type": "uint256"
        }
      ],
      "stateMutability": "view",
      "type": "function"
    }
  ],
  "bytecode": "0x60806040526000600e553480156200001657600080fd5b5060405162002b8b38038062002b8b8339810160408190526200003991620001db565b604080518082018252600a8152694e6f6d6164426164676560b01b6020808301918252835180850190945260038452624e424760e81b908401528151919291620000869160009162000135565b5080516200009c90600190602084019062000135565b505050620000b9620000b3620000df60201b60201c565b620000e3565b600c80546001600160a01b0319166001600160a01b03929092169190911790556200024a565b3390565b600b80546001600160a01b038381166001600160a01b0319831681179093556040519116919082907f8be0079c531659141344cd1fd0a4f28419497f9722a3daafe3b4186f6b6457e090600090a35050565b82805462000143906200020d565b90600052602060002090601f016020900481019282620001675760008555620001b2565b82601f106200018257805160ff1916838001178555620001b2565b82800160010185558215620001b2579182015b82811115620001b257825182559160200191906001019062000195565b50620001c0929150620001c4565b5090565b5b80821115620001c05760008155600101620001c5565b600060208284031215620001ee57600080fd5b81516001600160a01b03811681146200020657600080fd5b9392505050565b600181811c908216806200022257607f821691505b602082108114156200024457634e487b7160e01b600052602260045260246000fd5b50919050565b612931806200025a6000396000f3fe6080604052600436106101f95760003560e01c80636352211e1161010d57806396fb21ce116100a0578063b88d4fde1161006f578063b88d4fde1461056d578063c87b56dd1461058d578063e985e9c5146105ad578063eb6039c6146105f6578063f2fde38b1461061657600080fd5b806396fb21ce14610502578063a22cb46514610518578063a967eee414610538578063b10b22f41461055857600080fd5b80637c89b580116100dc5780637c89b5801461049a5780638da5cb5b146104ba5780639534a371146104d857806395d89b41146104ed57600080fd5b80636352211e146104175780636e04ff0d1461043757806370a0823114610465578063715018a61461048557600080fd5b80632d371508116101905780633f408da21161015f5780633f408da21461038457806342842e0e146103975780634585e33b146103b75780634f6ccce7146103d75780635a5d096c146103f757600080fd5b80632d371508146103235780632f745c591461033857806339277da8146103585780633f3b3b271461036e57600080fd5b806318160ddd116101cc57806318160ddd146102af5780631eb0fc25146102ce57806323b872dd146102ee57806328a6f29d1461030e57600080fd5b806301ffc9a7146101fe57806306fdde0314610233578063081812fc14610255578063095ea7b31461028d575b600080fd5b34801561020a57600080fd5b5061021e610219366004612187565b610636565b60405190151581526020015b60405180910390f35b34801561023f57600080fd5b50610248610647565b60405161022a9190612203565b34801561026157600080fd5b50610275610270366004612216565b6106d9565b6040516001600160a01b03909116815260200161022a565b34801561029957600080fd5b506102ad6102a836600461224b565b610700565b005b3480156102bb57600080fd5b506008545b60405190815260200161022a565b3480156102da57600080fd5b506102ad6102e9366004612216565b61081b565b3480156102fa57600080fd5b506102ad610309366004612275565b610828565b34801561031a57600080fd5b50600e546102c0565b34801561032f57600080fd5b50610248610859565b34801561034457600080fd5b506102c061035336600461224b565b610a25565b34801561036457600080fd5b506102c060125481565b34801561037a57600080fd5b506102c060135481565b6102ad6103923660046122b1565b610abb565b3480156103a357600080fd5b506102ad6103b2366004612275565b610c33565b3480156103c357600080fd5b506102ad6103d23660046122dd565b610c4e565b3480156103e357600080fd5b506102c06103f2366004612216565b610c5a565b34801561040357600080fd5b5061021e6104123660046122b1565b610ced565b34801561042357600080fd5b50610275610432366004612216565b610d13565b34801561044357600080fd5b506104576104523660046122dd565b610d73565b60405161022a92919061234f565b34801561047157600080fd5b506102c061048036600461236a565b610d92565b34801561049157600080fd5b506102ad610e18565b3480156104a657600080fd5b506102ad6104b5366004612385565b610e2c565b3480156104c657600080fd5b50600b546001600160a01b0316610275565b3480156104e457600080fd5b506102ad610ea4565b3480156104f957600080fd5b50610248611067565b34801561050e57600080fd5b506102c06103e881565b34801561052457600080fd5b506102ad6105333660046123b9565b611076565b34801561054457600080fd5b506102c0610553366004612216565b611081565b34801561056457600080fd5b506102c061111a565b34801561057957600080fd5b506102ad610588366004612400565b61112a565b34801561059957600080fd5b506102486105a8366004612216565b611162565b3480156105b957600080fd5b5061021e6105c83660046124dc565b6001600160a01b03918216600090815260056020908152604080832093909416825291909152205460ff1690565b34801561060257600080fd5b506102ad6106113660046122b1565b61116c565b34801561062257600080fd5b506102ad61063136600461236a565b61129c565b600061064182611312565b92915050565b60606000805461065690612506565b80601f016020809104026020016040519081016040528092919081815260200182805461068290612506565b80156106cf5780601f106106a4576101008083540402835291602001916106cf565b820191906000526020600020905b8154815290600101906020018083116106b257829003601f168201915b5050505050905090565b60006106e482611337565b506000908152600460205260409020546001600160a01b031690565b600061070b82610d13565b9050806001600160a01b0316836001600160a01b0316141561077e5760405162461bcd60e51b815260206004820152602160248201527f4552433732313a20617070726f76616c20746f2063757272656e74206f776e656044820152603960f91b60648201526084015b60405180910390fd5b336001600160a01b038216148061079a575061079a81336105c8565b61080c5760405162461bcd60e51b815260206004820152603d60248201527f4552433732313a20617070726f76652063616c6c6572206973206e6f7420746f60448201527f6b656e206f776e6572206f7220617070726f76656420666f7220616c6c0000006064820152608401610775565b6108168383611396565b505050565b610823611404565b601255565b610832338261145e565b61084e5760405162461bcd60e51b815260040161077590612541565b6108168383836114dd565b606060006040516020016109e0907f3c73766720786d6c6e733d27687474703a2f2f7777772e77332e6f72672f323081527f30302f737667272076657273696f6e3d27312e3127206865696768743d273131602082015270181813903bb4b23a341e9398989818139f60791b60408201527f3c636972636c652063783d27353030272063793d273530302720723d2731353060518201527f272066696c6c3d276c61776e677265656e27207374726f6b653d2723303031316071820152751919139039ba3937b5b296bbb4b23a341e939913979f60511b60918201527f3c7265637420783d273630302720793d27323530272077696474683d2733353060a78201527f27206865696768743d27323530272066696c6c3d277465616c27202f3e00000060c78201527f3c706f6c79676f6e20706f696e74733d273830302c323030203935302c34303060e48201527f203635302c343030272066696c6c3d276f72616e676527202f3e203c2f737667610104820152601f60f91b6101248201526101250190565b604051602081830303815290604052905060006109fc8261164e565b905080604051602001610a0f919061258e565b6040516020818303038152906040529250505090565b6000610a3083610d92565b8210610a925760405162461bcd60e51b815260206004820152602b60248201527f455243373231456e756d657261626c653a206f776e657220696e646578206f7560448201526a74206f6620626f756e647360a81b6064820152608401610775565b506001600160a01b03919091166000908152600660209081526040808320938352929052205490565b600082815260106020526040902054821415610b195760405162461bcd60e51b815260206004820152601960248201527f466c6967687420616c72656164792072656769737465726564000000000000006044820152606401610775565b604080516060810190915282815260208101600281526001600160a01b03831660209182015260008481526010825260409020825181559082015160018083018054909160ff1990911690836004811115610b7657610b766125d3565b0217905550604091820151600191820180546001600160a01b0390921661010002610100600160a81b0319909216919091179055600f805491820181556000527f8d1108e10bcb7c27dddfc02ed9d693a074039d026cf4ea4240b40f7d581ac80201839055518281527f95c861c95c60378d96c8e5f74bed2f87e222f096e0a7ff8736bc6e48b9bc13f69060200160405180910390a1610c2f6040518060600160405280602781526020016128d56027913983836117b6565b5050565b6108168383836040518060200160405280600081525061112a565b42601355610c2f610ea4565b6000610c6560085490565b8210610cc85760405162461bcd60e51b815260206004820152602c60248201527f455243373231456e756d657261626c653a20676c6f62616c20696e646578206f60448201526b7574206f6620626f756e647360a01b6064820152608401610775565b60088281548110610cdb57610cdb6125e9565b90600052602060002001549050919050565b6000816001600160a01b0316610d0284610d13565b6001600160a01b0316149392505050565b6000818152600260205260408120546001600160a01b0316806106415760405162461bcd60e51b8152602060048201526018602482015277115490cdcc8c4e881a5b9d985b1a59081d1bdad95b88125160421b6044820152606401610775565b6000606060125460135442610d889190612615565b1191509250929050565b60006001600160a01b038216610dfc5760405162461bcd60e51b815260206004820152602960248201527f4552433732313a2061646472657373207a65726f206973206e6f7420612076616044820152683634b21037bbb732b960b91b6064820152608401610775565b506001600160a01b031660009081526003602052604090205490565b610e20611404565b610e2a60006117fd565b565b610e34611404565b600082815260106020526040902060019081018054839260ff1990911690836004811115610e6457610e646125d3565b02179055507f862e93a44de3578a10562508e4206814b11d4c3a4992c83b481c6100d07bc1b581604051610e98919061262c565b60405180910390a15050565b610eac611404565b60005b600f54811015611064576000600f8281548110610ece57610ece6125e9565b6000918252602082200154915060008281526010602052604090206001015460ff166004811115610f0157610f016125d3565b1415611051576000610f12600d5490565b6000818152600260205260409020549091506001600160a01b031615610f715760405162461bcd60e51b8152602060048201526014602482015273546f6b656e20616c72656164792065786973747360601b6044820152606401610775565b60008281526010602052604090206001015461010090046001600160a01b0316610f9b818361184f565b610fa9600d80546001019055565b610fb282611162565b5060008281526011602090815260409182902080546001600160a01b0319166001600160a01b0385161790558151606081019092526029808352610fff929161286c9083013983836117b6565b6040516001600160a01b03821681527f2b6f69d559abc93b78b0d468740be7b8aa9bcb6a39fda6376e946cb01aed809f9060200160405180910390a1611045828261116c565b61104e81611869565b50505b508061105c81612654565b915050610eaf565b50565b60606001805461065690612506565b610c2f3383836119be565b6000818152601160205260408120546001600160a01b0316156111045760405162461bcd60e51b815260206004820152603560248201527f497420776173206e6f7420706f737369626c6520746f206765742072657761726044820152743239903837b4b73a3990313c903130b233b2a4b21760591b6064820152608401610775565b5060009081526011602052604090206001015490565b6000611125600d5490565b905090565b611134338361145e565b6111505760405162461bcd60e51b815260040161077590612541565b61115c84848484611a8d565b50505050565b6060610641610859565b6111768282610ced565b6111d95760405162461bcd60e51b815260206004820152602e60248201527f596f752063616e206f6e6c792061737369676e20706f696e747320746f20796f60448201526d3ab91037bbb7103a37b5b2b7399760911b6064820152608401610775565b600082815260116020526040812060010180546103e892906111fc90849061266f565b925050819055506103e8600e6000828254611217919061266f565b9091555050604080518381526001600160a01b03831660208201526103e88183015290517fd7c236824feb9d39b4a052e9fbdb4ca22c53d1a04ee99be03514e3c408ad18189181900360600190a1610c2f6040518060600160405280602b8152602001612841602b91396000848152601160205260409020600101546103e890611ac0565b6112a4611404565b6001600160a01b0381166113095760405162461bcd60e51b815260206004820152602660248201527f4f776e61626c653a206e6577206f776e657220697320746865207a65726f206160448201526564647265737360d01b6064820152608401610775565b611064816117fd565b60006001600160e01b0319821663780e9d6360e01b1480610641575061064182611b07565b6000818152600260205260409020546001600160a01b03166110645760405162461bcd60e51b8152602060048201526018602482015277115490cdcc8c4e881a5b9d985b1a59081d1bdad95b88125160421b6044820152606401610775565b600081815260046020526040902080546001600160a01b0319166001600160a01b03841690811790915581906113cb82610d13565b6001600160a01b03167f8c5be1e5ebec7d5bd14f71427d1e84f3dd0314c0f7b2291e5b200ac8c7c3b92560405160405180910390a45050565b600b546001600160a01b03163314610e2a5760405162461bcd60e51b815260206004820181905260248201527f4f776e61626c653a2063616c6c6572206973206e6f7420746865206f776e65726044820152606401610775565b60008061146a83610d13565b9050806001600160a01b0316846001600160a01b031614806114b157506001600160a01b0380821660009081526005602090815260408083209388168352929052205460ff165b806114d55750836001600160a01b03166114ca846106d9565b6001600160a01b0316145b949350505050565b826001600160a01b03166114f082610d13565b6001600160a01b0316146115165760405162461bcd60e51b815260040161077590612687565b6001600160a01b0382166115785760405162461bcd60e51b8152602060048201526024808201527f4552433732313a207472616e7366657220746f20746865207a65726f206164646044820152637265737360e01b6064820152608401610775565b6115858383836001611b57565b826001600160a01b031661159882610d13565b6001600160a01b0316146115be5760405162461bcd60e51b815260040161077590612687565b600081815260046020908152604080832080546001600160a01b03199081169091556001600160a01b0387811680865260038552838620805460001901905590871680865283862080546001019055868652600290945282852080549092168417909155905184937fddf252ad1be2c89b69c2b068fc378daa952ba7f163c4a11628f55a4df523b3ef91a4505050565b606081516000141561166e57505060408051602081019091526000815290565b6000604051806060016040528060408152602001612895604091399050600060038451600261169d919061266f565b6116a791906126cc565b6116b29060046126ee565b905060006116c182602061266f565b67ffffffffffffffff8111156116d9576116d96123ea565b6040519080825280601f01601f191660200182016040528015611703576020820181803683370190505b509050818152600183018586518101602084015b818310156117715760039283018051603f601282901c811687015160f890811b8552600c83901c8216880151811b6001860152600683901c8216880151811b60028601529116860151901b93820193909352600401611717565b60038951066001811461178b576002811461179c576117a8565b613d3d60f01b6001198301526117a8565b603d60f81b6000198301525b509398975050505050505050565b6108168383836040516024016117ce9392919061270d565b60408051601f198184030181529190526020810180516001600160e01b031663038fd88960e31b179052611bba565b600b80546001600160a01b038381166001600160a01b0319831681179093556040519116919082907f8be0079c531659141344cd1fd0a4f28419497f9722a3daafe3b4186f6b6457e090600090a35050565b610c2f828260405180602001604052806000815250611bdb565b611871611404565b600c546103e8906001600160a01b03166370a08231611898600b546001600160a01b031690565b6040516001600160e01b031960e084901b1681526001600160a01b03909116600482015260240160206040518083038186803b1580156118d757600080fd5b505afa1580156118eb573d6000803e3d6000fd5b505050506040513d601f19601f8201168201806040525081019061190f9190612740565b10156119545760405162461bcd60e51b8152602060048201526014602482015273496e73756666696369656e742062616c616e636560601b6044820152606401610775565b600c5460405163413918c960e11b81526001600160a01b0383811660048301526103e8602483015290911690638272319290604401600060405180830381600087803b1580156119a357600080fd5b505af11580156119b7573d6000803e3d6000fd5b5050505050565b816001600160a01b0316836001600160a01b03161415611a205760405162461bcd60e51b815260206004820152601960248201527f4552433732313a20617070726f766520746f2063616c6c6572000000000000006044820152606401610775565b6001600160a01b03838116600081815260056020908152604080832094871680845294825291829020805460ff191686151590811790915591519182527f17307eab39ab6107e8899845ad3d59bd9653f200f220920489ca2b5937696c31910160405180910390a3505050565b611a988484846114dd565b611aa484848484611c0e565b61115c5760405162461bcd60e51b815260040161077590612759565b610816838383604051602401611ad8939291906127ab565b60408051601f198184030181529190526020810180516001600160e01b031663ca47c4eb60e01b179052611bba565b60006001600160e01b031982166380ac58cd60e01b1480611b3857506001600160e01b03198216635b5e139f60e01b145b8061064157506301ffc9a760e01b6001600160e01b0319831614610641565b6001600160a01b03841615611bae5760405162461bcd60e51b815260206004820152601860248201527f426164676520746f6b656e20697320736f756c626f756e6400000000000000006044820152606401610775565b61115c84848484611d1b565b80516a636f6e736f6c652e6c6f67602083016000808483855afa5050505050565b611be58383611e48565b611bf26000848484611c0e565b6108165760405162461bcd60e51b815260040161077590612759565b60006001600160a01b0384163b15611d1057604051630a85bd0160e11b81526001600160a01b0385169063150b7a0290611c529033908990889088906004016127d0565b602060405180830381600087803b158015611c6c57600080fd5b505af1925050508015611c9c575060408051601f3d908101601f19168201909252611c999181019061280d565b60015b611cf6573d808015611cca576040519150601f19603f3d011682016040523d82523d6000602084013e611ccf565b606091505b508051611cee5760405162461bcd60e51b815260040161077590612759565b805181602001fd5b6001600160e01b031916630a85bd0160e11b1490506114d5565b506001949350505050565b6001811115611d8a5760405162461bcd60e51b815260206004820152603560248201527f455243373231456e756d657261626c653a20636f6e7365637574697665207472604482015274185b9cd9995c9cc81b9bdd081cdd5c1c1bdc9d1959605a1b6064820152608401610775565b816001600160a01b038516611de657611de181600880546000838152600960205260408120829055600182018355919091527ff3f7a9fe364faab93b216da50a3214154f22a0a2b415b23a84c8169e8b636ee30155565b611e09565b836001600160a01b0316856001600160a01b031614611e0957611e098582611fe1565b6001600160a01b038416611e2557611e208161207e565b6119b7565b846001600160a01b0316846001600160a01b0316146119b7576119b7848261212d565b6001600160a01b038216611e9e5760405162461bcd60e51b815260206004820181905260248201527f4552433732313a206d696e7420746f20746865207a65726f20616464726573736044820152606401610775565b6000818152600260205260409020546001600160a01b031615611f035760405162461bcd60e51b815260206004820152601c60248201527f4552433732313a20746f6b656e20616c7265616479206d696e746564000000006044820152606401610775565b611f11600083836001611b57565b6000818152600260205260409020546001600160a01b031615611f765760405162461bcd60e51b815260206004820152601c60248201527f4552433732313a20746f6b656e20616c7265616479206d696e746564000000006044820152606401610775565b6001600160a01b038216600081815260036020908152604080832080546001019055848352600290915280822080546001600160a01b0319168417905551839291907fddf252ad1be2c89b69c2b068fc378daa952ba7f163c4a11628f55a4df523b3ef908290a45050565b60006001611fee84610d92565b611ff89190612615565b60008381526007602052604090205490915080821461204b576001600160a01b03841660009081526006602090815260408083208584528252808320548484528184208190558352600790915290208190555b5060009182526007602090815260408084208490556001600160a01b039094168352600681528383209183525290812055565b60085460009061209090600190612615565b600083815260096020526040812054600880549394509092849081106120b8576120b86125e9565b9060005260206000200154905080600883815481106120d9576120d96125e9565b60009182526020808320909101929092558281526009909152604080822084905585825281205560088054806121115761211161282a565b6001900381819060005260206000200160009055905550505050565b600061213883610d92565b6001600160a01b039093166000908152600660209081526040808320868452825280832085905593825260079052919091209190915550565b6001600160e01b03198116811461106457600080fd5b60006020828403121561219957600080fd5b81356121a481612171565b9392505050565b60005b838110156121c65781810151838201526020016121ae565b8381111561115c5750506000910152565b600081518084526121ef8160208601602086016121ab565b601f01601f19169290920160200192915050565b6020815260006121a460208301846121d7565b60006020828403121561222857600080fd5b5035919050565b80356001600160a01b038116811461224657600080fd5b919050565b6000806040838503121561225e57600080fd5b6122678361222f565b946020939093013593505050565b60008060006060848603121561228a57600080fd5b6122938461222f565b92506122a16020850161222f565b9150604084013590509250925092565b600080604083850312156122c457600080fd5b823591506122d46020840161222f565b90509250929050565b600080602083850312156122f057600080fd5b823567ffffffffffffffff8082111561230857600080fd5b818501915085601f83011261231c57600080fd5b81358181111561232b57600080fd5b86602082850101111561233d57600080fd5b60209290920196919550909350505050565b82151581526040602082015260006114d560408301846121d7565b60006020828403121561237c57600080fd5b6121a48261222f565b6000806040838503121561239857600080fd5b823591506020830135600581106123ae57600080fd5b809150509250929050565b600080604083850312156123cc57600080fd5b6123d58361222f565b9150602083013580151581146123ae57600080fd5b634e487b7160e01b600052604160045260246000fd5b6000806000806080858703121561241657600080fd5b61241f8561222f565b935061242d6020860161222f565b925060408501359150606085013567ffffffffffffffff8082111561245157600080fd5b818701915087601f83011261246557600080fd5b813581811115612477576124776123ea565b604051601f8201601f19908116603f0116810190838211818310171561249f5761249f6123ea565b816040528281528a60208487010111156124b857600080fd5b82602086016020830137600060208483010152809550505050505092959194509250565b600080604083850312156124ef57600080fd5b6124f88361222f565b91506122d46020840161222f565b600181811c9082168061251a57607f821691505b6020821081141561253b57634e487b7160e01b600052602260045260246000fd5b50919050565b6020808252602d908201527f4552433732313a2063616c6c6572206973206e6f7420746f6b656e206f776e6560408201526c1c881bdc88185c1c1c9bdd9959609a1b606082015260800190565b7f646174613a696d6167652f7376672b786d6c3b6261736536342c0000000000008152600082516125c681601a8501602087016121ab565b91909101601a0192915050565b634e487b7160e01b600052602160045260246000fd5b634e487b7160e01b600052603260045260246000fd5b634e487b7160e01b600052601160045260246000fd5b600082821015612627576126276125ff565b500390565b602081016005831061264e57634e487b7160e01b600052602160045260246000fd5b91905290565b6000600019821415612668576126686125ff565b5060010190565b60008219821115612682576126826125ff565b500190565b60208082526025908201527f4552433732313a207472616e736665722066726f6d20696e636f72726563742060408201526437bbb732b960d91b606082015260800190565b6000826126e957634e487b7160e01b600052601260045260246000fd5b500490565b6000816000190483118215151615612708576127086125ff565b500290565b60608152600061272060608301866121d7565b6020830194909452506001600160a01b0391909116604090910152919050565b60006020828403121561275257600080fd5b5051919050565b60208082526032908201527f4552433732313a207472616e7366657220746f206e6f6e20455243373231526560408201527131b2b4bb32b91034b6b83632b6b2b73a32b960711b606082015260800190565b6060815260006127be60608301866121d7565b60208301949094525060400152919050565b6001600160a01b0385811682528416602082015260408101839052608060608201819052600090612803908301846121d7565b9695505050505050565b60006020828403121561281f57600080fd5b81516121a481612171565b634e487b7160e01b600052603160045260246000fdfe506f696e74732061737369676e6564203d202573207c20746f74616c20616d6f756e74206f66203d20257342616467652067656e657261746564206964203d20257320746f2070617373656e676572203d2025734142434445464748494a4b4c4d4e4f505152535455565758595a6162636465666768696a6b6c6d6e6f707172737475767778797a303132333435363738392b2f416464696e6720666c69676874206964203d20257320746f207061782061646472657373202573a2646970667358221220e9ec44206396f9aa32551679a40540072988e5c6305feff99018b6ed2e26c7d364736f6c63430008090033",
  "linkReferences": {},
  "deployedLinkReferences": {}
}