{
  "_format": "hh-sol-artifact-1",
  "contractName": "NomadBadge",
  "sourceName": "contracts/NomadBadge.sol",
  "abi": [
    {
      "inputs": [
        {
          "internalType": "address",
          "name": "erc20Address",
          "type": "address"
        }
      ],
      "stateMutability": "nonpayable",
      "type": "constructor"
    },
    {
      "anonymous": false,
      "inputs": [
        {
          "indexed": true,
          "internalType": "address",
          "name": "owner",
          "type": "address"
        },
        {
          "indexed": true,
          "internalType": "address",
          "name": "approved",
          "type": "address"
        },
        {
          "indexed": true,
          "internalType": "uint256",
          "name": "tokenId",
          "type": "uint256"
        }
      ],
      "name": "Approval",
      "type": "event"
    },
    {
      "anonymous": false,
      "inputs": [
        {
          "indexed": true,
          "internalType": "address",
          "name": "owner",
          "type": "address"
        },
        {
          "indexed": true,
          "internalType": "address",
          "name": "operator",
          "type": "address"
        },
        {
          "indexed": false,
          "internalType": "bool",
          "name": "approved",
          "type": "bool"
        }
      ],
      "name": "ApprovalForAll",
      "type": "event"
    },
    {
      "anonymous": false,
      "inputs": [
        {
          "indexed": false,
          "internalType": "uint256",
          "name": "_flightId",
          "type": "uint256"
        }
      ],
      "name": "FlightAdded",
      "type": "event"
    },
    {
      "anonymous": false,
      "inputs": [
        {
          "indexed": true,
          "internalType": "address",
          "name": "previousOwner",
          "type": "address"
        },
        {
          "indexed": true,
          "internalType": "address",
          "name": "newOwner",
          "type": "address"
        }
      ],
      "name": "OwnershipTransferred",
      "type": "event"
    },
    {
      "anonymous": false,
      "inputs": [
        {
          "indexed": false,
          "internalType": "uint256",
          "name": "badgeId",
          "type": "uint256"
        },
        {
          "indexed": false,
          "internalType": "address",
          "name": "to",
          "type": "address"
        },
        {
          "indexed": false,
          "internalType": "uint256",
          "name": "points",
          "type": "uint256"
        }
      ],
      "name": "RewardsPointsAssigned",
      "type": "event"
    },
    {
      "anonymous": false,
      "inputs": [
        {
          "indexed": false,
          "internalType": "address",
          "name": "to",
          "type": "address"
        }
      ],
      "name": "RewardsProvided",
      "type": "event"
    },
    {
      "anonymous": false,
      "inputs": [
        {
          "indexed": true,
          "internalType": "address",
          "name": "from",
          "type": "address"
        },
        {
          "indexed": true,
          "internalType": "address",
          "name": "to",
          "type": "address"
        },
        {
          "indexed": true,
          "internalType": "uint256",
          "name": "tokenId",
          "type": "uint256"
        }
      ],
      "name": "Transfer",
      "type": "event"
    },
    {
      "inputs": [],
      "name": "DEFAULT_REWARD_POINTS",
      "outputs": [
        {
          "internalType": "uint256",
          "name": "",
          "type": "uint256"
        }
      ],
      "stateMutability": "view",
      "type": "function"
    },
    {
      "inputs": [
        {
          "internalType": "uint256",
          "name": "flightId",
          "type": "uint256"
        },
        {
          "internalType": "address",
          "name": "passenger",
          "type": "address"
        }
      ],
      "name": "addFlight",
      "outputs": [],
      "stateMutability": "payable",
      "type": "function"
    },
    {
      "inputs": [
        {
          "internalType": "address",
          "name": "to",
          "type": "address"
        },
        {
          "internalType": "uint256",
          "name": "tokenId",
          "type": "uint256"
        }
      ],
      "name": "approve",
      "outputs": [],
      "stateMutability": "nonpayable",
      "type": "function"
    },
    {
      "inputs": [
        {
          "internalType": "uint256",
          "name": "badgeId",
          "type": "uint256"
        },
        {
          "internalType": "address",
          "name": "passenger",
          "type": "address"
        }
      ],
      "name": "assignPoints",
      "outputs": [],
      "stateMutability": "nonpayable",
      "type": "function"
    },
    {
      "inputs": [
        {
          "internalType": "address",
          "name": "owner",
          "type": "address"
        }
      ],
      "name": "balanceOf",
      "outputs": [
        {
          "internalType": "uint256",
          "name": "",
          "type": "uint256"
        }
      ],
      "stateMutability": "view",
      "type": "function"
    },
    {
      "inputs": [
        {
          "internalType": "uint256",
          "name": "badgeId",
          "type": "uint256"
        }
      ],
      "name": "constructTokenURI",
      "outputs": [
        {
          "internalType": "string",
          "name": "",
          "type": "string"
        }
      ],
      "stateMutability": "view",
      "type": "function"
    },
    {
      "inputs": [
        {
          "internalType": "uint256",
          "name": "tokenId",
          "type": "uint256"
        }
      ],
      "name": "getApproved",
      "outputs": [
        {
          "internalType": "address",
          "name": "",
          "type": "address"
        }
      ],
      "stateMutability": "view",
      "type": "function"
    },
    {
      "inputs": [
        {
          "internalType": "uint256",
          "name": "badgeId",
          "type": "uint256"
        }
      ],
      "name": "getPoints",
      "outputs": [
        {
          "internalType": "uint256",
          "name": "",
          "type": "uint256"
        }
      ],
      "stateMutability": "view",
      "type": "function"
    },
    {
      "inputs": [],
      "name": "getTotalBadgesMinted",
      "outputs": [
        {
          "internalType": "uint256",
          "name": "",
          "type": "uint256"
        }
      ],
      "stateMutability": "view",
      "type": "function"
    },
    {
      "inputs": [],
      "name": "getTotalPointsDistributed",
      "outputs": [
        {
          "internalType": "uint256",
          "name": "",
          "type": "uint256"
        }
      ],
      "stateMutability": "view",
      "type": "function"
    },
    {
      "inputs": [
        {
          "internalType": "address",
          "name": "owner",
          "type": "address"
        },
        {
          "internalType": "address",
          "name": "operator",
          "type": "address"
        }
      ],
      "name": "isApprovedForAll",
      "outputs": [
        {
          "internalType": "bool",
          "name": "",
          "type": "bool"
        }
      ],
      "stateMutability": "view",
      "type": "function"
    },
    {
      "inputs": [
        {
          "internalType": "uint256",
          "name": "badgeId",
          "type": "uint256"
        },
        {
          "internalType": "address",
          "name": "owner",
          "type": "address"
        }
      ],
      "name": "isOwner",
      "outputs": [
        {
          "internalType": "bool",
          "name": "",
          "type": "bool"
        }
      ],
      "stateMutability": "view",
      "type": "function"
    },
    {
      "inputs": [],
      "name": "name",
      "outputs": [
        {
          "internalType": "string",
          "name": "",
          "type": "string"
        }
      ],
      "stateMutability": "view",
      "type": "function"
    },
    {
      "inputs": [],
      "name": "owner",
      "outputs": [
        {
          "internalType": "address",
          "name": "",
          "type": "address"
        }
      ],
      "stateMutability": "view",
      "type": "function"
    },
    {
      "inputs": [
        {
          "internalType": "uint256",
          "name": "tokenId",
          "type": "uint256"
        }
      ],
      "name": "ownerOf",
      "outputs": [
        {
          "internalType": "address",
          "name": "",
          "type": "address"
        }
      ],
      "stateMutability": "view",
      "type": "function"
    },
    {
      "inputs": [],
      "name": "renounceOwnership",
      "outputs": [],
      "stateMutability": "nonpayable",
      "type": "function"
    },
    {
      "inputs": [
        {
          "internalType": "address",
          "name": "passenger",
          "type": "address"
        }
      ],
      "name": "runRewardProcess",
      "outputs": [],
      "stateMutability": "nonpayable",
      "type": "function"
    },
    {
      "inputs": [
        {
          "internalType": "address",
          "name": "from",
          "type": "address"
        },
        {
          "internalType": "address",
          "name": "to",
          "type": "address"
        },
        {
          "internalType": "uint256",
          "name": "tokenId",
          "type": "uint256"
        }
      ],
      "name": "safeTransferFrom",
      "outputs": [],
      "stateMutability": "nonpayable",
      "type": "function"
    },
    {
      "inputs": [
        {
          "internalType": "address",
          "name": "from",
          "type": "address"
        },
        {
          "internalType": "address",
          "name": "to",
          "type": "address"
        },
        {
          "internalType": "uint256",
          "name": "tokenId",
          "type": "uint256"
        },
        {
          "internalType": "bytes",
          "name": "data",
          "type": "bytes"
        }
      ],
      "name": "safeTransferFrom",
      "outputs": [],
      "stateMutability": "nonpayable",
      "type": "function"
    },
    {
      "inputs": [
        {
          "internalType": "address",
          "name": "operator",
          "type": "address"
        },
        {
          "internalType": "bool",
          "name": "approved",
          "type": "bool"
        }
      ],
      "name": "setApprovalForAll",
      "outputs": [],
      "stateMutability": "nonpayable",
      "type": "function"
    },
    {
      "inputs": [
        {
          "internalType": "bytes4",
          "name": "interfaceId",
          "type": "bytes4"
        }
      ],
      "name": "supportsInterface",
      "outputs": [
        {
          "internalType": "bool",
          "name": "",
          "type": "bool"
        }
      ],
      "stateMutability": "view",
      "type": "function"
    },
    {
      "inputs": [],
      "name": "symbol",
      "outputs": [
        {
          "internalType": "string",
          "name": "",
          "type": "string"
        }
      ],
      "stateMutability": "view",
      "type": "function"
    },
    {
      "inputs": [
        {
          "internalType": "uint256",
          "name": "index",
          "type": "uint256"
        }
      ],
      "name": "tokenByIndex",
      "outputs": [
        {
          "internalType": "uint256",
          "name": "",
          "type": "uint256"
        }
      ],
      "stateMutability": "view",
      "type": "function"
    },
    {
      "inputs": [
        {
          "internalType": "address",
          "name": "owner",
          "type": "address"
        },
        {
          "internalType": "uint256",
          "name": "index",
          "type": "uint256"
        }
      ],
      "name": "tokenOfOwnerByIndex",
      "outputs": [
        {
          "internalType": "uint256",
          "name": "",
          "type": "uint256"
        }
      ],
      "stateMutability": "view",
      "type": "function"
    },
    {
      "inputs": [
        {
          "internalType": "uint256",
          "name": "badgeId",
          "type": "uint256"
        }
      ],
      "name": "tokenURI",
      "outputs": [
        {
          "internalType": "string",
          "name": "",
          "type": "string"
        }
      ],
      "stateMutability": "view",
      "type": "function"
    },
    {
      "inputs": [],
      "name": "totalSupply",
      "outputs": [
        {
          "internalType": "uint256",
          "name": "",
          "type": "uint256"
        }
      ],
      "stateMutability": "view",
      "type": "function"
    },
    {
      "inputs": [
        {
          "internalType": "address",
          "name": "to",
          "type": "address"
        }
      ],
      "name": "transferERC20",
      "outputs": [],
      "stateMutability": "nonpayable",
      "type": "function"
    },
    {
      "inputs": [
        {
          "internalType": "address",
          "name": "from",
          "type": "address"
        },
        {
          "internalType": "address",
          "name": "to",
          "type": "address"
        },
        {
          "internalType": "uint256",
          "name": "tokenId",
          "type": "uint256"
        }
      ],
      "name": "transferFrom",
      "outputs": [],
      "stateMutability": "nonpayable",
      "type": "function"
    },
    {
      "inputs": [
        {
          "internalType": "address",
          "name": "newOwner",
          "type": "address"
        }
      ],
      "name": "transferOwnership",
      "outputs": [],
      "stateMutability": "nonpayable",
      "type": "function"
    }
  ],
  "bytecode": "0x60806040526000600e553480156200001657600080fd5b506040516200301b3803806200301b8339810160408190526200003991620001db565b604080518082018252600a8152694e6f6d6164426164676560b01b6020808301918252835180850190945260038452624e424760e81b908401528151919291620000869160009162000135565b5080516200009c90600190602084019062000135565b505050620000b9620000b3620000df60201b60201c565b620000e3565b600c80546001600160a01b0319166001600160a01b03929092169190911790556200024a565b3390565b600b80546001600160a01b038381166001600160a01b0319831681179093556040519116919082907f8be0079c531659141344cd1fd0a4f28419497f9722a3daafe3b4186f6b6457e090600090a35050565b82805462000143906200020d565b90600052602060002090601f016020900481019282620001675760008555620001b2565b82601f106200018257805160ff1916838001178555620001b2565b82800160010185558215620001b2579182015b82811115620001b257825182559160200191906001019062000195565b50620001c0929150620001c4565b5090565b5b80821115620001c05760008155600101620001c5565b600060208284031215620001ee57600080fd5b81516001600160a01b03811681146200020657600080fd5b9392505050565b600181811c908216806200022257607f821691505b602082108114156200024457634e487b7160e01b600052602260045260246000fd5b50919050565b612dc1806200025a6000396000f3fe6080604052600436106101c25760003560e01c806370a08231116100f7578063a967eee411610095578063d1d6b73911610064578063d1d6b739146104d2578063e985e9c5146104f2578063eb6039c61461053b578063f2fde38b1461055b57600080fd5b8063a967eee41461045d578063b10b22f41461047d578063b88d4fde14610492578063c87b56dd146104b257600080fd5b80638da5cb5b116100d15780638da5cb5b146103f457806395d89b411461041257806396fb21ce14610427578063a22cb4651461043d57600080fd5b806370a082311461039f578063715018a6146103bf578063894b4c2e146103d457600080fd5b80632f745c59116101645780634da3792f1161013e5780634da3792f1461031f5780634f6ccce71461033f5780635a5d096c1461035f5780636352211e1461037f57600080fd5b80632f745c59146102cc5780633f408da2146102ec57806342842e0e146102ff57600080fd5b8063095ea7b3116101a0578063095ea7b31461025657806318160ddd1461027857806323b872dd1461029757806328a6f29d146102b757600080fd5b806301ffc9a7146101c757806306fdde03146101fc578063081812fc1461021e575b600080fd5b3480156101d357600080fd5b506101e76101e2366004612365565b61057b565b60405190151581526020015b60405180910390f35b34801561020857600080fd5b5061021161058c565b6040516101f391906123e1565b34801561022a57600080fd5b5061023e6102393660046123f4565b61061e565b6040516001600160a01b0390911681526020016101f3565b34801561026257600080fd5b50610276610271366004612429565b610645565b005b34801561028457600080fd5b506008545b6040519081526020016101f3565b3480156102a357600080fd5b506102766102b2366004612453565b610760565b3480156102c357600080fd5b50600e54610289565b3480156102d857600080fd5b506102896102e7366004612429565b610791565b6102766102fa36600461248f565b610827565b34801561030b57600080fd5b5061027661031a366004612453565b61090b565b34801561032b57600080fd5b5061027661033a3660046124bb565b610926565b34801561034b57600080fd5b5061028961035a3660046123f4565b610a55565b34801561036b57600080fd5b506101e761037a36600461248f565b610ae8565b34801561038b57600080fd5b5061023e61039a3660046123f4565b610b0e565b3480156103ab57600080fd5b506102896103ba3660046124bb565b610b6e565b3480156103cb57600080fd5b50610276610bf4565b3480156103e057600080fd5b506102116103ef3660046123f4565b610c08565b34801561040057600080fd5b50600b546001600160a01b031661023e565b34801561041e57600080fd5b50610211610c71565b34801561043357600080fd5b506102896103e881565b34801561044957600080fd5b506102766104583660046124e4565b610c80565b34801561046957600080fd5b506102896104783660046123f4565b610c8b565b34801561048957600080fd5b50610289610d24565b34801561049e57600080fd5b506102766104ad366004612531565b610d34565b3480156104be57600080fd5b506102116104cd3660046123f4565b610d6c565b3480156104de57600080fd5b506102766104ed3660046124bb565b610d77565b3480156104fe57600080fd5b506101e761050d36600461260d565b6001600160a01b03918216600090815260056020908152604080832093909416825291909152205460ff1690565b34801561054757600080fd5b5061027661055636600461248f565b6110f6565b34801561056757600080fd5b506102766105763660046124bb565b611226565b60006105868261129f565b92915050565b60606000805461059b90612637565b80601f01602080910402602001604051908101604052809291908181526020018280546105c790612637565b80156106145780601f106105e957610100808354040283529160200191610614565b820191906000526020600020905b8154815290600101906020018083116105f757829003601f168201915b5050505050905090565b6000610629826112c4565b506000908152600460205260409020546001600160a01b031690565b600061065082610b0e565b9050806001600160a01b0316836001600160a01b031614156106c35760405162461bcd60e51b815260206004820152602160248201527f4552433732313a20617070726f76616c20746f2063757272656e74206f776e656044820152603960f91b60648201526084015b60405180910390fd5b336001600160a01b03821614806106df57506106df813361050d565b6107515760405162461bcd60e51b815260206004820152603d60248201527f4552433732313a20617070726f76652063616c6c6572206973206e6f7420746f60448201527f6b656e206f776e6572206f7220617070726f76656420666f7220616c6c00000060648201526084016106ba565b61075b8383611323565b505050565b61076a3382611391565b6107865760405162461bcd60e51b81526004016106ba90612672565b61075b838383611410565b600061079c83610b6e565b82106107fe5760405162461bcd60e51b815260206004820152602b60248201527f455243373231456e756d657261626c653a206f776e657220696e646578206f7560448201526a74206f6620626f756e647360a81b60648201526084016106ba565b506001600160a01b03919091166000908152600660209081526040808320938352929052205490565b6001600160a01b0381166000908152600f602052604090205482141561088f5760405162461bcd60e51b815260206004820152601960248201527f466c6967687420616c726561647920726567697374657265640000000000000060448201526064016106ba565b6001600160a01b0381166000908152600f602052604090819020839055517f95c861c95c60378d96c8e5f74bed2f87e222f096e0a7ff8736bc6e48b9bc13f6906108dc9084815260200190565b60405180910390a1610907604051806060016040528060268152602001612cd2602691398383611581565b5050565b61075b83838360405180602001604052806000815250610d34565b61092e6115c8565b6000610939600d5490565b6000818152600260205260409020549091506001600160a01b0316156109985760405162461bcd60e51b8152602060048201526014602482015273546f6b656e20616c72656164792065786973747360601b60448201526064016106ba565b6109a28282611622565b6109b0600d80546001019055565b6109b981610d6c565b5060008181526010602090815260409182902080546001600160a01b0319166001600160a01b0386161790558151606081019092526029808352610a069291612d23908301398284611581565b6040516001600160a01b03831681527f2b6f69d559abc93b78b0d468740be7b8aa9bcb6a39fda6376e946cb01aed809f9060200160405180910390a1610a4c81836110f6565b61090782610d77565b6000610a6060085490565b8210610ac35760405162461bcd60e51b815260206004820152602c60248201527f455243373231456e756d657261626c653a20676c6f62616c20696e646578206f60448201526b7574206f6620626f756e647360a01b60648201526084016106ba565b60088281548110610ad657610ad66126bf565b90600052602060002001549050919050565b6000816001600160a01b0316610afd84610b0e565b6001600160a01b0316149392505050565b6000818152600260205260408120546001600160a01b0316806105865760405162461bcd60e51b8152602060048201526018602482015277115490cdcc8c4e881a5b9d985b1a59081d1bdad95b88125160421b60448201526064016106ba565b60006001600160a01b038216610bd85760405162461bcd60e51b815260206004820152602960248201527f4552433732313a2061646472657373207a65726f206973206e6f7420612076616044820152683634b21037bbb732b960b91b60648201526084016106ba565b506001600160a01b031660009081526003602052604090205490565b610bfc6115c8565b610c06600061163c565b565b60606000610c158361168e565b9050610c3b60405180604001604052806002815260200161257360f01b8152508261182e565b6000610c4682611873565b905080604051602001610c5991906126d5565b60405160208183030381529060405292505050919050565b60606001805461059b90612637565b6109073383836119db565b6000818152601060205260408120546001600160a01b031615610d0e5760405162461bcd60e51b815260206004820152603560248201527f497420776173206e6f7420706f737369626c6520746f206765742072657761726044820152743239903837b4b73a3990313c903130b233b2a4b21760591b60648201526084016106ba565b5060009081526010602052604090206001015490565b6000610d2f600d5490565b905090565b610d3e3383611391565b610d5a5760405162461bcd60e51b81526004016106ba90612672565b610d6684848484611aaa565b50505050565b606061058682610c08565b600c546103e8906001600160a01b03166370a08231610d9e600b546001600160a01b031690565b6040516001600160e01b031960e084901b1681526001600160a01b03909116600482015260240160206040518083038186803b158015610ddd57600080fd5b505afa158015610df1573d6000803e3d6000fd5b505050506040513d601f19601f82011682018060405250810190610e15919061271a565b1015610e5a5760405162461bcd60e51b8152602060048201526014602482015273496e73756666696369656e742062616c616e636560601b60448201526064016106ba565b6040805180820190915260128152714f776e65722062616c616e6365203d20257360701b6020820152600c54610f2791906001600160a01b03166370a08231610eab600b546001600160a01b031690565b6040516001600160e01b031960e084901b1681526001600160a01b03909116600482015260240160206040518083038186803b158015610eea57600080fd5b505afa158015610efe573d6000803e3d6000fd5b505050506040513d601f19601f82011682018060405250810190610f22919061271a565b611add565b600c546001600160a01b031663dd62ed3e610f4a600b546001600160a01b031690565b6040516001600160e01b031960e084901b1681526001600160a01b039182166004820152908416602482015260440160206040518083038186803b158015610f9157600080fd5b505afa158015610fa5573d6000803e3d6000fd5b505050506040513d601f19601f82011682018060405250810190610fc9919061271a565b50600c546001600160a01b031663095ea7b3610fed600b546001600160a01b031690565b6040516001600160e01b031960e084901b1681526001600160a01b0390911660048201526103e86024820152604401602060405180830381600087803b15801561103657600080fd5b505af115801561104a573d6000803e3d6000fd5b505050506040513d601f19601f8201168201806040525081019061106e9190612733565b50600c5460405163a9059cbb60e01b81526001600160a01b0383811660048301526103e860248301529091169063a9059cbb90604401602060405180830381600087803b1580156110be57600080fd5b505af11580156110d2573d6000803e3d6000fd5b505050506040513d601f19601f820116820180604052508101906109079190612733565b6111008282610ae8565b6111635760405162461bcd60e51b815260206004820152602e60248201527f596f752063616e206f6e6c792061737369676e20706f696e747320746f20796f60448201526d3ab91037bbb7103a37b5b2b7399760911b60648201526084016106ba565b600082815260106020526040812060010180546103e89290611186908490612766565b925050819055506103e8600e60008282546111a19190612766565b9091555050604080518381526001600160a01b03831660208201526103e88183015290517fd7c236824feb9d39b4a052e9fbdb4ca22c53d1a04ee99be03514e3c408ad18189181900360600190a16109076040518060600160405280602b8152602001612cf8602b91396000848152601060205260409020600101546103e890611b22565b61122e6115c8565b6001600160a01b0381166112935760405162461bcd60e51b815260206004820152602660248201527f4f776e61626c653a206e6577206f776e657220697320746865207a65726f206160448201526564647265737360d01b60648201526084016106ba565b61129c8161163c565b50565b60006001600160e01b0319821663780e9d6360e01b1480610586575061058682611b69565b6000818152600260205260409020546001600160a01b031661129c5760405162461bcd60e51b8152602060048201526018602482015277115490cdcc8c4e881a5b9d985b1a59081d1bdad95b88125160421b60448201526064016106ba565b600081815260046020526040902080546001600160a01b0319166001600160a01b038416908117909155819061135882610b0e565b6001600160a01b03167f8c5be1e5ebec7d5bd14f71427d1e84f3dd0314c0f7b2291e5b200ac8c7c3b92560405160405180910390a45050565b60008061139d83610b0e565b9050806001600160a01b0316846001600160a01b031614806113e457506001600160a01b0380821660009081526005602090815260408083209388168352929052205460ff165b806114085750836001600160a01b03166113fd8461061e565b6001600160a01b0316145b949350505050565b826001600160a01b031661142382610b0e565b6001600160a01b0316146114495760405162461bcd60e51b81526004016106ba9061277e565b6001600160a01b0382166114ab5760405162461bcd60e51b8152602060048201526024808201527f4552433732313a207472616e7366657220746f20746865207a65726f206164646044820152637265737360e01b60648201526084016106ba565b6114b88383836001611bb9565b826001600160a01b03166114cb82610b0e565b6001600160a01b0316146114f15760405162461bcd60e51b81526004016106ba9061277e565b600081815260046020908152604080832080546001600160a01b03199081169091556001600160a01b0387811680865260038552838620805460001901905590871680865283862080546001019055868652600290945282852080549092168417909155905184937fddf252ad1be2c89b69c2b068fc378daa952ba7f163c4a11628f55a4df523b3ef91a4505050565b61075b838383604051602401611599939291906127c3565b60408051601f198184030181529190526020810180516001600160e01b031663038fd88960e31b179052611c1c565b600b546001600160a01b03163314610c065760405162461bcd60e51b815260206004820181905260248201527f4f776e61626c653a2063616c6c6572206973206e6f7420746865206f776e657260448201526064016106ba565b610907828260405180602001604052806000815250611c3d565b600b80546001600160a01b038381166001600160a01b0319831681179093556040519116919082907f8be0079c531659141344cd1fd0a4f28419497f9722a3daafe3b4186f6b6457e090600090a35050565b606060ea600061169f600a8561280c565b90506000604051806080016040528060528152602001612c8060529139905060006116de6116cf84610398612820565b6116d9908661280c565b611c70565b6116f76116ed856103fc612820565b6116d9908761280c565b61170f6117058660a0612820565b6116d9908861280c565b60405160200161172193929190612837565b60408051601f19818403018152919052905060006117446116ed85610320612820565b61175361170586610384612820565b61176c61176287610190612820565b6116d9908961280c565b61178561177b88610190612820565b6116d9908a61280c565b60405160200161179894939291906128fe565b60408051601f19818403018152919052905060006117bb6117058661038e612820565b6117ca611762876103f2612820565b6117d861177b886096612820565b6040516020016117ea939291906129eb565b6040516020818303038152906040529050838383836040516020016118129493929190612aad565b6040516020818303038152906040529650505050505050919050565b6109078282604051602401611844929190612b15565b60408051601f198184030181529190526020810180516001600160e01b0316634b5c427760e01b179052611c1c565b606081516000141561189357505060408051602081019091526000815290565b6000604051806060016040528060408152602001612d4c60409139905060006003845160026118c29190612766565b6118cc9190612b43565b6118d7906004612b57565b905060006118e6826020612766565b67ffffffffffffffff8111156118fe576118fe61251b565b6040519080825280601f01601f191660200182016040528015611928576020820181803683370190505b509050818152600183018586518101602084015b818310156119965760039283018051603f601282901c811687015160f890811b8552600c83901c8216880151811b6001860152600683901c8216880151811b60028601529116860151901b9382019390935260040161193c565b6003895106600181146119b057600281146119c1576119cd565b613d3d60f01b6001198301526119cd565b603d60f81b6000198301525b509398975050505050505050565b816001600160a01b0316836001600160a01b03161415611a3d5760405162461bcd60e51b815260206004820152601960248201527f4552433732313a20617070726f766520746f2063616c6c65720000000000000060448201526064016106ba565b6001600160a01b03838116600081815260056020908152604080832094871680845294825291829020805460ff191686151590811790915591519182527f17307eab39ab6107e8899845ad3d59bd9653f200f220920489ca2b5937696c31910160405180910390a3505050565b611ab5848484611410565b611ac184848484611d0d565b610d665760405162461bcd60e51b81526004016106ba90612b76565b6109078282604051602401611af3929190612bc8565b60408051601f198184030181529190526020810180516001600160e01b0316632d839cb360e21b179052611c1c565b61075b838383604051602401611b3a93929190612bea565b60408051601f198184030181529190526020810180516001600160e01b031663ca47c4eb60e01b179052611c1c565b60006001600160e01b031982166380ac58cd60e01b1480611b9a57506001600160e01b03198216635b5e139f60e01b145b8061058657506301ffc9a760e01b6001600160e01b0319831614610586565b6001600160a01b03841615611c105760405162461bcd60e51b815260206004820152601860248201527f426164676520746f6b656e20697320736f756c626f756e64000000000000000060448201526064016106ba565b610d6684848484611e1a565b80516a636f6e736f6c652e6c6f67602083016000808483855afa5050505050565b611c478383611f4e565b611c546000848484611d0d565b61075b5760405162461bcd60e51b81526004016106ba90612b76565b60606000611c7d836120e7565b600101905060008167ffffffffffffffff811115611c9d57611c9d61251b565b6040519080825280601f01601f191660200182016040528015611cc7576020820181803683370190505b5090508181016020015b600019016f181899199a1a9b1b9c1cb0b131b232b360811b600a86061a8153600a8504945084611d0057611d05565b611cd1565b509392505050565b60006001600160a01b0384163b15611e0f57604051630a85bd0160e11b81526001600160a01b0385169063150b7a0290611d51903390899088908890600401612c0f565b602060405180830381600087803b158015611d6b57600080fd5b505af1925050508015611d9b575060408051601f3d908101601f19168201909252611d9891810190612c4c565b60015b611df5573d808015611dc9576040519150601f19603f3d011682016040523d82523d6000602084013e611dce565b606091505b508051611ded5760405162461bcd60e51b81526004016106ba90612b76565b805181602001fd5b6001600160e01b031916630a85bd0160e11b149050611408565b506001949350505050565b6001811115611e895760405162461bcd60e51b815260206004820152603560248201527f455243373231456e756d657261626c653a20636f6e7365637574697665207472604482015274185b9cd9995c9cc81b9bdd081cdd5c1c1bdc9d1959605a1b60648201526084016106ba565b816001600160a01b038516611ee557611ee081600880546000838152600960205260408120829055600182018355919091527ff3f7a9fe364faab93b216da50a3214154f22a0a2b415b23a84c8169e8b636ee30155565b611f08565b836001600160a01b0316856001600160a01b031614611f0857611f0885826121bf565b6001600160a01b038416611f2457611f1f8161225c565b611f47565b846001600160a01b0316846001600160a01b031614611f4757611f47848261230b565b5050505050565b6001600160a01b038216611fa45760405162461bcd60e51b815260206004820181905260248201527f4552433732313a206d696e7420746f20746865207a65726f206164647265737360448201526064016106ba565b6000818152600260205260409020546001600160a01b0316156120095760405162461bcd60e51b815260206004820152601c60248201527f4552433732313a20746f6b656e20616c7265616479206d696e7465640000000060448201526064016106ba565b612017600083836001611bb9565b6000818152600260205260409020546001600160a01b03161561207c5760405162461bcd60e51b815260206004820152601c60248201527f4552433732313a20746f6b656e20616c7265616479206d696e7465640000000060448201526064016106ba565b6001600160a01b038216600081815260036020908152604080832080546001019055848352600290915280822080546001600160a01b0319168417905551839291907fddf252ad1be2c89b69c2b068fc378daa952ba7f163c4a11628f55a4df523b3ef908290a45050565b60008072184f03e93ff9f4daa797ed6e38ed64bf6a1f0160401b83106121265772184f03e93ff9f4daa797ed6e38ed64bf6a1f0160401b830492506040015b6d04ee2d6d415b85acef81000000008310612152576d04ee2d6d415b85acef8100000000830492506020015b662386f26fc10000831061217057662386f26fc10000830492506010015b6305f5e1008310612188576305f5e100830492506008015b612710831061219c57612710830492506004015b606483106121ae576064830492506002015b600a83106105865760010192915050565b600060016121cc84610b6e565b6121d69190612820565b600083815260076020526040902054909150808214612229576001600160a01b03841660009081526006602090815260408083208584528252808320548484528184208190558352600790915290208190555b5060009182526007602090815260408084208490556001600160a01b039094168352600681528383209183525290812055565b60085460009061226e90600190612820565b60008381526009602052604081205460088054939450909284908110612296576122966126bf565b9060005260206000200154905080600883815481106122b7576122b76126bf565b60009182526020808320909101929092558281526009909152604080822084905585825281205560088054806122ef576122ef612c69565b6001900381819060005260206000200160009055905550505050565b600061231683610b6e565b6001600160a01b039093166000908152600660209081526040808320868452825280832085905593825260079052919091209190915550565b6001600160e01b03198116811461129c57600080fd5b60006020828403121561237757600080fd5b81356123828161234f565b9392505050565b60005b838110156123a457818101518382015260200161238c565b83811115610d665750506000910152565b600081518084526123cd816020860160208601612389565b601f01601f19169290920160200192915050565b60208152600061238260208301846123b5565b60006020828403121561240657600080fd5b5035919050565b80356001600160a01b038116811461242457600080fd5b919050565b6000806040838503121561243c57600080fd5b6124458361240d565b946020939093013593505050565b60008060006060848603121561246857600080fd5b6124718461240d565b925061247f6020850161240d565b9150604084013590509250925092565b600080604083850312156124a257600080fd5b823591506124b26020840161240d565b90509250929050565b6000602082840312156124cd57600080fd5b6123828261240d565b801515811461129c57600080fd5b600080604083850312156124f757600080fd5b6125008361240d565b91506020830135612510816124d6565b809150509250929050565b634e487b7160e01b600052604160045260246000fd5b6000806000806080858703121561254757600080fd5b6125508561240d565b935061255e6020860161240d565b925060408501359150606085013567ffffffffffffffff8082111561258257600080fd5b818701915087601f83011261259657600080fd5b8135818111156125a8576125a861251b565b604051601f8201601f19908116603f011681019083821181831017156125d0576125d061251b565b816040528281528a60208487010111156125e957600080fd5b82602086016020830137600060208483010152809550505050505092959194509250565b6000806040838503121561262057600080fd5b6126298361240d565b91506124b26020840161240d565b600181811c9082168061264b57607f821691505b6020821081141561266c57634e487b7160e01b600052602260045260246000fd5b50919050565b6020808252602d908201527f4552433732313a2063616c6c6572206973206e6f7420746f6b656e206f776e6560408201526c1c881bdc88185c1c1c9bdd9959609a1b606082015260800190565b634e487b7160e01b600052603260045260246000fd5b7f646174613a696d6167652f7376672b786d6c3b6261736536342c00000000000081526000825161270d81601a850160208701612389565b91909101601a0192915050565b60006020828403121561272c57600080fd5b5051919050565b60006020828403121561274557600080fd5b8151612382816124d6565b634e487b7160e01b600052601160045260246000fd5b6000821982111561277957612779612750565b500190565b60208082526025908201527f4552433732313a207472616e736665722066726f6d20696e636f72726563742060408201526437bbb732b960d91b606082015260800190565b6060815260006127d660608301866123b5565b6020830194909452506001600160a01b0391909116604090910152919050565b634e487b7160e01b600052601260045260246000fd5b60008261281b5761281b6127f6565b500690565b60008282101561283257612832612750565b500390565b6b3c636972636c652063783d2760a01b81526000845161285e81600c850160208901612389565b65272063793d2760d01b600c918401918201528451612884816012840160208901612389565b642720723d2760d81b6012929091019182015283516128aa816017840160208801612389565b7f27207374726f6b653d27626c61636b27207374726f6b652d77696474683d2733601792909101918201527313903334b6361e93b630bbb733b932b2b713979f60611b6037820152604b0195945050505050565b683c7265637420783d2760b81b815260008551612922816009850160208a01612389565b642720793d2760d81b600991840191820152855161294781600e840160208a01612389565b68272077696474683d2760b81b600e92909101918201528451612971816017840160208901612389565b6927206865696768743d2760b01b60179290910191820152835161299c816021840160208801612389565b7f27207374726f6b653d27626c61636b27207374726f6b652d77696474683d2731602192909101918201526d13903334b6361e93b932b213979f60911b6041820152604f019695505050505050565b6b3c636972636c652063783d2760a01b815260008451612a1281600c850160208901612389565b65272063793d2760d01b600c918401918201528451612a38816012840160208901612389565b642720723d2760d81b601292909101918201528351612a5e816017840160208801612389565b7f27207374726f6b653d27626c61636b27207374726f6b652d77696474683d2732601792909101918201526e13903334b6361e93ba32b0b613979f60891b603782015260460195945050505050565b60008551612abf818460208a01612389565b855190830190612ad3818360208a01612389565b8551910190612ae6818360208901612389565b8451910190612af9818360208801612389565b651e17b9bb339f60d11b91019081526006019695505050505050565b604081526000612b2860408301856123b5565b8281036020840152612b3a81856123b5565b95945050505050565b600082612b5257612b526127f6565b500490565b6000816000190483118215151615612b7157612b71612750565b500290565b60208082526032908201527f4552433732313a207472616e7366657220746f206e6f6e20455243373231526560408201527131b2b4bb32b91034b6b83632b6b2b73a32b960711b606082015260800190565b604081526000612bdb60408301856123b5565b90508260208301529392505050565b606081526000612bfd60608301866123b5565b60208301949094525060400152919050565b6001600160a01b0385811682528416602082015260408101839052608060608201819052600090612c42908301846123b5565b9695505050505050565b600060208284031215612c5e57600080fd5b81516123828161234f565b634e487b7160e01b600052603160045260246000fdfe3c737667206865696768743d2731313030272077696474683d27313130302720786d6c6e733d27687474703a2f2f7777772e77332e6f72672f323030302f737667272076657273696f6e3d27312e31273e20416464696e6720666c6967687420696420203d20257320746f2061646472657373203d202573506f696e74732061737369676e6564203d202573207c20746f74616c20616d6f756e74206f66203d20257342616467652067656e657261746564206964203d20257320746f2070617373656e676572203d2025734142434445464748494a4b4c4d4e4f505152535455565758595a6162636465666768696a6b6c6d6e6f707172737475767778797a303132333435363738392b2fa26469706673582212209b74e013dee24cf046ad2fcd80f38c8158da61b32889b8208e30612df06f34f664736f6c63430008090033",
  "linkReferences": {},
  "deployedLinkReferences": {}
}