{
  "_format": "hh-sol-artifact-1",
  "contractName": "NomadBadge",
  "sourceName": "contracts/NomadBadge.sol",
  "abi": [
    {
      "inputs": [
        {
          "internalType": "address",
          "name": "erc20Address",
          "type": "address"
        }
      ],
      "stateMutability": "nonpayable",
      "type": "constructor"
    },
    {
      "anonymous": false,
      "inputs": [
        {
          "indexed": true,
          "internalType": "address",
          "name": "owner",
          "type": "address"
        },
        {
          "indexed": true,
          "internalType": "address",
          "name": "approved",
          "type": "address"
        },
        {
          "indexed": true,
          "internalType": "uint256",
          "name": "tokenId",
          "type": "uint256"
        }
      ],
      "name": "Approval",
      "type": "event"
    },
    {
      "anonymous": false,
      "inputs": [
        {
          "indexed": true,
          "internalType": "address",
          "name": "owner",
          "type": "address"
        },
        {
          "indexed": true,
          "internalType": "address",
          "name": "operator",
          "type": "address"
        },
        {
          "indexed": false,
          "internalType": "bool",
          "name": "approved",
          "type": "bool"
        }
      ],
      "name": "ApprovalForAll",
      "type": "event"
    },
    {
      "anonymous": false,
      "inputs": [
        {
          "indexed": false,
          "internalType": "uint256",
          "name": "flightId",
          "type": "uint256"
        }
      ],
      "name": "FlightAdded",
      "type": "event"
    },
    {
      "anonymous": false,
      "inputs": [
        {
          "indexed": false,
          "internalType": "enum NomadBadge.FlightRewardStatus",
          "name": "status",
          "type": "uint8"
        }
      ],
      "name": "FlightStatusUpdated",
      "type": "event"
    },
    {
      "anonymous": false,
      "inputs": [
        {
          "indexed": true,
          "internalType": "address",
          "name": "previousOwner",
          "type": "address"
        },
        {
          "indexed": true,
          "internalType": "address",
          "name": "newOwner",
          "type": "address"
        }
      ],
      "name": "OwnershipTransferred",
      "type": "event"
    },
    {
      "anonymous": false,
      "inputs": [
        {
          "indexed": false,
          "internalType": "uint256",
          "name": "badgeId",
          "type": "uint256"
        },
        {
          "indexed": false,
          "internalType": "address",
          "name": "to",
          "type": "address"
        },
        {
          "indexed": false,
          "internalType": "uint256",
          "name": "points",
          "type": "uint256"
        }
      ],
      "name": "RewardsPointsAssigned",
      "type": "event"
    },
    {
      "anonymous": false,
      "inputs": [
        {
          "indexed": false,
          "internalType": "address",
          "name": "to",
          "type": "address"
        }
      ],
      "name": "RewardsProvided",
      "type": "event"
    },
    {
      "anonymous": false,
      "inputs": [
        {
          "indexed": true,
          "internalType": "address",
          "name": "from",
          "type": "address"
        },
        {
          "indexed": true,
          "internalType": "address",
          "name": "to",
          "type": "address"
        },
        {
          "indexed": true,
          "internalType": "uint256",
          "name": "tokenId",
          "type": "uint256"
        }
      ],
      "name": "Transfer",
      "type": "event"
    },
    {
      "anonymous": false,
      "inputs": [
        {
          "indexed": false,
          "internalType": "uint256",
          "name": "lastTimeStamp",
          "type": "uint256"
        }
      ],
      "name": "UpkeepPerformed",
      "type": "event"
    },
    {
      "inputs": [],
      "name": "DEFAULT_REWARD_POINTS",
      "outputs": [
        {
          "internalType": "uint256",
          "name": "",
          "type": "uint256"
        }
      ],
      "stateMutability": "view",
      "type": "function"
    },
    {
      "inputs": [
        {
          "internalType": "uint256",
          "name": "flightId",
          "type": "uint256"
        },
        {
          "internalType": "address",
          "name": "passenger",
          "type": "address"
        }
      ],
      "name": "addFlight",
      "outputs": [],
      "stateMutability": "payable",
      "type": "function"
    },
    {
      "inputs": [
        {
          "internalType": "address",
          "name": "to",
          "type": "address"
        },
        {
          "internalType": "uint256",
          "name": "tokenId",
          "type": "uint256"
        }
      ],
      "name": "approve",
      "outputs": [],
      "stateMutability": "nonpayable",
      "type": "function"
    },
    {
      "inputs": [
        {
          "internalType": "uint256",
          "name": "badgeId",
          "type": "uint256"
        },
        {
          "internalType": "address",
          "name": "passenger",
          "type": "address"
        }
      ],
      "name": "assignPoints",
      "outputs": [],
      "stateMutability": "nonpayable",
      "type": "function"
    },
    {
      "inputs": [
        {
          "internalType": "address",
          "name": "owner",
          "type": "address"
        }
      ],
      "name": "balanceOf",
      "outputs": [
        {
          "internalType": "uint256",
          "name": "",
          "type": "uint256"
        }
      ],
      "stateMutability": "view",
      "type": "function"
    },
    {
      "inputs": [
        {
          "internalType": "bytes",
          "name": "",
          "type": "bytes"
        }
      ],
      "name": "checkUpkeep",
      "outputs": [
        {
          "internalType": "bool",
          "name": "upkeepNeeded",
          "type": "bool"
        },
        {
          "internalType": "bytes",
          "name": "",
          "type": "bytes"
        }
      ],
      "stateMutability": "view",
      "type": "function"
    },
    {
      "inputs": [],
      "name": "constructTokenURI",
      "outputs": [
        {
          "internalType": "string",
          "name": "",
          "type": "string"
        }
      ],
      "stateMutability": "pure",
      "type": "function"
    },
    {
      "inputs": [
        {
          "internalType": "uint256",
          "name": "tokenId",
          "type": "uint256"
        }
      ],
      "name": "getApproved",
      "outputs": [
        {
          "internalType": "address",
          "name": "",
          "type": "address"
        }
      ],
      "stateMutability": "view",
      "type": "function"
    },
    {
      "inputs": [
        {
          "internalType": "uint256",
          "name": "badgeId",
          "type": "uint256"
        }
      ],
      "name": "getPoints",
      "outputs": [
        {
          "internalType": "uint256",
          "name": "",
          "type": "uint256"
        }
      ],
      "stateMutability": "view",
      "type": "function"
    },
    {
      "inputs": [],
      "name": "getTotalBadgesMinted",
      "outputs": [
        {
          "internalType": "uint256",
          "name": "",
          "type": "uint256"
        }
      ],
      "stateMutability": "view",
      "type": "function"
    },
    {
      "inputs": [],
      "name": "getTotalPointsDistributed",
      "outputs": [
        {
          "internalType": "uint256",
          "name": "",
          "type": "uint256"
        }
      ],
      "stateMutability": "view",
      "type": "function"
    },
    {
      "inputs": [
        {
          "internalType": "address",
          "name": "owner",
          "type": "address"
        },
        {
          "internalType": "address",
          "name": "operator",
          "type": "address"
        }
      ],
      "name": "isApprovedForAll",
      "outputs": [
        {
          "internalType": "bool",
          "name": "",
          "type": "bool"
        }
      ],
      "stateMutability": "view",
      "type": "function"
    },
    {
      "inputs": [
        {
          "internalType": "uint256",
          "name": "badgeId",
          "type": "uint256"
        },
        {
          "internalType": "address",
          "name": "owner",
          "type": "address"
        }
      ],
      "name": "isOwner",
      "outputs": [
        {
          "internalType": "bool",
          "name": "",
          "type": "bool"
        }
      ],
      "stateMutability": "view",
      "type": "function"
    },
    {
      "inputs": [],
      "name": "lastTimeStamp",
      "outputs": [
        {
          "internalType": "uint256",
          "name": "",
          "type": "uint256"
        }
      ],
      "stateMutability": "view",
      "type": "function"
    },
    {
      "inputs": [],
      "name": "name",
      "outputs": [
        {
          "internalType": "string",
          "name": "",
          "type": "string"
        }
      ],
      "stateMutability": "view",
      "type": "function"
    },
    {
      "inputs": [],
      "name": "owner",
      "outputs": [
        {
          "internalType": "address",
          "name": "",
          "type": "address"
        }
      ],
      "stateMutability": "view",
      "type": "function"
    },
    {
      "inputs": [
        {
          "internalType": "uint256",
          "name": "tokenId",
          "type": "uint256"
        }
      ],
      "name": "ownerOf",
      "outputs": [
        {
          "internalType": "address",
          "name": "",
          "type": "address"
        }
      ],
      "stateMutability": "view",
      "type": "function"
    },
    {
      "inputs": [
        {
          "internalType": "bytes",
          "name": "",
          "type": "bytes"
        }
      ],
      "name": "performUpkeep",
      "outputs": [],
      "stateMutability": "nonpayable",
      "type": "function"
    },
    {
      "inputs": [],
      "name": "renounceOwnership",
      "outputs": [],
      "stateMutability": "nonpayable",
      "type": "function"
    },
    {
      "inputs": [],
      "name": "runRewardProcess",
      "outputs": [],
      "stateMutability": "nonpayable",
      "type": "function"
    },
    {
      "inputs": [
        {
          "internalType": "address",
          "name": "from",
          "type": "address"
        },
        {
          "internalType": "address",
          "name": "to",
          "type": "address"
        },
        {
          "internalType": "uint256",
          "name": "tokenId",
          "type": "uint256"
        }
      ],
      "name": "safeTransferFrom",
      "outputs": [],
      "stateMutability": "nonpayable",
      "type": "function"
    },
    {
      "inputs": [
        {
          "internalType": "address",
          "name": "from",
          "type": "address"
        },
        {
          "internalType": "address",
          "name": "to",
          "type": "address"
        },
        {
          "internalType": "uint256",
          "name": "tokenId",
          "type": "uint256"
        },
        {
          "internalType": "bytes",
          "name": "data",
          "type": "bytes"
        }
      ],
      "name": "safeTransferFrom",
      "outputs": [],
      "stateMutability": "nonpayable",
      "type": "function"
    },
    {
      "inputs": [
        {
          "internalType": "address",
          "name": "operator",
          "type": "address"
        },
        {
          "internalType": "bool",
          "name": "approved",
          "type": "bool"
        }
      ],
      "name": "setApprovalForAll",
      "outputs": [],
      "stateMutability": "nonpayable",
      "type": "function"
    },
    {
      "inputs": [
        {
          "internalType": "uint256",
          "name": "_updateTimer",
          "type": "uint256"
        }
      ],
      "name": "setUpdateTimer",
      "outputs": [],
      "stateMutability": "nonpayable",
      "type": "function"
    },
    {
      "inputs": [
        {
          "internalType": "bytes4",
          "name": "interfaceId",
          "type": "bytes4"
        }
      ],
      "name": "supportsInterface",
      "outputs": [
        {
          "internalType": "bool",
          "name": "",
          "type": "bool"
        }
      ],
      "stateMutability": "view",
      "type": "function"
    },
    {
      "inputs": [],
      "name": "symbol",
      "outputs": [
        {
          "internalType": "string",
          "name": "",
          "type": "string"
        }
      ],
      "stateMutability": "view",
      "type": "function"
    },
    {
      "inputs": [
        {
          "internalType": "uint256",
          "name": "index",
          "type": "uint256"
        }
      ],
      "name": "tokenByIndex",
      "outputs": [
        {
          "internalType": "uint256",
          "name": "",
          "type": "uint256"
        }
      ],
      "stateMutability": "view",
      "type": "function"
    },
    {
      "inputs": [
        {
          "internalType": "address",
          "name": "owner",
          "type": "address"
        },
        {
          "internalType": "uint256",
          "name": "index",
          "type": "uint256"
        }
      ],
      "name": "tokenOfOwnerByIndex",
      "outputs": [
        {
          "internalType": "uint256",
          "name": "",
          "type": "uint256"
        }
      ],
      "stateMutability": "view",
      "type": "function"
    },
    {
      "inputs": [
        {
          "internalType": "uint256",
          "name": "",
          "type": "uint256"
        }
      ],
      "name": "tokenURI",
      "outputs": [
        {
          "internalType": "string",
          "name": "",
          "type": "string"
        }
      ],
      "stateMutability": "pure",
      "type": "function"
    },
    {
      "inputs": [],
      "name": "totalSupply",
      "outputs": [
        {
          "internalType": "uint256",
          "name": "",
          "type": "uint256"
        }
      ],
      "stateMutability": "view",
      "type": "function"
    },
    {
      "inputs": [
        {
          "internalType": "address",
          "name": "from",
          "type": "address"
        },
        {
          "internalType": "address",
          "name": "to",
          "type": "address"
        },
        {
          "internalType": "uint256",
          "name": "tokenId",
          "type": "uint256"
        }
      ],
      "name": "transferFrom",
      "outputs": [],
      "stateMutability": "nonpayable",
      "type": "function"
    },
    {
      "inputs": [
        {
          "internalType": "address",
          "name": "newOwner",
          "type": "address"
        }
      ],
      "name": "transferOwnership",
      "outputs": [],
      "stateMutability": "nonpayable",
      "type": "function"
    },
    {
      "inputs": [
        {
          "internalType": "uint256",
          "name": "flightId",
          "type": "uint256"
        },
        {
          "internalType": "enum NomadBadge.FlightRewardStatus",
          "name": "status",
          "type": "uint8"
        }
      ],
      "name": "updateFlightStatus",
      "outputs": [],
      "stateMutability": "nonpayable",
      "type": "function"
    },
    {
      "inputs": [],
      "name": "updateTimer",
      "outputs": [
        {
          "internalType": "uint256",
          "name": "",
          "type": "uint256"
        }
      ],
      "stateMutability": "view",
      "type": "function"
    }
  ],
  "bytecode": "0x60a06040526000600d553480156200001657600080fd5b5060405162002c0c38038062002c0c8339810160408190526200003991620001c7565b604080518082018252600a8152694e6f6d6164426164676560b01b6020808301918252835180850190945260038452624e424760e81b908401528151919291620000869160009162000121565b5080516200009c90600190602084019062000121565b505050620000b9620000b3620000cb60201b60201c565b620000cf565b6001600160a01b031660805262000236565b3390565b600b80546001600160a01b038381166001600160a01b0319831681179093556040519116919082907f8be0079c531659141344cd1fd0a4f28419497f9722a3daafe3b4186f6b6457e090600090a35050565b8280546200012f90620001f9565b90600052602060002090601f0160209004810192826200015357600085556200019e565b82601f106200016e57805160ff19168380011785556200019e565b828001600101855582156200019e579182015b828111156200019e57825182559160200191906001019062000181565b50620001ac929150620001b0565b5090565b5b80821115620001ac5760008155600101620001b1565b600060208284031215620001da57600080fd5b81516001600160a01b0381168114620001f257600080fd5b9392505050565b600181811c908216806200020e57607f821691505b602082108114156200023057634e487b7160e01b600052602260045260246000fd5b50919050565b6080516129b362000259600039600081816118bf01526119e101526129b36000f3fe6080604052600436106101f95760003560e01c80636352211e1161010d57806396fb21ce116100a0578063b88d4fde1161006f578063b88d4fde1461056d578063c87b56dd1461058d578063e985e9c5146105ad578063eb6039c6146105f6578063f2fde38b1461061657600080fd5b806396fb21ce14610502578063a22cb46514610518578063a967eee414610538578063b10b22f41461055857600080fd5b80637c89b580116100dc5780637c89b5801461049a5780638da5cb5b146104ba5780639534a371146104d857806395d89b41146104ed57600080fd5b80636352211e146104175780636e04ff0d1461043757806370a0823114610465578063715018a61461048557600080fd5b80632d371508116101905780633f408da21161015f5780633f408da21461038457806342842e0e146103975780634585e33b146103b75780634f6ccce7146103d75780635a5d096c146103f757600080fd5b80632d371508146103235780632f745c591461033857806339277da8146103585780633f3b3b271461036e57600080fd5b806318160ddd116101cc57806318160ddd146102af5780631eb0fc25146102ce57806323b872dd146102ee57806328a6f29d1461030e57600080fd5b806301ffc9a7146101fe57806306fdde0314610233578063081812fc14610255578063095ea7b31461028d575b600080fd5b34801561020a57600080fd5b5061021e610219366004612209565b610636565b60405190151581526020015b60405180910390f35b34801561023f57600080fd5b50610248610647565b60405161022a9190612285565b34801561026157600080fd5b50610275610270366004612298565b6106d9565b6040516001600160a01b03909116815260200161022a565b34801561029957600080fd5b506102ad6102a83660046122cd565b610700565b005b3480156102bb57600080fd5b506008545b60405190815260200161022a565b3480156102da57600080fd5b506102ad6102e9366004612298565b61081b565b3480156102fa57600080fd5b506102ad6103093660046122f7565b610828565b34801561031a57600080fd5b50600d546102c0565b34801561032f57600080fd5b50610248610859565b34801561034457600080fd5b506102c06103533660046122cd565b610a25565b34801561036457600080fd5b506102c060115481565b34801561037a57600080fd5b506102c060125481565b6102ad610392366004612333565b610abb565b3480156103a357600080fd5b506102ad6103b23660046122f7565b610c33565b3480156103c357600080fd5b506102ad6103d236600461235f565b610c4e565b3480156103e357600080fd5b506102c06103f2366004612298565b610caf565b34801561040357600080fd5b5061021e610412366004612333565b610d42565b34801561042357600080fd5b50610275610432366004612298565b610d68565b34801561044357600080fd5b5061045761045236600461235f565b610dc8565b60405161022a9291906123d1565b34801561047157600080fd5b506102c06104803660046123ec565b610de7565b34801561049157600080fd5b506102ad610e6d565b3480156104a657600080fd5b506102ad6104b5366004612407565b610e81565b3480156104c657600080fd5b50600b546001600160a01b0316610275565b3480156104e457600080fd5b506102ad610eed565b3480156104f957600080fd5b506102486110b0565b34801561050e57600080fd5b506102c06103e881565b34801561052457600080fd5b506102ad61053336600461243b565b6110bf565b34801561054457600080fd5b506102c0610553366004612298565b6110ca565b34801561056457600080fd5b506102c0611163565b34801561057957600080fd5b506102ad610588366004612482565b611173565b34801561059957600080fd5b506102486105a8366004612298565b6111ab565b3480156105b957600080fd5b5061021e6105c836600461255e565b6001600160a01b03918216600090815260056020908152604080832093909416825291909152205460ff1690565b34801561060257600080fd5b506102ad610611366004612333565b6111b5565b34801561062257600080fd5b506102ad6106313660046123ec565b6112e5565b60006106418261135b565b92915050565b60606000805461065690612588565b80601f016020809104026020016040519081016040528092919081815260200182805461068290612588565b80156106cf5780601f106106a4576101008083540402835291602001916106cf565b820191906000526020600020905b8154815290600101906020018083116106b257829003601f168201915b5050505050905090565b60006106e482611380565b506000908152600460205260409020546001600160a01b031690565b600061070b82610d68565b9050806001600160a01b0316836001600160a01b0316141561077e5760405162461bcd60e51b815260206004820152602160248201527f4552433732313a20617070726f76616c20746f2063757272656e74206f776e656044820152603960f91b60648201526084015b60405180910390fd5b336001600160a01b038216148061079a575061079a81336105c8565b61080c5760405162461bcd60e51b815260206004820152603d60248201527f4552433732313a20617070726f76652063616c6c6572206973206e6f7420746f60448201527f6b656e206f776e6572206f7220617070726f76656420666f7220616c6c0000006064820152608401610775565b61081683836113df565b505050565b61082361144d565b601155565b61083233826114a7565b61084e5760405162461bcd60e51b8152600401610775906125c3565b610816838383611526565b606060006040516020016109e0907f3c73766720786d6c6e733d27687474703a2f2f7777772e77332e6f72672f323081527f30302f737667272076657273696f6e3d27312e3127206865696768743d273131602082015270181813903bb4b23a341e9398989818139f60791b60408201527f3c636972636c652063783d27353030272063793d273530302720723d2731353060518201527f272066696c6c3d276c61776e677265656e27207374726f6b653d2723303031316071820152751919139039ba3937b5b296bbb4b23a341e939913979f60511b60918201527f3c7265637420783d273630302720793d27323530272077696474683d2733353060a78201527f27206865696768743d27323530272066696c6c3d277465616c27202f3e00000060c78201527f3c706f6c79676f6e20706f696e74733d273830302c323030203935302c34303060e48201527f203635302c343030272066696c6c3d276f72616e676527202f3e203c2f737667610104820152601f60f91b6101248201526101250190565b604051602081830303815290604052905060006109fc82611697565b905080604051602001610a0f9190612610565b6040516020818303038152906040529250505090565b6000610a3083610de7565b8210610a925760405162461bcd60e51b815260206004820152602b60248201527f455243373231456e756d657261626c653a206f776e657220696e646578206f7560448201526a74206f6620626f756e647360a81b6064820152608401610775565b506001600160a01b03919091166000908152600660209081526040808320938352929052205490565b6000828152600f6020526040902054821415610b195760405162461bcd60e51b815260206004820152601960248201527f466c6967687420616c72656164792072656769737465726564000000000000006044820152606401610775565b604080516060810190915282815260208101600281526001600160a01b0383166020918201526000848152600f825260409020825181559082015160018083018054909160ff1990911690836004811115610b7657610b76612655565b0217905550604091820151600191820180546001600160a01b0390921661010002610100600160a81b0319909216919091179055600e805491820181556000527fbb7b4a454dc3493923482f07822329ed19e8244eff582cc204f8554c3620c3fd01839055518281527f95c861c95c60378d96c8e5f74bed2f87e222f096e0a7ff8736bc6e48b9bc13f69060200160405180910390a1610c2f6040518060600160405280602781526020016129576027913983836117ff565b5050565b61081683838360405180602001604052806000815250611173565b601154601254610c5e9042612681565b1115610c705742601255610c70610eed565b7f94af253de69550dc89f661ee40c3f9ca744b642089664d2d8f145f393a37903c601254604051610ca391815260200190565b60405180910390a15050565b6000610cba60085490565b8210610d1d5760405162461bcd60e51b815260206004820152602c60248201527f455243373231456e756d657261626c653a20676c6f62616c20696e646578206f60448201526b7574206f6620626f756e647360a01b6064820152608401610775565b60088281548110610d3057610d30612698565b90600052602060002001549050919050565b6000816001600160a01b0316610d5784610d68565b6001600160a01b0316149392505050565b6000818152600260205260408120546001600160a01b0316806106415760405162461bcd60e51b8152602060048201526018602482015277115490cdcc8c4e881a5b9d985b1a59081d1bdad95b88125160421b6044820152606401610775565b6000606060115460125442610ddd9190612681565b1191509250929050565b60006001600160a01b038216610e515760405162461bcd60e51b815260206004820152602960248201527f4552433732313a2061646472657373207a65726f206973206e6f7420612076616044820152683634b21037bbb732b960b91b6064820152608401610775565b506001600160a01b031660009081526003602052604090205490565b610e7561144d565b610e7f6000611846565b565b610e8961144d565b6000828152600f6020526040902060019081018054839260ff1990911690836004811115610eb957610eb9612655565b02179055507f862e93a44de3578a10562508e4206814b11d4c3a4992c83b481c6100d07bc1b581604051610ca391906126ae565b610ef561144d565b60005b600e548110156110ad576000600e8281548110610f1757610f17612698565b600091825260208220015491506000828152600f602052604090206001015460ff166004811115610f4a57610f4a612655565b141561109a576000610f5b600c5490565b6000818152600260205260409020549091506001600160a01b031615610fba5760405162461bcd60e51b8152602060048201526014602482015273546f6b656e20616c72656164792065786973747360601b6044820152606401610775565b6000828152600f602052604090206001015461010090046001600160a01b0316610fe48183611898565b610ff2600c80546001019055565b610ffb826111ab565b5060008281526010602090815260409182902080546001600160a01b0319166001600160a01b038516179055815160608101909252602980835261104892916128ee9083013983836117ff565b6040516001600160a01b03821681527f2b6f69d559abc93b78b0d468740be7b8aa9bcb6a39fda6376e946cb01aed809f9060200160405180910390a161108e82826111b5565b611097816118b2565b50505b50806110a5816126d6565b915050610ef8565b50565b60606001805461065690612588565b610c2f338383611a40565b6000818152601060205260408120546001600160a01b03161561114d5760405162461bcd60e51b815260206004820152603560248201527f497420776173206e6f7420706f737369626c6520746f206765742072657761726044820152743239903837b4b73a3990313c903130b233b2a4b21760591b6064820152608401610775565b5060009081526010602052604090206001015490565b600061116e600c5490565b905090565b61117d33836114a7565b6111995760405162461bcd60e51b8152600401610775906125c3565b6111a584848484611b0f565b50505050565b6060610641610859565b6111bf8282610d42565b6112225760405162461bcd60e51b815260206004820152602e60248201527f596f752063616e206f6e6c792061737369676e20706f696e747320746f20796f60448201526d3ab91037bbb7103a37b5b2b7399760911b6064820152608401610775565b600082815260106020526040812060010180546103e892906112459084906126f1565b925050819055506103e8600d600082825461126091906126f1565b9091555050604080518381526001600160a01b03831660208201526103e88183015290517fd7c236824feb9d39b4a052e9fbdb4ca22c53d1a04ee99be03514e3c408ad18189181900360600190a1610c2f6040518060600160405280602b81526020016128c3602b91396000848152601060205260409020600101546103e890611b42565b6112ed61144d565b6001600160a01b0381166113525760405162461bcd60e51b815260206004820152602660248201527f4f776e61626c653a206e6577206f776e657220697320746865207a65726f206160448201526564647265737360d01b6064820152608401610775565b6110ad81611846565b60006001600160e01b0319821663780e9d6360e01b1480610641575061064182611b89565b6000818152600260205260409020546001600160a01b03166110ad5760405162461bcd60e51b8152602060048201526018602482015277115490cdcc8c4e881a5b9d985b1a59081d1bdad95b88125160421b6044820152606401610775565b600081815260046020526040902080546001600160a01b0319166001600160a01b038416908117909155819061141482610d68565b6001600160a01b03167f8c5be1e5ebec7d5bd14f71427d1e84f3dd0314c0f7b2291e5b200ac8c7c3b92560405160405180910390a45050565b600b546001600160a01b03163314610e7f5760405162461bcd60e51b815260206004820181905260248201527f4f776e61626c653a2063616c6c6572206973206e6f7420746865206f776e65726044820152606401610775565b6000806114b383610d68565b9050806001600160a01b0316846001600160a01b031614806114fa57506001600160a01b0380821660009081526005602090815260408083209388168352929052205460ff165b8061151e5750836001600160a01b0316611513846106d9565b6001600160a01b0316145b949350505050565b826001600160a01b031661153982610d68565b6001600160a01b03161461155f5760405162461bcd60e51b815260040161077590612709565b6001600160a01b0382166115c15760405162461bcd60e51b8152602060048201526024808201527f4552433732313a207472616e7366657220746f20746865207a65726f206164646044820152637265737360e01b6064820152608401610775565b6115ce8383836001611bd9565b826001600160a01b03166115e182610d68565b6001600160a01b0316146116075760405162461bcd60e51b815260040161077590612709565b600081815260046020908152604080832080546001600160a01b03199081169091556001600160a01b0387811680865260038552838620805460001901905590871680865283862080546001019055868652600290945282852080549092168417909155905184937fddf252ad1be2c89b69c2b068fc378daa952ba7f163c4a11628f55a4df523b3ef91a4505050565b60608151600014156116b757505060408051602081019091526000815290565b600060405180606001604052806040815260200161291760409139905060006003845160026116e691906126f1565b6116f0919061274e565b6116fb906004612770565b9050600061170a8260206126f1565b67ffffffffffffffff8111156117225761172261246c565b6040519080825280601f01601f19166020018201604052801561174c576020820181803683370190505b509050818152600183018586518101602084015b818310156117ba5760039283018051603f601282901c811687015160f890811b8552600c83901c8216880151811b6001860152600683901c8216880151811b60028601529116860151901b93820193909352600401611760565b6003895106600181146117d457600281146117e5576117f1565b613d3d60f01b6001198301526117f1565b603d60f81b6000198301525b509398975050505050505050565b6108168383836040516024016118179392919061278f565b60408051601f198184030181529190526020810180516001600160e01b031663038fd88960e31b179052611c3c565b600b80546001600160a01b038381166001600160a01b0319831681179093556040519116919082907f8be0079c531659141344cd1fd0a4f28419497f9722a3daafe3b4186f6b6457e090600090a35050565b610c2f828260405180602001604052806000815250611c5d565b6118ba61144d565b6103e87f00000000000000000000000000000000000000000000000000000000000000006001600160a01b03166370a082316118fe600b546001600160a01b031690565b6040516001600160e01b031960e084901b1681526001600160a01b03909116600482015260240160206040518083038186803b15801561193d57600080fd5b505afa158015611951573d6000803e3d6000fd5b505050506040513d601f19601f8201168201806040525081019061197591906127c2565b10156119ba5760405162461bcd60e51b8152602060048201526014602482015273496e73756666696369656e742062616c616e636560601b6044820152606401610775565b60405163413918c960e11b81526001600160a01b0382811660048301526103e860248301527f00000000000000000000000000000000000000000000000000000000000000001690638272319290604401600060405180830381600087803b158015611a2557600080fd5b505af1158015611a39573d6000803e3d6000fd5b5050505050565b816001600160a01b0316836001600160a01b03161415611aa25760405162461bcd60e51b815260206004820152601960248201527f4552433732313a20617070726f766520746f2063616c6c6572000000000000006044820152606401610775565b6001600160a01b03838116600081815260056020908152604080832094871680845294825291829020805460ff191686151590811790915591519182527f17307eab39ab6107e8899845ad3d59bd9653f200f220920489ca2b5937696c31910160405180910390a3505050565b611b1a848484611526565b611b2684848484611c90565b6111a55760405162461bcd60e51b8152600401610775906127db565b610816838383604051602401611b5a9392919061282d565b60408051601f198184030181529190526020810180516001600160e01b031663ca47c4eb60e01b179052611c3c565b60006001600160e01b031982166380ac58cd60e01b1480611bba57506001600160e01b03198216635b5e139f60e01b145b8061064157506301ffc9a760e01b6001600160e01b0319831614610641565b6001600160a01b03841615611c305760405162461bcd60e51b815260206004820152601860248201527f426164676520746f6b656e20697320736f756c626f756e6400000000000000006044820152606401610775565b6111a584848484611d9d565b80516a636f6e736f6c652e6c6f67602083016000808483855afa5050505050565b611c678383611eca565b611c746000848484611c90565b6108165760405162461bcd60e51b8152600401610775906127db565b60006001600160a01b0384163b15611d9257604051630a85bd0160e11b81526001600160a01b0385169063150b7a0290611cd4903390899088908890600401612852565b602060405180830381600087803b158015611cee57600080fd5b505af1925050508015611d1e575060408051601f3d908101601f19168201909252611d1b9181019061288f565b60015b611d78573d808015611d4c576040519150601f19603f3d011682016040523d82523d6000602084013e611d51565b606091505b508051611d705760405162461bcd60e51b8152600401610775906127db565b805181602001fd5b6001600160e01b031916630a85bd0160e11b14905061151e565b506001949350505050565b6001811115611e0c5760405162461bcd60e51b815260206004820152603560248201527f455243373231456e756d657261626c653a20636f6e7365637574697665207472604482015274185b9cd9995c9cc81b9bdd081cdd5c1c1bdc9d1959605a1b6064820152608401610775565b816001600160a01b038516611e6857611e6381600880546000838152600960205260408120829055600182018355919091527ff3f7a9fe364faab93b216da50a3214154f22a0a2b415b23a84c8169e8b636ee30155565b611e8b565b836001600160a01b0316856001600160a01b031614611e8b57611e8b8582612063565b6001600160a01b038416611ea757611ea281612100565b611a39565b846001600160a01b0316846001600160a01b031614611a3957611a3984826121af565b6001600160a01b038216611f205760405162461bcd60e51b815260206004820181905260248201527f4552433732313a206d696e7420746f20746865207a65726f20616464726573736044820152606401610775565b6000818152600260205260409020546001600160a01b031615611f855760405162461bcd60e51b815260206004820152601c60248201527f4552433732313a20746f6b656e20616c7265616479206d696e746564000000006044820152606401610775565b611f93600083836001611bd9565b6000818152600260205260409020546001600160a01b031615611ff85760405162461bcd60e51b815260206004820152601c60248201527f4552433732313a20746f6b656e20616c7265616479206d696e746564000000006044820152606401610775565b6001600160a01b038216600081815260036020908152604080832080546001019055848352600290915280822080546001600160a01b0319168417905551839291907fddf252ad1be2c89b69c2b068fc378daa952ba7f163c4a11628f55a4df523b3ef908290a45050565b6000600161207084610de7565b61207a9190612681565b6000838152600760205260409020549091508082146120cd576001600160a01b03841660009081526006602090815260408083208584528252808320548484528184208190558352600790915290208190555b5060009182526007602090815260408084208490556001600160a01b039094168352600681528383209183525290812055565b60085460009061211290600190612681565b6000838152600960205260408120546008805493945090928490811061213a5761213a612698565b90600052602060002001549050806008838154811061215b5761215b612698565b6000918252602080832090910192909255828152600990915260408082208490558582528120556008805480612193576121936128ac565b6001900381819060005260206000200160009055905550505050565b60006121ba83610de7565b6001600160a01b039093166000908152600660209081526040808320868452825280832085905593825260079052919091209190915550565b6001600160e01b0319811681146110ad57600080fd5b60006020828403121561221b57600080fd5b8135612226816121f3565b9392505050565b60005b83811015612248578181015183820152602001612230565b838111156111a55750506000910152565b6000815180845261227181602086016020860161222d565b601f01601f19169290920160200192915050565b6020815260006122266020830184612259565b6000602082840312156122aa57600080fd5b5035919050565b80356001600160a01b03811681146122c857600080fd5b919050565b600080604083850312156122e057600080fd5b6122e9836122b1565b946020939093013593505050565b60008060006060848603121561230c57600080fd5b612315846122b1565b9250612323602085016122b1565b9150604084013590509250925092565b6000806040838503121561234657600080fd5b82359150612356602084016122b1565b90509250929050565b6000806020838503121561237257600080fd5b823567ffffffffffffffff8082111561238a57600080fd5b818501915085601f83011261239e57600080fd5b8135818111156123ad57600080fd5b8660208285010111156123bf57600080fd5b60209290920196919550909350505050565b821515815260406020820152600061151e6040830184612259565b6000602082840312156123fe57600080fd5b612226826122b1565b6000806040838503121561241a57600080fd5b8235915060208301356005811061243057600080fd5b809150509250929050565b6000806040838503121561244e57600080fd5b612457836122b1565b91506020830135801515811461243057600080fd5b634e487b7160e01b600052604160045260246000fd5b6000806000806080858703121561249857600080fd5b6124a1856122b1565b93506124af602086016122b1565b925060408501359150606085013567ffffffffffffffff808211156124d357600080fd5b818701915087601f8301126124e757600080fd5b8135818111156124f9576124f961246c565b604051601f8201601f19908116603f011681019083821181831017156125215761252161246c565b816040528281528a602084870101111561253a57600080fd5b82602086016020830137600060208483010152809550505050505092959194509250565b6000806040838503121561257157600080fd5b61257a836122b1565b9150612356602084016122b1565b600181811c9082168061259c57607f821691505b602082108114156125bd57634e487b7160e01b600052602260045260246000fd5b50919050565b6020808252602d908201527f4552433732313a2063616c6c6572206973206e6f7420746f6b656e206f776e6560408201526c1c881bdc88185c1c1c9bdd9959609a1b606082015260800190565b7f646174613a696d6167652f7376672b786d6c3b6261736536342c00000000000081526000825161264881601a85016020870161222d565b91909101601a0192915050565b634e487b7160e01b600052602160045260246000fd5b634e487b7160e01b600052601160045260246000fd5b6000828210156126935761269361266b565b500390565b634e487b7160e01b600052603260045260246000fd5b60208101600583106126d057634e487b7160e01b600052602160045260246000fd5b91905290565b60006000198214156126ea576126ea61266b565b5060010190565b600082198211156127045761270461266b565b500190565b60208082526025908201527f4552433732313a207472616e736665722066726f6d20696e636f72726563742060408201526437bbb732b960d91b606082015260800190565b60008261276b57634e487b7160e01b600052601260045260246000fd5b500490565b600081600019048311821515161561278a5761278a61266b565b500290565b6060815260006127a26060830186612259565b6020830194909452506001600160a01b0391909116604090910152919050565b6000602082840312156127d457600080fd5b5051919050565b60208082526032908201527f4552433732313a207472616e7366657220746f206e6f6e20455243373231526560408201527131b2b4bb32b91034b6b83632b6b2b73a32b960711b606082015260800190565b6060815260006128406060830186612259565b60208301949094525060400152919050565b6001600160a01b038581168252841660208201526040810183905260806060820181905260009061288590830184612259565b9695505050505050565b6000602082840312156128a157600080fd5b8151612226816121f3565b634e487b7160e01b600052603160045260246000fdfe506f696e74732061737369676e6564203d202573207c20746f74616c20616d6f756e74206f66203d20257342616467652067656e657261746564206964203d20257320746f2070617373656e676572203d2025734142434445464748494a4b4c4d4e4f505152535455565758595a6162636465666768696a6b6c6d6e6f707172737475767778797a303132333435363738392b2f416464696e6720666c69676874206964203d20257320746f207061782061646472657373202573a26469706673582212208d5792f6ed05fef5551ab582cdb8dc055a5cd169a4969756a71b722196871f1964736f6c63430008090033",
  "linkReferences": {},
  "deployedLinkReferences": {}
}