{
  "_format": "hh-sol-artifact-1",
  "contractName": "NomadBadge",
  "sourceName": "contracts/NomadBadge.sol",
  "abi": [
    {
      "inputs": [
        {
          "internalType": "address",
          "name": "erc20Address",
          "type": "address"
        }
      ],
      "stateMutability": "nonpayable",
      "type": "constructor"
    },
    {
      "anonymous": false,
      "inputs": [
        {
          "indexed": true,
          "internalType": "address",
          "name": "owner",
          "type": "address"
        },
        {
          "indexed": true,
          "internalType": "address",
          "name": "approved",
          "type": "address"
        },
        {
          "indexed": true,
          "internalType": "uint256",
          "name": "tokenId",
          "type": "uint256"
        }
      ],
      "name": "Approval",
      "type": "event"
    },
    {
      "anonymous": false,
      "inputs": [
        {
          "indexed": true,
          "internalType": "address",
          "name": "owner",
          "type": "address"
        },
        {
          "indexed": true,
          "internalType": "address",
          "name": "operator",
          "type": "address"
        },
        {
          "indexed": false,
          "internalType": "bool",
          "name": "approved",
          "type": "bool"
        }
      ],
      "name": "ApprovalForAll",
      "type": "event"
    },
    {
      "anonymous": false,
      "inputs": [
        {
          "indexed": false,
          "internalType": "uint256",
          "name": "flightId",
          "type": "uint256"
        }
      ],
      "name": "FlightAdded",
      "type": "event"
    },
    {
      "anonymous": false,
      "inputs": [
        {
          "indexed": false,
          "internalType": "enum NomadBadge.FlightRewardStatus",
          "name": "status",
          "type": "uint8"
        }
      ],
      "name": "FlightStatusUpdated",
      "type": "event"
    },
    {
      "anonymous": false,
      "inputs": [
        {
          "indexed": true,
          "internalType": "address",
          "name": "previousOwner",
          "type": "address"
        },
        {
          "indexed": true,
          "internalType": "address",
          "name": "newOwner",
          "type": "address"
        }
      ],
      "name": "OwnershipTransferred",
      "type": "event"
    },
    {
      "anonymous": false,
      "inputs": [
        {
          "indexed": false,
          "internalType": "uint256",
          "name": "badgeId",
          "type": "uint256"
        },
        {
          "indexed": false,
          "internalType": "address",
          "name": "to",
          "type": "address"
        },
        {
          "indexed": false,
          "internalType": "uint256",
          "name": "points",
          "type": "uint256"
        }
      ],
      "name": "RewardsPointsAssigned",
      "type": "event"
    },
    {
      "anonymous": false,
      "inputs": [
        {
          "indexed": false,
          "internalType": "address",
          "name": "to",
          "type": "address"
        }
      ],
      "name": "RewardsProvided",
      "type": "event"
    },
    {
      "anonymous": false,
      "inputs": [
        {
          "indexed": true,
          "internalType": "address",
          "name": "from",
          "type": "address"
        },
        {
          "indexed": true,
          "internalType": "address",
          "name": "to",
          "type": "address"
        },
        {
          "indexed": true,
          "internalType": "uint256",
          "name": "tokenId",
          "type": "uint256"
        }
      ],
      "name": "Transfer",
      "type": "event"
    },
    {
      "anonymous": false,
      "inputs": [
        {
          "indexed": false,
          "internalType": "uint256",
          "name": "lastTimeStamp",
          "type": "uint256"
        }
      ],
      "name": "UpkeepPerformed",
      "type": "event"
    },
    {
      "inputs": [],
      "name": "DEFAULT_REWARD_POINTS",
      "outputs": [
        {
          "internalType": "uint256",
          "name": "",
          "type": "uint256"
        }
      ],
      "stateMutability": "view",
      "type": "function"
    },
    {
      "inputs": [
        {
          "internalType": "uint256",
          "name": "flightId",
          "type": "uint256"
        },
        {
          "internalType": "address",
          "name": "passenger",
          "type": "address"
        }
      ],
      "name": "addFlight",
      "outputs": [],
      "stateMutability": "payable",
      "type": "function"
    },
    {
      "inputs": [
        {
          "internalType": "address",
          "name": "to",
          "type": "address"
        },
        {
          "internalType": "uint256",
          "name": "tokenId",
          "type": "uint256"
        }
      ],
      "name": "approve",
      "outputs": [],
      "stateMutability": "nonpayable",
      "type": "function"
    },
    {
      "inputs": [
        {
          "internalType": "uint256",
          "name": "badgeId",
          "type": "uint256"
        },
        {
          "internalType": "address",
          "name": "passenger",
          "type": "address"
        }
      ],
      "name": "assignPoints",
      "outputs": [],
      "stateMutability": "nonpayable",
      "type": "function"
    },
    {
      "inputs": [
        {
          "internalType": "address",
          "name": "owner",
          "type": "address"
        }
      ],
      "name": "balanceOf",
      "outputs": [
        {
          "internalType": "uint256",
          "name": "",
          "type": "uint256"
        }
      ],
      "stateMutability": "view",
      "type": "function"
    },
    {
      "inputs": [
        {
          "internalType": "bytes",
          "name": "",
          "type": "bytes"
        }
      ],
      "name": "checkUpkeep",
      "outputs": [
        {
          "internalType": "bool",
          "name": "upkeepNeeded",
          "type": "bool"
        },
        {
          "internalType": "bytes",
          "name": "",
          "type": "bytes"
        }
      ],
      "stateMutability": "view",
      "type": "function"
    },
    {
      "inputs": [],
      "name": "constructTokenURI",
      "outputs": [
        {
          "internalType": "string",
          "name": "",
          "type": "string"
        }
      ],
      "stateMutability": "pure",
      "type": "function"
    },
    {
      "inputs": [
        {
          "internalType": "uint256",
          "name": "tokenId",
          "type": "uint256"
        }
      ],
      "name": "getApproved",
      "outputs": [
        {
          "internalType": "address",
          "name": "",
          "type": "address"
        }
      ],
      "stateMutability": "view",
      "type": "function"
    },
    {
      "inputs": [],
      "name": "getBadgeId",
      "outputs": [
        {
          "internalType": "uint256",
          "name": "",
          "type": "uint256"
        }
      ],
      "stateMutability": "view",
      "type": "function"
    },
    {
      "inputs": [],
      "name": "getPoints",
      "outputs": [
        {
          "internalType": "uint256",
          "name": "",
          "type": "uint256"
        }
      ],
      "stateMutability": "view",
      "type": "function"
    },
    {
      "inputs": [],
      "name": "getTokensRewards",
      "outputs": [
        {
          "internalType": "uint256",
          "name": "",
          "type": "uint256"
        }
      ],
      "stateMutability": "view",
      "type": "function"
    },
    {
      "inputs": [],
      "name": "getTotalBadgesMinted",
      "outputs": [
        {
          "internalType": "uint256",
          "name": "",
          "type": "uint256"
        }
      ],
      "stateMutability": "view",
      "type": "function"
    },
    {
      "inputs": [],
      "name": "getTotalPointsDistributed",
      "outputs": [
        {
          "internalType": "uint256",
          "name": "",
          "type": "uint256"
        }
      ],
      "stateMutability": "view",
      "type": "function"
    },
    {
      "inputs": [
        {
          "internalType": "address",
          "name": "owner",
          "type": "address"
        },
        {
          "internalType": "address",
          "name": "operator",
          "type": "address"
        }
      ],
      "name": "isApprovedForAll",
      "outputs": [
        {
          "internalType": "bool",
          "name": "",
          "type": "bool"
        }
      ],
      "stateMutability": "view",
      "type": "function"
    },
    {
      "inputs": [
        {
          "internalType": "uint256",
          "name": "badgeId",
          "type": "uint256"
        },
        {
          "internalType": "address",
          "name": "owner",
          "type": "address"
        }
      ],
      "name": "isOwner",
      "outputs": [
        {
          "internalType": "bool",
          "name": "",
          "type": "bool"
        }
      ],
      "stateMutability": "view",
      "type": "function"
    },
    {
      "inputs": [],
      "name": "lastTimeStamp",
      "outputs": [
        {
          "internalType": "uint256",
          "name": "",
          "type": "uint256"
        }
      ],
      "stateMutability": "view",
      "type": "function"
    },
    {
      "inputs": [],
      "name": "name",
      "outputs": [
        {
          "internalType": "string",
          "name": "",
          "type": "string"
        }
      ],
      "stateMutability": "view",
      "type": "function"
    },
    {
      "inputs": [],
      "name": "owner",
      "outputs": [
        {
          "internalType": "address",
          "name": "",
          "type": "address"
        }
      ],
      "stateMutability": "view",
      "type": "function"
    },
    {
      "inputs": [
        {
          "internalType": "uint256",
          "name": "tokenId",
          "type": "uint256"
        }
      ],
      "name": "ownerOf",
      "outputs": [
        {
          "internalType": "address",
          "name": "",
          "type": "address"
        }
      ],
      "stateMutability": "view",
      "type": "function"
    },
    {
      "inputs": [
        {
          "internalType": "bytes",
          "name": "",
          "type": "bytes"
        }
      ],
      "name": "performUpkeep",
      "outputs": [],
      "stateMutability": "nonpayable",
      "type": "function"
    },
    {
      "inputs": [],
      "name": "renounceOwnership",
      "outputs": [],
      "stateMutability": "nonpayable",
      "type": "function"
    },
    {
      "inputs": [],
      "name": "runRewardProcess",
      "outputs": [],
      "stateMutability": "nonpayable",
      "type": "function"
    },
    {
      "inputs": [
        {
          "internalType": "address",
          "name": "from",
          "type": "address"
        },
        {
          "internalType": "address",
          "name": "to",
          "type": "address"
        },
        {
          "internalType": "uint256",
          "name": "tokenId",
          "type": "uint256"
        }
      ],
      "name": "safeTransferFrom",
      "outputs": [],
      "stateMutability": "nonpayable",
      "type": "function"
    },
    {
      "inputs": [
        {
          "internalType": "address",
          "name": "from",
          "type": "address"
        },
        {
          "internalType": "address",
          "name": "to",
          "type": "address"
        },
        {
          "internalType": "uint256",
          "name": "tokenId",
          "type": "uint256"
        },
        {
          "internalType": "bytes",
          "name": "data",
          "type": "bytes"
        }
      ],
      "name": "safeTransferFrom",
      "outputs": [],
      "stateMutability": "nonpayable",
      "type": "function"
    },
    {
      "inputs": [
        {
          "internalType": "address",
          "name": "operator",
          "type": "address"
        },
        {
          "internalType": "bool",
          "name": "approved",
          "type": "bool"
        }
      ],
      "name": "setApprovalForAll",
      "outputs": [],
      "stateMutability": "nonpayable",
      "type": "function"
    },
    {
      "inputs": [
        {
          "internalType": "uint256",
          "name": "_updateTimer",
          "type": "uint256"
        }
      ],
      "name": "setUpdateTimer",
      "outputs": [],
      "stateMutability": "nonpayable",
      "type": "function"
    },
    {
      "inputs": [
        {
          "internalType": "bytes4",
          "name": "interfaceId",
          "type": "bytes4"
        }
      ],
      "name": "supportsInterface",
      "outputs": [
        {
          "internalType": "bool",
          "name": "",
          "type": "bool"
        }
      ],
      "stateMutability": "view",
      "type": "function"
    },
    {
      "inputs": [],
      "name": "symbol",
      "outputs": [
        {
          "internalType": "string",
          "name": "",
          "type": "string"
        }
      ],
      "stateMutability": "view",
      "type": "function"
    },
    {
      "inputs": [
        {
          "internalType": "uint256",
          "name": "index",
          "type": "uint256"
        }
      ],
      "name": "tokenByIndex",
      "outputs": [
        {
          "internalType": "uint256",
          "name": "",
          "type": "uint256"
        }
      ],
      "stateMutability": "view",
      "type": "function"
    },
    {
      "inputs": [
        {
          "internalType": "address",
          "name": "owner",
          "type": "address"
        },
        {
          "internalType": "uint256",
          "name": "index",
          "type": "uint256"
        }
      ],
      "name": "tokenOfOwnerByIndex",
      "outputs": [
        {
          "internalType": "uint256",
          "name": "",
          "type": "uint256"
        }
      ],
      "stateMutability": "view",
      "type": "function"
    },
    {
      "inputs": [
        {
          "internalType": "uint256",
          "name": "",
          "type": "uint256"
        }
      ],
      "name": "tokenURI",
      "outputs": [
        {
          "internalType": "string",
          "name": "",
          "type": "string"
        }
      ],
      "stateMutability": "pure",
      "type": "function"
    },
    {
      "inputs": [],
      "name": "totalSupply",
      "outputs": [
        {
          "internalType": "uint256",
          "name": "",
          "type": "uint256"
        }
      ],
      "stateMutability": "view",
      "type": "function"
    },
    {
      "inputs": [
        {
          "internalType": "address",
          "name": "from",
          "type": "address"
        },
        {
          "internalType": "address",
          "name": "to",
          "type": "address"
        },
        {
          "internalType": "uint256",
          "name": "tokenId",
          "type": "uint256"
        }
      ],
      "name": "transferFrom",
      "outputs": [],
      "stateMutability": "nonpayable",
      "type": "function"
    },
    {
      "inputs": [
        {
          "internalType": "address",
          "name": "newOwner",
          "type": "address"
        }
      ],
      "name": "transferOwnership",
      "outputs": [],
      "stateMutability": "nonpayable",
      "type": "function"
    },
    {
      "inputs": [
        {
          "internalType": "uint256",
          "name": "flightId",
          "type": "uint256"
        },
        {
          "internalType": "enum NomadBadge.FlightRewardStatus",
          "name": "status",
          "type": "uint8"
        }
      ],
      "name": "updateFlightStatus",
      "outputs": [],
      "stateMutability": "nonpayable",
      "type": "function"
    },
    {
      "inputs": [],
      "name": "updateTimer",
      "outputs": [
        {
          "internalType": "uint256",
          "name": "",
          "type": "uint256"
        }
      ],
      "stateMutability": "view",
      "type": "function"
    }
  ],
  "bytecode": "0x60a06040526000600d553480156200001657600080fd5b5060405162002dad38038062002dad8339810160408190526200003991620001c7565b604080518082018252600a8152694e6f6d6164426164676560b01b6020808301918252835180850190945260038452624e424760e81b908401528151919291620000869160009162000121565b5080516200009c90600190602084019062000121565b505050620000b9620000b3620000cb60201b60201c565b620000cf565b6001600160a01b031660805262000236565b3390565b600b80546001600160a01b038381166001600160a01b0319831681179093556040519116919082907f8be0079c531659141344cd1fd0a4f28419497f9722a3daafe3b4186f6b6457e090600090a35050565b8280546200012f90620001f9565b90600052602060002090601f0160209004810192826200015357600085556200019e565b82601f106200016e57805160ff19168380011785556200019e565b828001600101855582156200019e579182015b828111156200019e57825182559160200191906001019062000181565b50620001ac929150620001b0565b5090565b5b80821115620001ac5760008155600101620001b1565b600060208284031215620001da57600080fd5b81516001600160a01b0381168114620001f257600080fd5b9392505050565b600181811c908216806200020e57607f821691505b602082108114156200023057634e487b7160e01b600052602260045260246000fd5b50919050565b608051612b4d6200026060003960008181610d8f01528181611a600152611b820152612b4d6000f3fe60806040526004361061020f5760003560e01c80636352211e11610118578063a22cb465116100a0578063e985e9c51161006f578063e985e9c5146105b8578063eb6039c614610601578063f2fde38b14610621578063f4b7095b14610641578063fbf8fd4f1461065657600080fd5b8063a22cb46514610543578063b10b22f414610563578063b88d4fde14610578578063c87b56dd1461059857600080fd5b80637c89b580116100e75780637c89b580146104c55780638da5cb5b146104e55780639534a3711461050357806395d89b411461051857806396fb21ce1461052d57600080fd5b80636352211e146104425780636e04ff0d1461046257806370a0823114610490578063715018a6146104b057600080fd5b80632f745c591161019b57806342842e0e1161016a57806342842e0e146103ad5780634585e33b146103cd5780634f6ccce7146103ed578063512158c21461040d5780635a5d096c1461042257600080fd5b80632f745c591461034e57806339277da81461036e5780633f3b3b27146103845780633f408da21461039a57600080fd5b806318160ddd116101e257806318160ddd146102c55780631eb0fc25146102e457806323b872dd1461030457806328a6f29d146103245780632d3715081461033957600080fd5b806301ffc9a71461021457806306fdde0314610249578063081812fc1461026b578063095ea7b3146102a3575b600080fd5b34801561022057600080fd5b5061023461022f3660046123aa565b61066b565b60405190151581526020015b60405180910390f35b34801561025557600080fd5b5061025e61067c565b604051610240919061241f565b34801561027757600080fd5b5061028b610286366004612432565b61070e565b6040516001600160a01b039091168152602001610240565b3480156102af57600080fd5b506102c36102be366004612467565b610735565b005b3480156102d157600080fd5b506008545b604051908152602001610240565b3480156102f057600080fd5b506102c36102ff366004612432565b610850565b34801561031057600080fd5b506102c361031f366004612491565b61085d565b34801561033057600080fd5b50600d546102d6565b34801561034557600080fd5b5061025e61088e565b34801561035a57600080fd5b506102d6610369366004612467565b610a5a565b34801561037a57600080fd5b506102d660115481565b34801561039057600080fd5b506102d660125481565b6102c36103a83660046124cd565b610af0565b3480156103b957600080fd5b506102c36103c8366004612491565b610c68565b3480156103d957600080fd5b506102c36103e83660046124f9565b610c83565b3480156103f957600080fd5b506102d6610408366004612432565b610ce4565b34801561041957600080fd5b506102d6610d77565b34801561042e57600080fd5b5061023461043d3660046124cd565b610e16565b34801561044e57600080fd5b5061028b61045d366004612432565b610e3c565b34801561046e57600080fd5b5061048261047d3660046124f9565b610e9c565b60405161024092919061256b565b34801561049c57600080fd5b506102d66104ab366004612586565b610ebb565b3480156104bc57600080fd5b506102c3610f41565b3480156104d157600080fd5b506102c36104e03660046125a1565b610f55565b3480156104f157600080fd5b50600b546001600160a01b031661028b565b34801561050f57600080fd5b506102c3610fc1565b34801561052457600080fd5b5061025e611184565b34801561053957600080fd5b506102d66105dc81565b34801561054f57600080fd5b506102c361055e3660046125d5565b611193565b34801561056f57600080fd5b506102d661119e565b34801561058457600080fd5b506102c361059336600461261c565b6111a9565b3480156105a457600080fd5b5061025e6105b3366004612432565b6111e1565b3480156105c457600080fd5b506102346105d33660046126f8565b6001600160a01b03918216600090815260056020908152604080832093909416825291909152205460ff1690565b34801561060d57600080fd5b506102c361061c3660046124cd565b6111eb565b34801561062d57600080fd5b506102c361063c366004612586565b61131b565b34801561064d57600080fd5b506102d6611391565b34801561066257600080fd5b506102d661148f565b6000610676826114fc565b92915050565b60606000805461068b90612722565b80601f01602080910402602001604051908101604052809291908181526020018280546106b790612722565b80156107045780601f106106d957610100808354040283529160200191610704565b820191906000526020600020905b8154815290600101906020018083116106e757829003601f168201915b5050505050905090565b600061071982611521565b506000908152600460205260409020546001600160a01b031690565b600061074082610e3c565b9050806001600160a01b0316836001600160a01b031614156107b35760405162461bcd60e51b815260206004820152602160248201527f4552433732313a20617070726f76616c20746f2063757272656e74206f776e656044820152603960f91b60648201526084015b60405180910390fd5b336001600160a01b03821614806107cf57506107cf81336105d3565b6108415760405162461bcd60e51b815260206004820152603d60248201527f4552433732313a20617070726f76652063616c6c6572206973206e6f7420746f60448201527f6b656e206f776e6572206f7220617070726f76656420666f7220616c6c00000060648201526084016107aa565b61084b8383611580565b505050565b6108586115ee565b601155565b6108673382611648565b6108835760405162461bcd60e51b81526004016107aa9061275d565b61084b8383836116c7565b60606000604051602001610a15907f3c73766720786d6c6e733d27687474703a2f2f7777772e77332e6f72672f323081527f30302f737667272076657273696f6e3d27312e3127206865696768743d273131602082015270181813903bb4b23a341e9398989818139f60791b60408201527f3c636972636c652063783d27353030272063793d273530302720723d2731353060518201527f272066696c6c3d276c61776e677265656e27207374726f6b653d2723303031316071820152751919139039ba3937b5b296bbb4b23a341e939913979f60511b60918201527f3c7265637420783d273630302720793d27323530272077696474683d2733353060a78201527f27206865696768743d27323530272066696c6c3d277465616c27202f3e00000060c78201527f3c706f6c79676f6e20706f696e74733d273830302c323030203935302c34303060e48201527f203635302c343030272066696c6c3d276f72616e676527202f3e203c2f737667610104820152601f60f91b6101248201526101250190565b60405160208183030381529060405290506000610a3182611838565b905080604051602001610a4491906127aa565b6040516020818303038152906040529250505090565b6000610a6583610ebb565b8210610ac75760405162461bcd60e51b815260206004820152602b60248201527f455243373231456e756d657261626c653a206f776e657220696e646578206f7560448201526a74206f6620626f756e647360a81b60648201526084016107aa565b506001600160a01b03919091166000908152600660209081526040808320938352929052205490565b6000828152600f6020526040902054821415610b4e5760405162461bcd60e51b815260206004820152601960248201527f466c6967687420616c726561647920726567697374657265640000000000000060448201526064016107aa565b604080516060810190915282815260208101600281526001600160a01b0383166020918201526000848152600f825260409020825181559082015160018083018054909160ff1990911690836004811115610bab57610bab6127ef565b0217905550604091820151600191820180546001600160a01b0390921661010002610100600160a81b0319909216919091179055600e805491820181556000527fbb7b4a454dc3493923482f07822329ed19e8244eff582cc204f8554c3620c3fd01839055518281527f95c861c95c60378d96c8e5f74bed2f87e222f096e0a7ff8736bc6e48b9bc13f69060200160405180910390a1610c64604051806060016040528060278152602001612af16027913983836119a0565b5050565b61084b838383604051806020016040528060008152506111a9565b601154601254610c93904261281b565b1115610ca55742601255610ca5610fc1565b7f94af253de69550dc89f661ee40c3f9ca744b642089664d2d8f145f393a37903c601254604051610cd891815260200190565b60405180910390a15050565b6000610cef60085490565b8210610d525760405162461bcd60e51b815260206004820152602c60248201527f455243373231456e756d657261626c653a20676c6f62616c20696e646578206f60448201526b7574206f6620626f756e647360a01b60648201526084016107aa565b60088281548110610d6557610d65612832565b90600052602060002001549050919050565b6040516370a0823160e01b81523360048201526000907f00000000000000000000000000000000000000000000000000000000000000006001600160a01b0316906370a082319060240160206040518083038186803b158015610dd957600080fd5b505afa158015610ded573d6000803e3d6000fd5b505050506040513d601f19601f82011682018060405250810190610e119190612848565b905090565b6000816001600160a01b0316610e2b84610e3c565b6001600160a01b0316149392505050565b6000818152600260205260408120546001600160a01b0316806106765760405162461bcd60e51b8152602060048201526018602482015277115490cdcc8c4e881a5b9d985b1a59081d1bdad95b88125160421b60448201526064016107aa565b6000606060115460125442610eb1919061281b565b1191509250929050565b60006001600160a01b038216610f255760405162461bcd60e51b815260206004820152602960248201527f4552433732313a2061646472657373207a65726f206973206e6f7420612076616044820152683634b21037bbb732b960b91b60648201526084016107aa565b506001600160a01b031660009081526003602052604090205490565b610f496115ee565b610f5360006119e7565b565b610f5d6115ee565b6000828152600f6020526040902060019081018054839260ff1990911690836004811115610f8d57610f8d6127ef565b02179055507f862e93a44de3578a10562508e4206814b11d4c3a4992c83b481c6100d07bc1b581604051610cd89190612861565b610fc96115ee565b60005b600e54811015611181576000600e8281548110610feb57610feb612832565b600091825260208220015491506000828152600f602052604090206001015460ff16600481111561101e5761101e6127ef565b141561116e57600061102f600c5490565b6000818152600260205260409020549091506001600160a01b03161561108e5760405162461bcd60e51b8152602060048201526014602482015273546f6b656e20616c72656164792065786973747360601b60448201526064016107aa565b6000828152600f602052604090206001015461010090046001600160a01b03166110b88183611a39565b6110c6600c80546001019055565b6110cf826111e1565b5060008281526010602090815260409182902080546001600160a01b0319166001600160a01b038516179055815160608101909252602980835261111c9291612a889083013983836119a0565b6040516001600160a01b03821681527f2b6f69d559abc93b78b0d468740be7b8aa9bcb6a39fda6376e946cb01aed809f9060200160405180910390a161116282826111eb565b61116b81611a53565b50505b508061117981612889565b915050610fcc565b50565b60606001805461068b90612722565b610c64338383611be1565b6000610e11600c5490565b6111b33383611648565b6111cf5760405162461bcd60e51b81526004016107aa9061275d565b6111db84848484611cb0565b50505050565b606061067661088e565b6111f58282610e16565b6112585760405162461bcd60e51b815260206004820152602e60248201527f596f752063616e206f6e6c792061737369676e20706f696e747320746f20796f60448201526d3ab91037bbb7103a37b5b2b7399760911b60648201526084016107aa565b600082815260106020526040812060010180546105dc929061127b9084906128a4565b925050819055506105dc600d600082825461129691906128a4565b9091555050604080518381526001600160a01b03831660208201526105dc8183015290517fd7c236824feb9d39b4a052e9fbdb4ca22c53d1a04ee99be03514e3c408ad18189181900360600190a1610c646040518060600160405280602b8152602001612a5d602b91396000848152601060205260409020600101546105dc90611ce3565b6113236115ee565b6001600160a01b0381166113885760405162461bcd60e51b815260206004820152602660248201527f4f776e61626c653a206e6577206f776e657220697320746865207a65726f206160448201526564647265737360d01b60648201526084016107aa565b611181816119e7565b60008061139d33610ebb565b116113e55760405162461bcd60e51b81526020600482015260186024820152772737903a37b5b2b71037bbb732b210313c9039b2b73232b960411b60448201526064016107aa565b60006113f2336000610a5a565b6000818152601060205260409020549091506001600160a01b0316156114785760405162461bcd60e51b815260206004820152603560248201527f497420776173206e6f7420706f737369626c6520746f206765742072657761726044820152743239903837b4b73a3990313c903130b233b2a4b21760591b60648201526084016107aa565b600090815260106020526040902060010154919050565b60008061149b33610ebb565b9050600081116114e85760405162461bcd60e51b81526020600482015260186024820152772737903a37b5b2b71037bbb732b210313c9039b2b73232b960411b60448201526064016107aa565b60006114f5336000610a5a565b9392505050565b60006001600160e01b0319821663780e9d6360e01b1480610676575061067682611d2a565b6000818152600260205260409020546001600160a01b03166111815760405162461bcd60e51b8152602060048201526018602482015277115490cdcc8c4e881a5b9d985b1a59081d1bdad95b88125160421b60448201526064016107aa565b600081815260046020526040902080546001600160a01b0319166001600160a01b03841690811790915581906115b582610e3c565b6001600160a01b03167f8c5be1e5ebec7d5bd14f71427d1e84f3dd0314c0f7b2291e5b200ac8c7c3b92560405160405180910390a45050565b600b546001600160a01b03163314610f535760405162461bcd60e51b815260206004820181905260248201527f4f776e61626c653a2063616c6c6572206973206e6f7420746865206f776e657260448201526064016107aa565b60008061165483610e3c565b9050806001600160a01b0316846001600160a01b0316148061169b57506001600160a01b0380821660009081526005602090815260408083209388168352929052205460ff165b806116bf5750836001600160a01b03166116b48461070e565b6001600160a01b0316145b949350505050565b826001600160a01b03166116da82610e3c565b6001600160a01b0316146117005760405162461bcd60e51b81526004016107aa906128bc565b6001600160a01b0382166117625760405162461bcd60e51b8152602060048201526024808201527f4552433732313a207472616e7366657220746f20746865207a65726f206164646044820152637265737360e01b60648201526084016107aa565b61176f8383836001611d7a565b826001600160a01b031661178282610e3c565b6001600160a01b0316146117a85760405162461bcd60e51b81526004016107aa906128bc565b600081815260046020908152604080832080546001600160a01b03199081169091556001600160a01b0387811680865260038552838620805460001901905590871680865283862080546001019055868652600290945282852080549092168417909155905184937fddf252ad1be2c89b69c2b068fc378daa952ba7f163c4a11628f55a4df523b3ef91a4505050565b606081516000141561185857505060408051602081019091526000815290565b6000604051806060016040528060408152602001612ab1604091399050600060038451600261188791906128a4565b6118919190612901565b61189c906004612923565b905060006118ab8260206128a4565b67ffffffffffffffff8111156118c3576118c3612606565b6040519080825280601f01601f1916602001820160405280156118ed576020820181803683370190505b509050818152600183018586518101602084015b8183101561195b5760039283018051603f601282901c811687015160f890811b8552600c83901c8216880151811b6001860152600683901c8216880151811b60028601529116860151901b93820193909352600401611901565b600389510660018114611975576002811461198657611992565b613d3d60f01b600119830152611992565b603d60f81b6000198301525b509398975050505050505050565b61084b8383836040516024016119b893929190612942565b60408051601f198184030181529190526020810180516001600160e01b031663038fd88960e31b179052611ddd565b600b80546001600160a01b038381166001600160a01b0319831681179093556040519116919082907f8be0079c531659141344cd1fd0a4f28419497f9722a3daafe3b4186f6b6457e090600090a35050565b610c64828260405180602001604052806000815250611dfe565b611a5b6115ee565b6105dc7f00000000000000000000000000000000000000000000000000000000000000006001600160a01b03166370a08231611a9f600b546001600160a01b031690565b6040516001600160e01b031960e084901b1681526001600160a01b03909116600482015260240160206040518083038186803b158015611ade57600080fd5b505afa158015611af2573d6000803e3d6000fd5b505050506040513d601f19601f82011682018060405250810190611b169190612848565b1015611b5b5760405162461bcd60e51b8152602060048201526014602482015273496e73756666696369656e742062616c616e636560601b60448201526064016107aa565b60405163413918c960e11b81526001600160a01b0382811660048301526105dc60248301527f00000000000000000000000000000000000000000000000000000000000000001690638272319290604401600060405180830381600087803b158015611bc657600080fd5b505af1158015611bda573d6000803e3d6000fd5b5050505050565b816001600160a01b0316836001600160a01b03161415611c435760405162461bcd60e51b815260206004820152601960248201527f4552433732313a20617070726f766520746f2063616c6c65720000000000000060448201526064016107aa565b6001600160a01b03838116600081815260056020908152604080832094871680845294825291829020805460ff191686151590811790915591519182527f17307eab39ab6107e8899845ad3d59bd9653f200f220920489ca2b5937696c31910160405180910390a3505050565b611cbb8484846116c7565b611cc784848484611e31565b6111db5760405162461bcd60e51b81526004016107aa90612975565b61084b838383604051602401611cfb939291906129c7565b60408051601f198184030181529190526020810180516001600160e01b031663ca47c4eb60e01b179052611ddd565b60006001600160e01b031982166380ac58cd60e01b1480611d5b57506001600160e01b03198216635b5e139f60e01b145b8061067657506301ffc9a760e01b6001600160e01b0319831614610676565b6001600160a01b03841615611dd15760405162461bcd60e51b815260206004820152601860248201527f426164676520746f6b656e20697320736f756c626f756e64000000000000000060448201526064016107aa565b6111db84848484611f3e565b80516a636f6e736f6c652e6c6f67602083016000808483855afa5050505050565b611e08838361206b565b611e156000848484611e31565b61084b5760405162461bcd60e51b81526004016107aa90612975565b60006001600160a01b0384163b15611f3357604051630a85bd0160e11b81526001600160a01b0385169063150b7a0290611e759033908990889088906004016129ec565b602060405180830381600087803b158015611e8f57600080fd5b505af1925050508015611ebf575060408051601f3d908101601f19168201909252611ebc91810190612a29565b60015b611f19573d808015611eed576040519150601f19603f3d011682016040523d82523d6000602084013e611ef2565b606091505b508051611f115760405162461bcd60e51b81526004016107aa90612975565b805181602001fd5b6001600160e01b031916630a85bd0160e11b1490506116bf565b506001949350505050565b6001811115611fad5760405162461bcd60e51b815260206004820152603560248201527f455243373231456e756d657261626c653a20636f6e7365637574697665207472604482015274185b9cd9995c9cc81b9bdd081cdd5c1c1bdc9d1959605a1b60648201526084016107aa565b816001600160a01b0385166120095761200481600880546000838152600960205260408120829055600182018355919091527ff3f7a9fe364faab93b216da50a3214154f22a0a2b415b23a84c8169e8b636ee30155565b61202c565b836001600160a01b0316856001600160a01b03161461202c5761202c8582612204565b6001600160a01b03841661204857612043816122a1565b611bda565b846001600160a01b0316846001600160a01b031614611bda57611bda8482612350565b6001600160a01b0382166120c15760405162461bcd60e51b815260206004820181905260248201527f4552433732313a206d696e7420746f20746865207a65726f206164647265737360448201526064016107aa565b6000818152600260205260409020546001600160a01b0316156121265760405162461bcd60e51b815260206004820152601c60248201527f4552433732313a20746f6b656e20616c7265616479206d696e7465640000000060448201526064016107aa565b612134600083836001611d7a565b6000818152600260205260409020546001600160a01b0316156121995760405162461bcd60e51b815260206004820152601c60248201527f4552433732313a20746f6b656e20616c7265616479206d696e7465640000000060448201526064016107aa565b6001600160a01b038216600081815260036020908152604080832080546001019055848352600290915280822080546001600160a01b0319168417905551839291907fddf252ad1be2c89b69c2b068fc378daa952ba7f163c4a11628f55a4df523b3ef908290a45050565b6000600161221184610ebb565b61221b919061281b565b60008381526007602052604090205490915080821461226e576001600160a01b03841660009081526006602090815260408083208584528252808320548484528184208190558352600790915290208190555b5060009182526007602090815260408084208490556001600160a01b039094168352600681528383209183525290812055565b6008546000906122b39060019061281b565b600083815260096020526040812054600880549394509092849081106122db576122db612832565b9060005260206000200154905080600883815481106122fc576122fc612832565b600091825260208083209091019290925582815260099091526040808220849055858252812055600880548061233457612334612a46565b6001900381819060005260206000200160009055905550505050565b600061235b83610ebb565b6001600160a01b039093166000908152600660209081526040808320868452825280832085905593825260079052919091209190915550565b6001600160e01b03198116811461118157600080fd5b6000602082840312156123bc57600080fd5b81356114f581612394565b60005b838110156123e25781810151838201526020016123ca565b838111156111db5750506000910152565b6000815180845261240b8160208601602086016123c7565b601f01601f19169290920160200192915050565b6020815260006114f560208301846123f3565b60006020828403121561244457600080fd5b5035919050565b80356001600160a01b038116811461246257600080fd5b919050565b6000806040838503121561247a57600080fd5b6124838361244b565b946020939093013593505050565b6000806000606084860312156124a657600080fd5b6124af8461244b565b92506124bd6020850161244b565b9150604084013590509250925092565b600080604083850312156124e057600080fd5b823591506124f06020840161244b565b90509250929050565b6000806020838503121561250c57600080fd5b823567ffffffffffffffff8082111561252457600080fd5b818501915085601f83011261253857600080fd5b81358181111561254757600080fd5b86602082850101111561255957600080fd5b60209290920196919550909350505050565b82151581526040602082015260006116bf60408301846123f3565b60006020828403121561259857600080fd5b6114f58261244b565b600080604083850312156125b457600080fd5b823591506020830135600581106125ca57600080fd5b809150509250929050565b600080604083850312156125e857600080fd5b6125f18361244b565b9150602083013580151581146125ca57600080fd5b634e487b7160e01b600052604160045260246000fd5b6000806000806080858703121561263257600080fd5b61263b8561244b565b93506126496020860161244b565b925060408501359150606085013567ffffffffffffffff8082111561266d57600080fd5b818701915087601f83011261268157600080fd5b81358181111561269357612693612606565b604051601f8201601f19908116603f011681019083821181831017156126bb576126bb612606565b816040528281528a60208487010111156126d457600080fd5b82602086016020830137600060208483010152809550505050505092959194509250565b6000806040838503121561270b57600080fd5b6127148361244b565b91506124f06020840161244b565b600181811c9082168061273657607f821691505b6020821081141561275757634e487b7160e01b600052602260045260246000fd5b50919050565b6020808252602d908201527f4552433732313a2063616c6c6572206973206e6f7420746f6b656e206f776e6560408201526c1c881bdc88185c1c1c9bdd9959609a1b606082015260800190565b7f646174613a696d6167652f7376672b786d6c3b6261736536342c0000000000008152600082516127e281601a8501602087016123c7565b91909101601a0192915050565b634e487b7160e01b600052602160045260246000fd5b634e487b7160e01b600052601160045260246000fd5b60008282101561282d5761282d612805565b500390565b634e487b7160e01b600052603260045260246000fd5b60006020828403121561285a57600080fd5b5051919050565b602081016005831061288357634e487b7160e01b600052602160045260246000fd5b91905290565b600060001982141561289d5761289d612805565b5060010190565b600082198211156128b7576128b7612805565b500190565b60208082526025908201527f4552433732313a207472616e736665722066726f6d20696e636f72726563742060408201526437bbb732b960d91b606082015260800190565b60008261291e57634e487b7160e01b600052601260045260246000fd5b500490565b600081600019048311821515161561293d5761293d612805565b500290565b60608152600061295560608301866123f3565b6020830194909452506001600160a01b0391909116604090910152919050565b60208082526032908201527f4552433732313a207472616e7366657220746f206e6f6e20455243373231526560408201527131b2b4bb32b91034b6b83632b6b2b73a32b960711b606082015260800190565b6060815260006129da60608301866123f3565b60208301949094525060400152919050565b6001600160a01b0385811682528416602082015260408101839052608060608201819052600090612a1f908301846123f3565b9695505050505050565b600060208284031215612a3b57600080fd5b81516114f581612394565b634e487b7160e01b600052603160045260246000fdfe506f696e74732061737369676e6564203d202573207c20746f74616c20616d6f756e74206f66203d20257342616467652067656e657261746564206964203d20257320746f2070617373656e676572203d2025734142434445464748494a4b4c4d4e4f505152535455565758595a6162636465666768696a6b6c6d6e6f707172737475767778797a303132333435363738392b2f416464696e6720666c69676874206964203d20257320746f207061782061646472657373202573a264697066735822122065736a2550a0dd4a04b612330a0c44665dd68221310b27d5d35f5520e13eb5bf64736f6c63430008090033",
  "linkReferences": {},
  "deployedLinkReferences": {}
}