{
  "_format": "hh-sol-artifact-1",
  "contractName": "NomadBadge",
  "sourceName": "contracts/NomadBadge.sol",
  "abi": [
    {
      "inputs": [
        {
          "internalType": "address",
          "name": "erc20Address",
          "type": "address"
        }
      ],
      "stateMutability": "nonpayable",
      "type": "constructor"
    },
    {
      "anonymous": false,
      "inputs": [
        {
          "indexed": true,
          "internalType": "address",
          "name": "owner",
          "type": "address"
        },
        {
          "indexed": true,
          "internalType": "address",
          "name": "approved",
          "type": "address"
        },
        {
          "indexed": true,
          "internalType": "uint256",
          "name": "tokenId",
          "type": "uint256"
        }
      ],
      "name": "Approval",
      "type": "event"
    },
    {
      "anonymous": false,
      "inputs": [
        {
          "indexed": true,
          "internalType": "address",
          "name": "owner",
          "type": "address"
        },
        {
          "indexed": true,
          "internalType": "address",
          "name": "operator",
          "type": "address"
        },
        {
          "indexed": false,
          "internalType": "bool",
          "name": "approved",
          "type": "bool"
        }
      ],
      "name": "ApprovalForAll",
      "type": "event"
    },
    {
      "anonymous": false,
      "inputs": [
        {
          "indexed": false,
          "internalType": "uint256",
          "name": "flightId",
          "type": "uint256"
        }
      ],
      "name": "FlightAdded",
      "type": "event"
    },
    {
      "anonymous": false,
      "inputs": [
        {
          "indexed": false,
          "internalType": "enum NomadBadge.FlightRewardStatus",
          "name": "status",
          "type": "uint8"
        }
      ],
      "name": "FlightStatusUpdated",
      "type": "event"
    },
    {
      "anonymous": false,
      "inputs": [
        {
          "indexed": true,
          "internalType": "address",
          "name": "previousOwner",
          "type": "address"
        },
        {
          "indexed": true,
          "internalType": "address",
          "name": "newOwner",
          "type": "address"
        }
      ],
      "name": "OwnershipTransferred",
      "type": "event"
    },
    {
      "anonymous": false,
      "inputs": [
        {
          "indexed": false,
          "internalType": "uint256",
          "name": "badgeId",
          "type": "uint256"
        },
        {
          "indexed": false,
          "internalType": "address",
          "name": "to",
          "type": "address"
        },
        {
          "indexed": false,
          "internalType": "uint256",
          "name": "points",
          "type": "uint256"
        }
      ],
      "name": "RewardsPointsAssigned",
      "type": "event"
    },
    {
      "anonymous": false,
      "inputs": [
        {
          "indexed": false,
          "internalType": "address",
          "name": "to",
          "type": "address"
        }
      ],
      "name": "RewardsProvided",
      "type": "event"
    },
    {
      "anonymous": false,
      "inputs": [
        {
          "indexed": true,
          "internalType": "address",
          "name": "from",
          "type": "address"
        },
        {
          "indexed": true,
          "internalType": "address",
          "name": "to",
          "type": "address"
        },
        {
          "indexed": true,
          "internalType": "uint256",
          "name": "tokenId",
          "type": "uint256"
        }
      ],
      "name": "Transfer",
      "type": "event"
    },
    {
      "anonymous": false,
      "inputs": [
        {
          "indexed": false,
          "internalType": "uint256",
          "name": "lastTimeStamp",
          "type": "uint256"
        }
      ],
      "name": "UpkeepPerformed",
      "type": "event"
    },
    {
      "inputs": [],
      "name": "DEFAULT_REWARD_POINTS",
      "outputs": [
        {
          "internalType": "uint256",
          "name": "",
          "type": "uint256"
        }
      ],
      "stateMutability": "view",
      "type": "function"
    },
    {
      "inputs": [
        {
          "internalType": "uint256",
          "name": "flightId",
          "type": "uint256"
        }
      ],
      "name": "addFlight",
      "outputs": [],
      "stateMutability": "payable",
      "type": "function"
    },
    {
      "inputs": [
        {
          "internalType": "address",
          "name": "to",
          "type": "address"
        },
        {
          "internalType": "uint256",
          "name": "tokenId",
          "type": "uint256"
        }
      ],
      "name": "approve",
      "outputs": [],
      "stateMutability": "nonpayable",
      "type": "function"
    },
    {
      "inputs": [
        {
          "internalType": "uint256",
          "name": "badgeId",
          "type": "uint256"
        },
        {
          "internalType": "address",
          "name": "passenger",
          "type": "address"
        }
      ],
      "name": "assignPoints",
      "outputs": [],
      "stateMutability": "nonpayable",
      "type": "function"
    },
    {
      "inputs": [
        {
          "internalType": "address",
          "name": "owner",
          "type": "address"
        }
      ],
      "name": "balanceOf",
      "outputs": [
        {
          "internalType": "uint256",
          "name": "",
          "type": "uint256"
        }
      ],
      "stateMutability": "view",
      "type": "function"
    },
    {
      "inputs": [
        {
          "internalType": "bytes",
          "name": "",
          "type": "bytes"
        }
      ],
      "name": "checkUpkeep",
      "outputs": [
        {
          "internalType": "bool",
          "name": "upkeepNeeded",
          "type": "bool"
        },
        {
          "internalType": "bytes",
          "name": "",
          "type": "bytes"
        }
      ],
      "stateMutability": "view",
      "type": "function"
    },
    {
      "inputs": [],
      "name": "constructTokenURI",
      "outputs": [
        {
          "internalType": "string",
          "name": "",
          "type": "string"
        }
      ],
      "stateMutability": "pure",
      "type": "function"
    },
    {
      "inputs": [
        {
          "internalType": "uint256",
          "name": "tokenId",
          "type": "uint256"
        }
      ],
      "name": "getApproved",
      "outputs": [
        {
          "internalType": "address",
          "name": "",
          "type": "address"
        }
      ],
      "stateMutability": "view",
      "type": "function"
    },
    {
      "inputs": [],
      "name": "getBadgeId",
      "outputs": [
        {
          "internalType": "uint256",
          "name": "",
          "type": "uint256"
        }
      ],
      "stateMutability": "view",
      "type": "function"
    },
    {
      "inputs": [
        {
          "internalType": "address",
          "name": "passenger",
          "type": "address"
        }
      ],
      "name": "getPoints",
      "outputs": [
        {
          "internalType": "uint256",
          "name": "",
          "type": "uint256"
        }
      ],
      "stateMutability": "view",
      "type": "function"
    },
    {
      "inputs": [
        {
          "internalType": "address",
          "name": "passenger",
          "type": "address"
        }
      ],
      "name": "getTokensRewards",
      "outputs": [
        {
          "internalType": "uint256",
          "name": "",
          "type": "uint256"
        }
      ],
      "stateMutability": "view",
      "type": "function"
    },
    {
      "inputs": [],
      "name": "getTotalBadgesMinted",
      "outputs": [
        {
          "internalType": "uint256",
          "name": "",
          "type": "uint256"
        }
      ],
      "stateMutability": "view",
      "type": "function"
    },
    {
      "inputs": [],
      "name": "getTotalPointsDistributed",
      "outputs": [
        {
          "internalType": "uint256",
          "name": "",
          "type": "uint256"
        }
      ],
      "stateMutability": "view",
      "type": "function"
    },
    {
      "inputs": [
        {
          "internalType": "address",
          "name": "owner",
          "type": "address"
        },
        {
          "internalType": "address",
          "name": "operator",
          "type": "address"
        }
      ],
      "name": "isApprovedForAll",
      "outputs": [
        {
          "internalType": "bool",
          "name": "",
          "type": "bool"
        }
      ],
      "stateMutability": "view",
      "type": "function"
    },
    {
      "inputs": [
        {
          "internalType": "uint256",
          "name": "badgeId",
          "type": "uint256"
        },
        {
          "internalType": "address",
          "name": "owner",
          "type": "address"
        }
      ],
      "name": "isOwner",
      "outputs": [
        {
          "internalType": "bool",
          "name": "",
          "type": "bool"
        }
      ],
      "stateMutability": "view",
      "type": "function"
    },
    {
      "inputs": [],
      "name": "lastTimeStamp",
      "outputs": [
        {
          "internalType": "uint256",
          "name": "",
          "type": "uint256"
        }
      ],
      "stateMutability": "view",
      "type": "function"
    },
    {
      "inputs": [],
      "name": "name",
      "outputs": [
        {
          "internalType": "string",
          "name": "",
          "type": "string"
        }
      ],
      "stateMutability": "view",
      "type": "function"
    },
    {
      "inputs": [],
      "name": "owner",
      "outputs": [
        {
          "internalType": "address",
          "name": "",
          "type": "address"
        }
      ],
      "stateMutability": "view",
      "type": "function"
    },
    {
      "inputs": [
        {
          "internalType": "uint256",
          "name": "tokenId",
          "type": "uint256"
        }
      ],
      "name": "ownerOf",
      "outputs": [
        {
          "internalType": "address",
          "name": "",
          "type": "address"
        }
      ],
      "stateMutability": "view",
      "type": "function"
    },
    {
      "inputs": [
        {
          "internalType": "bytes",
          "name": "",
          "type": "bytes"
        }
      ],
      "name": "performUpkeep",
      "outputs": [],
      "stateMutability": "nonpayable",
      "type": "function"
    },
    {
      "inputs": [],
      "name": "renounceOwnership",
      "outputs": [],
      "stateMutability": "nonpayable",
      "type": "function"
    },
    {
      "inputs": [],
      "name": "runRewardProcess",
      "outputs": [],
      "stateMutability": "nonpayable",
      "type": "function"
    },
    {
      "inputs": [
        {
          "internalType": "address",
          "name": "from",
          "type": "address"
        },
        {
          "internalType": "address",
          "name": "to",
          "type": "address"
        },
        {
          "internalType": "uint256",
          "name": "tokenId",
          "type": "uint256"
        }
      ],
      "name": "safeTransferFrom",
      "outputs": [],
      "stateMutability": "nonpayable",
      "type": "function"
    },
    {
      "inputs": [
        {
          "internalType": "address",
          "name": "from",
          "type": "address"
        },
        {
          "internalType": "address",
          "name": "to",
          "type": "address"
        },
        {
          "internalType": "uint256",
          "name": "tokenId",
          "type": "uint256"
        },
        {
          "internalType": "bytes",
          "name": "data",
          "type": "bytes"
        }
      ],
      "name": "safeTransferFrom",
      "outputs": [],
      "stateMutability": "nonpayable",
      "type": "function"
    },
    {
      "inputs": [
        {
          "internalType": "address",
          "name": "operator",
          "type": "address"
        },
        {
          "internalType": "bool",
          "name": "approved",
          "type": "bool"
        }
      ],
      "name": "setApprovalForAll",
      "outputs": [],
      "stateMutability": "nonpayable",
      "type": "function"
    },
    {
      "inputs": [
        {
          "internalType": "uint256",
          "name": "_updateTimer",
          "type": "uint256"
        }
      ],
      "name": "setUpdateTimer",
      "outputs": [],
      "stateMutability": "nonpayable",
      "type": "function"
    },
    {
      "inputs": [
        {
          "internalType": "bytes4",
          "name": "interfaceId",
          "type": "bytes4"
        }
      ],
      "name": "supportsInterface",
      "outputs": [
        {
          "internalType": "bool",
          "name": "",
          "type": "bool"
        }
      ],
      "stateMutability": "view",
      "type": "function"
    },
    {
      "inputs": [],
      "name": "symbol",
      "outputs": [
        {
          "internalType": "string",
          "name": "",
          "type": "string"
        }
      ],
      "stateMutability": "view",
      "type": "function"
    },
    {
      "inputs": [
        {
          "internalType": "uint256",
          "name": "index",
          "type": "uint256"
        }
      ],
      "name": "tokenByIndex",
      "outputs": [
        {
          "internalType": "uint256",
          "name": "",
          "type": "uint256"
        }
      ],
      "stateMutability": "view",
      "type": "function"
    },
    {
      "inputs": [
        {
          "internalType": "address",
          "name": "owner",
          "type": "address"
        },
        {
          "internalType": "uint256",
          "name": "index",
          "type": "uint256"
        }
      ],
      "name": "tokenOfOwnerByIndex",
      "outputs": [
        {
          "internalType": "uint256",
          "name": "",
          "type": "uint256"
        }
      ],
      "stateMutability": "view",
      "type": "function"
    },
    {
      "inputs": [
        {
          "internalType": "uint256",
          "name": "",
          "type": "uint256"
        }
      ],
      "name": "tokenURI",
      "outputs": [
        {
          "internalType": "string",
          "name": "",
          "type": "string"
        }
      ],
      "stateMutability": "pure",
      "type": "function"
    },
    {
      "inputs": [],
      "name": "totalSupply",
      "outputs": [
        {
          "internalType": "uint256",
          "name": "",
          "type": "uint256"
        }
      ],
      "stateMutability": "view",
      "type": "function"
    },
    {
      "inputs": [
        {
          "internalType": "address",
          "name": "from",
          "type": "address"
        },
        {
          "internalType": "address",
          "name": "to",
          "type": "address"
        },
        {
          "internalType": "uint256",
          "name": "tokenId",
          "type": "uint256"
        }
      ],
      "name": "transferFrom",
      "outputs": [],
      "stateMutability": "nonpayable",
      "type": "function"
    },
    {
      "inputs": [
        {
          "internalType": "address",
          "name": "newOwner",
          "type": "address"
        }
      ],
      "name": "transferOwnership",
      "outputs": [],
      "stateMutability": "nonpayable",
      "type": "function"
    },
    {
      "inputs": [
        {
          "internalType": "uint256",
          "name": "flightId",
          "type": "uint256"
        },
        {
          "internalType": "enum NomadBadge.FlightRewardStatus",
          "name": "status",
          "type": "uint8"
        }
      ],
      "name": "updateFlightStatus",
      "outputs": [],
      "stateMutability": "nonpayable",
      "type": "function"
    },
    {
      "inputs": [],
      "name": "updateTimer",
      "outputs": [
        {
          "internalType": "uint256",
          "name": "",
          "type": "uint256"
        }
      ],
      "stateMutability": "view",
      "type": "function"
    }
  ],
  "bytecode": "0x60a06040526000600d553480156200001657600080fd5b5060405162002b2738038062002b278339810160408190526200003991620001c7565b604080518082018252600a8152694e6f6d6164426164676560b01b6020808301918252835180850190945260038452624e424760e81b908401528151919291620000869160009162000121565b5080516200009c90600190602084019062000121565b505050620000b9620000b3620000cb60201b60201c565b620000cf565b6001600160a01b031660805262000236565b3390565b600b80546001600160a01b038381166001600160a01b0319831681179093556040519116919082907f8be0079c531659141344cd1fd0a4f28419497f9722a3daafe3b4186f6b6457e090600090a35050565b8280546200012f90620001f9565b90600052602060002090601f0160209004810192826200015357600085556200019e565b82601f106200016e57805160ff19168380011785556200019e565b828001600101855582156200019e579182015b828111156200019e57825182559160200191906001019062000181565b50620001ac929150620001b0565b5090565b5b80821115620001ac5760008155600101620001b1565b600060208284031215620001da57600080fd5b81516001600160a01b0381168114620001f257600080fd5b9392505050565b600181811c908216806200020e57607f821691505b602082108114156200023057634e487b7160e01b600052602260045260246000fd5b50919050565b6080516128ce62000259600039600081816118e50152611a0701526128ce6000f3fe60806040526004361061020f5760003560e01c80636e04ff0d11610118578063a6acb726116100a0578063e985e9c51161006f578063e985e9c5146105c3578063eb6039c61461060c578063ee204abb1461062c578063f2fde38b1461064c578063fbf8fd4f1461066c57600080fd5b8063a6acb7261461054e578063b10b22f41461056e578063b88d4fde14610583578063c87b56dd146105a357600080fd5b80638da5cb5b116100e75780638da5cb5b146104d05780639534a371146104ee57806395d89b411461050357806396fb21ce14610518578063a22cb4651461052e57600080fd5b80636e04ff0d1461044d57806370a082311461047b578063715018a61461049b5780637c89b580146104b057600080fd5b80632f745c591161019b57806342842e0e1161016a57806342842e0e146103ad5780634585e33b146103cd5780634f6ccce7146103ed5780635a5d096c1461040d5780636352211e1461042d57600080fd5b80632f745c591461034e578063324354771461036e57806339277da8146103815780633f3b3b271461039757600080fd5b806318160ddd116101e257806318160ddd146102c55780631eb0fc25146102e457806323b872dd1461030457806328a6f29d146103245780632d3715081461033957600080fd5b806301ffc9a71461021457806306fdde0314610249578063081812fc1461026b578063095ea7b3146102a3575b600080fd5b34801561022057600080fd5b5061023461022f3660046121c7565b610681565b60405190151581526020015b60405180910390f35b34801561025557600080fd5b5061025e610692565b604051610240919061223c565b34801561027757600080fd5b5061028b61028636600461224f565b610724565b6040516001600160a01b039091168152602001610240565b3480156102af57600080fd5b506102c36102be366004612284565b61074b565b005b3480156102d157600080fd5b506008545b604051908152602001610240565b3480156102f057600080fd5b506102c36102ff36600461224f565b610866565b34801561031057600080fd5b506102c361031f3660046122ae565b610873565b34801561033057600080fd5b50600d546102d6565b34801561034557600080fd5b5061025e6108a4565b34801561035a57600080fd5b506102d6610369366004612284565b610a70565b6102c361037c36600461224f565b610b06565b34801561038d57600080fd5b506102d660115481565b3480156103a357600080fd5b506102d660125481565b3480156103b957600080fd5b506102c36103c83660046122ae565b610c51565b3480156103d957600080fd5b506102c36103e83660046122ea565b610c6c565b3480156103f957600080fd5b506102d661040836600461224f565b610ccd565b34801561041957600080fd5b5061023461042836600461235c565b610d60565b34801561043957600080fd5b5061028b61044836600461224f565b610d86565b34801561045957600080fd5b5061046d6104683660046122ea565b610de6565b604051610240929190612388565b34801561048757600080fd5b506102d66104963660046123a3565b610e05565b3480156104a757600080fd5b506102c3610e8b565b3480156104bc57600080fd5b506102c36104cb3660046123be565b610e9f565b3480156104dc57600080fd5b50600b546001600160a01b031661028b565b3480156104fa57600080fd5b506102c3610f0b565b34801561050f57600080fd5b5061025e6110a4565b34801561052457600080fd5b506102d66105dc81565b34801561053a57600080fd5b506102c36105493660046123f2565b6110b3565b34801561055a57600080fd5b506102d66105693660046123a3565b6110c2565b34801561057a57600080fd5b506102d66110f0565b34801561058f57600080fd5b506102c361059e366004612439565b611100565b3480156105af57600080fd5b5061025e6105be36600461224f565b611138565b3480156105cf57600080fd5b506102346105de366004612515565b6001600160a01b03918216600090815260056020908152604080832093909416825291909152205460ff1690565b34801561061857600080fd5b506102c361062736600461235c565b611142565b34801561063857600080fd5b506102d66106473660046123a3565b61123c565b34801561065857600080fd5b506102c36106673660046123a3565b611310565b34801561067857600080fd5b506102d6611386565b600061068c826113c8565b92915050565b6060600080546106a19061253f565b80601f01602080910402602001604051908101604052809291908181526020018280546106cd9061253f565b801561071a5780601f106106ef5761010080835404028352916020019161071a565b820191906000526020600020905b8154815290600101906020018083116106fd57829003601f168201915b5050505050905090565b600061072f826113ed565b506000908152600460205260409020546001600160a01b031690565b600061075682610d86565b9050806001600160a01b0316836001600160a01b031614156107c95760405162461bcd60e51b815260206004820152602160248201527f4552433732313a20617070726f76616c20746f2063757272656e74206f776e656044820152603960f91b60648201526084015b60405180910390fd5b336001600160a01b03821614806107e557506107e581336105de565b6108575760405162461bcd60e51b815260206004820152603d60248201527f4552433732313a20617070726f76652063616c6c6572206973206e6f7420746f60448201527f6b656e206f776e6572206f7220617070726f76656420666f7220616c6c00000060648201526084016107c0565b610861838361144c565b505050565b61086e6114ba565b601155565b61087d3382611514565b6108995760405162461bcd60e51b81526004016107c09061257a565b610861838383611593565b60606000604051602001610a2b907f3c73766720786d6c6e733d27687474703a2f2f7777772e77332e6f72672f323081527f30302f737667272076657273696f6e3d27312e3127206865696768743d273131602082015270181813903bb4b23a341e9398989818139f60791b60408201527f3c636972636c652063783d27353030272063793d273530302720723d2731353060518201527f272066696c6c3d276c61776e677265656e27207374726f6b653d2723303031316071820152751919139039ba3937b5b296bbb4b23a341e939913979f60511b60918201527f3c7265637420783d273630302720793d27323530272077696474683d2733353060a78201527f27206865696768743d27323530272066696c6c3d277465616c27202f3e00000060c78201527f3c706f6c79676f6e20706f696e74733d273830302c323030203935302c34303060e48201527f203635302c343030272066696c6c3d276f72616e676527202f3e203c2f737667610104820152601f60f91b6101248201526101250190565b60405160208183030381529060405290506000610a4782611704565b905080604051602001610a5a91906125c7565b6040516020818303038152906040529250505090565b6000610a7b83610e05565b8210610add5760405162461bcd60e51b815260206004820152602b60248201527f455243373231456e756d657261626c653a206f776e657220696e646578206f7560448201526a74206f6620626f756e647360a81b60648201526084016107c0565b506001600160a01b03919091166000908152600660209081526040808320938352929052205490565b6000818152600f6020526040902054811415610b645760405162461bcd60e51b815260206004820152601960248201527f466c6967687420616c726561647920726567697374657265640000000000000060448201526064016107c0565b60408051606081019091528181526020810160028152336020918201526000838152600f825260409020825181559082015160018083018054909160ff1990911690836004811115610bb857610bb861260c565b0217905550604091820151600191820180546001600160a01b0390921661010002610100600160a81b0319909216919091179055600e805491820181556000527fbb7b4a454dc3493923482f07822329ed19e8244eff582cc204f8554c3620c3fd01829055518181527f95c861c95c60378d96c8e5f74bed2f87e222f096e0a7ff8736bc6e48b9bc13f69060200160405180910390a150565b61086183838360405180602001604052806000815250611100565b601154601254610c7c9042612638565b1115610c8e5742601255610c8e610f0b565b7f94af253de69550dc89f661ee40c3f9ca744b642089664d2d8f145f393a37903c601254604051610cc191815260200190565b60405180910390a15050565b6000610cd860085490565b8210610d3b5760405162461bcd60e51b815260206004820152602c60248201527f455243373231456e756d657261626c653a20676c6f62616c20696e646578206f60448201526b7574206f6620626f756e647360a01b60648201526084016107c0565b60088281548110610d4e57610d4e61264f565b90600052602060002001549050919050565b6000816001600160a01b0316610d7584610d86565b6001600160a01b0316149392505050565b6000818152600260205260408120546001600160a01b03168061068c5760405162461bcd60e51b8152602060048201526018602482015277115490cdcc8c4e881a5b9d985b1a59081d1bdad95b88125160421b60448201526064016107c0565b6000606060115460125442610dfb9190612638565b1191509250929050565b60006001600160a01b038216610e6f5760405162461bcd60e51b815260206004820152602960248201527f4552433732313a2061646472657373207a65726f206973206e6f7420612076616044820152683634b21037bbb732b960b91b60648201526084016107c0565b506001600160a01b031660009081526003602052604090205490565b610e936114ba565b610e9d600061186c565b565b610ea76114ba565b6000828152600f6020526040902060019081018054839260ff1990911690836004811115610ed757610ed761260c565b02179055507f862e93a44de3578a10562508e4206814b11d4c3a4992c83b481c6100d07bc1b581604051610cc19190612665565b610f136114ba565b60005b600e548110156110a1576000600e8281548110610f3557610f3561264f565b600091825260208220015491506000828152600f602052604090206001015460ff166004811115610f6857610f6861260c565b141561108e576000610f79600c5490565b6000818152600260205260409020549091506001600160a01b031615610fd85760405162461bcd60e51b8152602060048201526014602482015273546f6b656e20616c72656164792065786973747360601b60448201526064016107c0565b6000828152600f602052604090206001015461010090046001600160a01b031661100281836118be565b611010600c80546001019055565b61101982611138565b5060008281526010602090815260409182902080546001600160a01b0319166001600160a01b03851690811790915591519182527f2b6f69d559abc93b78b0d468740be7b8aa9bcb6a39fda6376e946cb01aed809f910160405180910390a16110828282611142565b61108b816118d8565b50505b50806110998161268d565b915050610f16565b50565b6060600180546106a19061253f565b6110be338383611a66565b5050565b6000806110ce83610e05565b90506000811161068c5760405162461bcd60e51b81526004016107c0906126a8565b60006110fb600c5490565b905090565b61110a3383611514565b6111265760405162461bcd60e51b81526004016107c09061257a565b61113284848484611b35565b50505050565b606061068c6108a4565b61114c8282610d60565b6111af5760405162461bcd60e51b815260206004820152602e60248201527f596f752063616e206f6e6c792061737369676e20706f696e747320746f20796f60448201526d3ab91037bbb7103a37b5b2b7399760911b60648201526084016107c0565b600082815260106020526040812060010180546105dc92906111d29084906126df565b925050819055506105dc600d60008282546111ed91906126df565b9091555050604080518381526001600160a01b03831660208201526105dc918101919091527fd7c236824feb9d39b4a052e9fbdb4ca22c53d1a04ee99be03514e3c408ad181890606001610cc1565b60008061124883610e05565b116112655760405162461bcd60e51b81526004016107c0906126a8565b6000611272836000610a70565b6000818152601060205260409020549091506001600160a01b0316156112f85760405162461bcd60e51b815260206004820152603560248201527f497420776173206e6f7420706f737369626c6520746f206765742072657761726044820152743239903837b4b73a3990313c903130b233b2a4b21760591b60648201526084016107c0565b60009081526010602052604090206001015492915050565b6113186114ba565b6001600160a01b03811661137d5760405162461bcd60e51b815260206004820152602660248201527f4f776e61626c653a206e6577206f776e657220697320746865207a65726f206160448201526564647265737360d01b60648201526084016107c0565b6110a18161186c565b60008061139233610e05565b9050600081116113b45760405162461bcd60e51b81526004016107c0906126a8565b60006113c1336000610a70565b9392505050565b60006001600160e01b0319821663780e9d6360e01b148061068c575061068c82611b68565b6000818152600260205260409020546001600160a01b03166110a15760405162461bcd60e51b8152602060048201526018602482015277115490cdcc8c4e881a5b9d985b1a59081d1bdad95b88125160421b60448201526064016107c0565b600081815260046020526040902080546001600160a01b0319166001600160a01b038416908117909155819061148182610d86565b6001600160a01b03167f8c5be1e5ebec7d5bd14f71427d1e84f3dd0314c0f7b2291e5b200ac8c7c3b92560405160405180910390a45050565b600b546001600160a01b03163314610e9d5760405162461bcd60e51b815260206004820181905260248201527f4f776e61626c653a2063616c6c6572206973206e6f7420746865206f776e657260448201526064016107c0565b60008061152083610d86565b9050806001600160a01b0316846001600160a01b0316148061156757506001600160a01b0380821660009081526005602090815260408083209388168352929052205460ff165b8061158b5750836001600160a01b031661158084610724565b6001600160a01b0316145b949350505050565b826001600160a01b03166115a682610d86565b6001600160a01b0316146115cc5760405162461bcd60e51b81526004016107c0906126f7565b6001600160a01b03821661162e5760405162461bcd60e51b8152602060048201526024808201527f4552433732313a207472616e7366657220746f20746865207a65726f206164646044820152637265737360e01b60648201526084016107c0565b61163b8383836001611bb8565b826001600160a01b031661164e82610d86565b6001600160a01b0316146116745760405162461bcd60e51b81526004016107c0906126f7565b600081815260046020908152604080832080546001600160a01b03199081169091556001600160a01b0387811680865260038552838620805460001901905590871680865283862080546001019055868652600290945282852080549092168417909155905184937fddf252ad1be2c89b69c2b068fc378daa952ba7f163c4a11628f55a4df523b3ef91a4505050565b606081516000141561172457505060408051602081019091526000815290565b6000604051806060016040528060408152602001612859604091399050600060038451600261175391906126df565b61175d919061273c565b61176890600461275e565b905060006117778260206126df565b67ffffffffffffffff81111561178f5761178f612423565b6040519080825280601f01601f1916602001820160405280156117b9576020820181803683370190505b509050818152600183018586518101602084015b818310156118275760039283018051603f601282901c811687015160f890811b8552600c83901c8216880151811b6001860152600683901c8216880151811b60028601529116860151901b938201939093526004016117cd565b60038951066001811461184157600281146118525761185e565b613d3d60f01b60011983015261185e565b603d60f81b6000198301525b509398975050505050505050565b600b80546001600160a01b038381166001600160a01b0319831681179093556040519116919082907f8be0079c531659141344cd1fd0a4f28419497f9722a3daafe3b4186f6b6457e090600090a35050565b6110be828260405180602001604052806000815250611c1b565b6118e06114ba565b6105dc7f00000000000000000000000000000000000000000000000000000000000000006001600160a01b03166370a08231611924600b546001600160a01b031690565b6040516001600160e01b031960e084901b1681526001600160a01b03909116600482015260240160206040518083038186803b15801561196357600080fd5b505afa158015611977573d6000803e3d6000fd5b505050506040513d601f19601f8201168201806040525081019061199b919061277d565b10156119e05760405162461bcd60e51b8152602060048201526014602482015273496e73756666696369656e742062616c616e636560601b60448201526064016107c0565b60405163413918c960e11b81526001600160a01b0382811660048301526105dc60248301527f00000000000000000000000000000000000000000000000000000000000000001690638272319290604401600060405180830381600087803b158015611a4b57600080fd5b505af1158015611a5f573d6000803e3d6000fd5b5050505050565b816001600160a01b0316836001600160a01b03161415611ac85760405162461bcd60e51b815260206004820152601960248201527f4552433732313a20617070726f766520746f2063616c6c65720000000000000060448201526064016107c0565b6001600160a01b03838116600081815260056020908152604080832094871680845294825291829020805460ff191686151590811790915591519182527f17307eab39ab6107e8899845ad3d59bd9653f200f220920489ca2b5937696c31910160405180910390a3505050565b611b40848484611593565b611b4c84848484611c4e565b6111325760405162461bcd60e51b81526004016107c090612796565b60006001600160e01b031982166380ac58cd60e01b1480611b9957506001600160e01b03198216635b5e139f60e01b145b8061068c57506301ffc9a760e01b6001600160e01b031983161461068c565b6001600160a01b03841615611c0f5760405162461bcd60e51b815260206004820152601860248201527f426164676520746f6b656e20697320736f756c626f756e64000000000000000060448201526064016107c0565b61113284848484611d5b565b611c258383611e88565b611c326000848484611c4e565b6108615760405162461bcd60e51b81526004016107c090612796565b60006001600160a01b0384163b15611d5057604051630a85bd0160e11b81526001600160a01b0385169063150b7a0290611c929033908990889088906004016127e8565b602060405180830381600087803b158015611cac57600080fd5b505af1925050508015611cdc575060408051601f3d908101601f19168201909252611cd991810190612825565b60015b611d36573d808015611d0a576040519150601f19603f3d011682016040523d82523d6000602084013e611d0f565b606091505b508051611d2e5760405162461bcd60e51b81526004016107c090612796565b805181602001fd5b6001600160e01b031916630a85bd0160e11b14905061158b565b506001949350505050565b6001811115611dca5760405162461bcd60e51b815260206004820152603560248201527f455243373231456e756d657261626c653a20636f6e7365637574697665207472604482015274185b9cd9995c9cc81b9bdd081cdd5c1c1bdc9d1959605a1b60648201526084016107c0565b816001600160a01b038516611e2657611e2181600880546000838152600960205260408120829055600182018355919091527ff3f7a9fe364faab93b216da50a3214154f22a0a2b415b23a84c8169e8b636ee30155565b611e49565b836001600160a01b0316856001600160a01b031614611e4957611e498582612021565b6001600160a01b038416611e6557611e60816120be565b611a5f565b846001600160a01b0316846001600160a01b031614611a5f57611a5f848261216d565b6001600160a01b038216611ede5760405162461bcd60e51b815260206004820181905260248201527f4552433732313a206d696e7420746f20746865207a65726f206164647265737360448201526064016107c0565b6000818152600260205260409020546001600160a01b031615611f435760405162461bcd60e51b815260206004820152601c60248201527f4552433732313a20746f6b656e20616c7265616479206d696e7465640000000060448201526064016107c0565b611f51600083836001611bb8565b6000818152600260205260409020546001600160a01b031615611fb65760405162461bcd60e51b815260206004820152601c60248201527f4552433732313a20746f6b656e20616c7265616479206d696e7465640000000060448201526064016107c0565b6001600160a01b038216600081815260036020908152604080832080546001019055848352600290915280822080546001600160a01b0319168417905551839291907fddf252ad1be2c89b69c2b068fc378daa952ba7f163c4a11628f55a4df523b3ef908290a45050565b6000600161202e84610e05565b6120389190612638565b60008381526007602052604090205490915080821461208b576001600160a01b03841660009081526006602090815260408083208584528252808320548484528184208190558352600790915290208190555b5060009182526007602090815260408084208490556001600160a01b039094168352600681528383209183525290812055565b6008546000906120d090600190612638565b600083815260096020526040812054600880549394509092849081106120f8576120f861264f565b9060005260206000200154905080600883815481106121195761211961264f565b600091825260208083209091019290925582815260099091526040808220849055858252812055600880548061215157612151612842565b6001900381819060005260206000200160009055905550505050565b600061217883610e05565b6001600160a01b039093166000908152600660209081526040808320868452825280832085905593825260079052919091209190915550565b6001600160e01b0319811681146110a157600080fd5b6000602082840312156121d957600080fd5b81356113c1816121b1565b60005b838110156121ff5781810151838201526020016121e7565b838111156111325750506000910152565b600081518084526122288160208601602086016121e4565b601f01601f19169290920160200192915050565b6020815260006113c16020830184612210565b60006020828403121561226157600080fd5b5035919050565b80356001600160a01b038116811461227f57600080fd5b919050565b6000806040838503121561229757600080fd5b6122a083612268565b946020939093013593505050565b6000806000606084860312156122c357600080fd5b6122cc84612268565b92506122da60208501612268565b9150604084013590509250925092565b600080602083850312156122fd57600080fd5b823567ffffffffffffffff8082111561231557600080fd5b818501915085601f83011261232957600080fd5b81358181111561233857600080fd5b86602082850101111561234a57600080fd5b60209290920196919550909350505050565b6000806040838503121561236f57600080fd5b8235915061237f60208401612268565b90509250929050565b821515815260406020820152600061158b6040830184612210565b6000602082840312156123b557600080fd5b6113c182612268565b600080604083850312156123d157600080fd5b823591506020830135600581106123e757600080fd5b809150509250929050565b6000806040838503121561240557600080fd5b61240e83612268565b9150602083013580151581146123e757600080fd5b634e487b7160e01b600052604160045260246000fd5b6000806000806080858703121561244f57600080fd5b61245885612268565b935061246660208601612268565b925060408501359150606085013567ffffffffffffffff8082111561248a57600080fd5b818701915087601f83011261249e57600080fd5b8135818111156124b0576124b0612423565b604051601f8201601f19908116603f011681019083821181831017156124d8576124d8612423565b816040528281528a60208487010111156124f157600080fd5b82602086016020830137600060208483010152809550505050505092959194509250565b6000806040838503121561252857600080fd5b61253183612268565b915061237f60208401612268565b600181811c9082168061255357607f821691505b6020821081141561257457634e487b7160e01b600052602260045260246000fd5b50919050565b6020808252602d908201527f4552433732313a2063616c6c6572206973206e6f7420746f6b656e206f776e6560408201526c1c881bdc88185c1c1c9bdd9959609a1b606082015260800190565b7f646174613a696d6167652f7376672b786d6c3b6261736536342c0000000000008152600082516125ff81601a8501602087016121e4565b91909101601a0192915050565b634e487b7160e01b600052602160045260246000fd5b634e487b7160e01b600052601160045260246000fd5b60008282101561264a5761264a612622565b500390565b634e487b7160e01b600052603260045260246000fd5b602081016005831061268757634e487b7160e01b600052602160045260246000fd5b91905290565b60006000198214156126a1576126a1612622565b5060010190565b60208082526018908201527f4e6f20746f6b656e206f776e65642062792073656e6465720000000000000000604082015260600190565b600082198211156126f2576126f2612622565b500190565b60208082526025908201527f4552433732313a207472616e736665722066726f6d20696e636f72726563742060408201526437bbb732b960d91b606082015260800190565b60008261275957634e487b7160e01b600052601260045260246000fd5b500490565b600081600019048311821515161561277857612778612622565b500290565b60006020828403121561278f57600080fd5b5051919050565b60208082526032908201527f4552433732313a207472616e7366657220746f206e6f6e20455243373231526560408201527131b2b4bb32b91034b6b83632b6b2b73a32b960711b606082015260800190565b6001600160a01b038581168252841660208201526040810183905260806060820181905260009061281b90830184612210565b9695505050505050565b60006020828403121561283757600080fd5b81516113c1816121b1565b634e487b7160e01b600052603160045260246000fdfe4142434445464748494a4b4c4d4e4f505152535455565758595a6162636465666768696a6b6c6d6e6f707172737475767778797a303132333435363738392b2fa2646970667358221220627f1646b58c0a2305f8881a9c16ff94000ef4f9475ae45d107538d2f63608ce64736f6c63430008090033",
  "linkReferences": {},
  "deployedLinkReferences": {}
}