{
  "_format": "hh-sol-artifact-1",
  "contractName": "NomadBadge",
  "sourceName": "contracts/NomadBadge.sol",
  "abi": [
    {
      "inputs": [
        {
          "internalType": "address",
          "name": "erc20Address",
          "type": "address"
        }
      ],
      "stateMutability": "nonpayable",
      "type": "constructor"
    },
    {
      "anonymous": false,
      "inputs": [
        {
          "indexed": true,
          "internalType": "address",
          "name": "owner",
          "type": "address"
        },
        {
          "indexed": true,
          "internalType": "address",
          "name": "approved",
          "type": "address"
        },
        {
          "indexed": true,
          "internalType": "uint256",
          "name": "tokenId",
          "type": "uint256"
        }
      ],
      "name": "Approval",
      "type": "event"
    },
    {
      "anonymous": false,
      "inputs": [
        {
          "indexed": true,
          "internalType": "address",
          "name": "owner",
          "type": "address"
        },
        {
          "indexed": true,
          "internalType": "address",
          "name": "operator",
          "type": "address"
        },
        {
          "indexed": false,
          "internalType": "bool",
          "name": "approved",
          "type": "bool"
        }
      ],
      "name": "ApprovalForAll",
      "type": "event"
    },
    {
      "anonymous": false,
      "inputs": [
        {
          "indexed": false,
          "internalType": "uint256",
          "name": "flightId",
          "type": "uint256"
        }
      ],
      "name": "FlightAdded",
      "type": "event"
    },
    {
      "anonymous": false,
      "inputs": [
        {
          "indexed": false,
          "internalType": "enum NomadBadge.FlightRewardStatus",
          "name": "status",
          "type": "uint8"
        }
      ],
      "name": "FlightStatusUpdated",
      "type": "event"
    },
    {
      "anonymous": false,
      "inputs": [
        {
          "indexed": true,
          "internalType": "address",
          "name": "previousOwner",
          "type": "address"
        },
        {
          "indexed": true,
          "internalType": "address",
          "name": "newOwner",
          "type": "address"
        }
      ],
      "name": "OwnershipTransferred",
      "type": "event"
    },
    {
      "anonymous": false,
      "inputs": [
        {
          "indexed": false,
          "internalType": "uint256",
          "name": "badgeId",
          "type": "uint256"
        },
        {
          "indexed": false,
          "internalType": "address",
          "name": "to",
          "type": "address"
        },
        {
          "indexed": false,
          "internalType": "uint256",
          "name": "points",
          "type": "uint256"
        }
      ],
      "name": "RewardsPointsAssigned",
      "type": "event"
    },
    {
      "anonymous": false,
      "inputs": [
        {
          "indexed": false,
          "internalType": "address",
          "name": "to",
          "type": "address"
        }
      ],
      "name": "RewardsProvided",
      "type": "event"
    },
    {
      "anonymous": false,
      "inputs": [
        {
          "indexed": true,
          "internalType": "address",
          "name": "from",
          "type": "address"
        },
        {
          "indexed": true,
          "internalType": "address",
          "name": "to",
          "type": "address"
        },
        {
          "indexed": true,
          "internalType": "uint256",
          "name": "tokenId",
          "type": "uint256"
        }
      ],
      "name": "Transfer",
      "type": "event"
    },
    {
      "inputs": [],
      "name": "DEFAULT_REWARD_POINTS",
      "outputs": [
        {
          "internalType": "uint256",
          "name": "",
          "type": "uint256"
        }
      ],
      "stateMutability": "view",
      "type": "function"
    },
    {
      "inputs": [
        {
          "internalType": "uint256",
          "name": "flightId",
          "type": "uint256"
        },
        {
          "internalType": "address",
          "name": "passenger",
          "type": "address"
        }
      ],
      "name": "addFlight",
      "outputs": [],
      "stateMutability": "payable",
      "type": "function"
    },
    {
      "inputs": [
        {
          "internalType": "address",
          "name": "to",
          "type": "address"
        },
        {
          "internalType": "uint256",
          "name": "tokenId",
          "type": "uint256"
        }
      ],
      "name": "approve",
      "outputs": [],
      "stateMutability": "nonpayable",
      "type": "function"
    },
    {
      "inputs": [
        {
          "internalType": "uint256",
          "name": "badgeId",
          "type": "uint256"
        },
        {
          "internalType": "address",
          "name": "passenger",
          "type": "address"
        }
      ],
      "name": "assignPoints",
      "outputs": [],
      "stateMutability": "nonpayable",
      "type": "function"
    },
    {
      "inputs": [
        {
          "internalType": "address",
          "name": "owner",
          "type": "address"
        }
      ],
      "name": "balanceOf",
      "outputs": [
        {
          "internalType": "uint256",
          "name": "",
          "type": "uint256"
        }
      ],
      "stateMutability": "view",
      "type": "function"
    },
    {
      "inputs": [],
      "name": "constructTokenURI",
      "outputs": [
        {
          "internalType": "string",
          "name": "",
          "type": "string"
        }
      ],
      "stateMutability": "pure",
      "type": "function"
    },
    {
      "inputs": [
        {
          "internalType": "uint256",
          "name": "tokenId",
          "type": "uint256"
        }
      ],
      "name": "getApproved",
      "outputs": [
        {
          "internalType": "address",
          "name": "",
          "type": "address"
        }
      ],
      "stateMutability": "view",
      "type": "function"
    },
    {
      "inputs": [
        {
          "internalType": "uint256",
          "name": "badgeId",
          "type": "uint256"
        }
      ],
      "name": "getPoints",
      "outputs": [
        {
          "internalType": "uint256",
          "name": "",
          "type": "uint256"
        }
      ],
      "stateMutability": "view",
      "type": "function"
    },
    {
      "inputs": [],
      "name": "getTotalBadgesMinted",
      "outputs": [
        {
          "internalType": "uint256",
          "name": "",
          "type": "uint256"
        }
      ],
      "stateMutability": "view",
      "type": "function"
    },
    {
      "inputs": [],
      "name": "getTotalPointsDistributed",
      "outputs": [
        {
          "internalType": "uint256",
          "name": "",
          "type": "uint256"
        }
      ],
      "stateMutability": "view",
      "type": "function"
    },
    {
      "inputs": [
        {
          "internalType": "address",
          "name": "owner",
          "type": "address"
        },
        {
          "internalType": "address",
          "name": "operator",
          "type": "address"
        }
      ],
      "name": "isApprovedForAll",
      "outputs": [
        {
          "internalType": "bool",
          "name": "",
          "type": "bool"
        }
      ],
      "stateMutability": "view",
      "type": "function"
    },
    {
      "inputs": [
        {
          "internalType": "uint256",
          "name": "badgeId",
          "type": "uint256"
        },
        {
          "internalType": "address",
          "name": "owner",
          "type": "address"
        }
      ],
      "name": "isOwner",
      "outputs": [
        {
          "internalType": "bool",
          "name": "",
          "type": "bool"
        }
      ],
      "stateMutability": "view",
      "type": "function"
    },
    {
      "inputs": [],
      "name": "name",
      "outputs": [
        {
          "internalType": "string",
          "name": "",
          "type": "string"
        }
      ],
      "stateMutability": "view",
      "type": "function"
    },
    {
      "inputs": [],
      "name": "owner",
      "outputs": [
        {
          "internalType": "address",
          "name": "",
          "type": "address"
        }
      ],
      "stateMutability": "view",
      "type": "function"
    },
    {
      "inputs": [
        {
          "internalType": "uint256",
          "name": "tokenId",
          "type": "uint256"
        }
      ],
      "name": "ownerOf",
      "outputs": [
        {
          "internalType": "address",
          "name": "",
          "type": "address"
        }
      ],
      "stateMutability": "view",
      "type": "function"
    },
    {
      "inputs": [],
      "name": "renounceOwnership",
      "outputs": [],
      "stateMutability": "nonpayable",
      "type": "function"
    },
    {
      "inputs": [
        {
          "internalType": "address",
          "name": "passenger",
          "type": "address"
        }
      ],
      "name": "runRewardProcess",
      "outputs": [],
      "stateMutability": "nonpayable",
      "type": "function"
    },
    {
      "inputs": [
        {
          "internalType": "address",
          "name": "from",
          "type": "address"
        },
        {
          "internalType": "address",
          "name": "to",
          "type": "address"
        },
        {
          "internalType": "uint256",
          "name": "tokenId",
          "type": "uint256"
        }
      ],
      "name": "safeTransferFrom",
      "outputs": [],
      "stateMutability": "nonpayable",
      "type": "function"
    },
    {
      "inputs": [
        {
          "internalType": "address",
          "name": "from",
          "type": "address"
        },
        {
          "internalType": "address",
          "name": "to",
          "type": "address"
        },
        {
          "internalType": "uint256",
          "name": "tokenId",
          "type": "uint256"
        },
        {
          "internalType": "bytes",
          "name": "data",
          "type": "bytes"
        }
      ],
      "name": "safeTransferFrom",
      "outputs": [],
      "stateMutability": "nonpayable",
      "type": "function"
    },
    {
      "inputs": [
        {
          "internalType": "address",
          "name": "operator",
          "type": "address"
        },
        {
          "internalType": "bool",
          "name": "approved",
          "type": "bool"
        }
      ],
      "name": "setApprovalForAll",
      "outputs": [],
      "stateMutability": "nonpayable",
      "type": "function"
    },
    {
      "inputs": [
        {
          "internalType": "bytes4",
          "name": "interfaceId",
          "type": "bytes4"
        }
      ],
      "name": "supportsInterface",
      "outputs": [
        {
          "internalType": "bool",
          "name": "",
          "type": "bool"
        }
      ],
      "stateMutability": "view",
      "type": "function"
    },
    {
      "inputs": [],
      "name": "symbol",
      "outputs": [
        {
          "internalType": "string",
          "name": "",
          "type": "string"
        }
      ],
      "stateMutability": "view",
      "type": "function"
    },
    {
      "inputs": [
        {
          "internalType": "uint256",
          "name": "index",
          "type": "uint256"
        }
      ],
      "name": "tokenByIndex",
      "outputs": [
        {
          "internalType": "uint256",
          "name": "",
          "type": "uint256"
        }
      ],
      "stateMutability": "view",
      "type": "function"
    },
    {
      "inputs": [
        {
          "internalType": "address",
          "name": "owner",
          "type": "address"
        },
        {
          "internalType": "uint256",
          "name": "index",
          "type": "uint256"
        }
      ],
      "name": "tokenOfOwnerByIndex",
      "outputs": [
        {
          "internalType": "uint256",
          "name": "",
          "type": "uint256"
        }
      ],
      "stateMutability": "view",
      "type": "function"
    },
    {
      "inputs": [
        {
          "internalType": "uint256",
          "name": "badgeId",
          "type": "uint256"
        }
      ],
      "name": "tokenURI",
      "outputs": [
        {
          "internalType": "string",
          "name": "",
          "type": "string"
        }
      ],
      "stateMutability": "pure",
      "type": "function"
    },
    {
      "inputs": [],
      "name": "totalSupply",
      "outputs": [
        {
          "internalType": "uint256",
          "name": "",
          "type": "uint256"
        }
      ],
      "stateMutability": "view",
      "type": "function"
    },
    {
      "inputs": [
        {
          "internalType": "address",
          "name": "from",
          "type": "address"
        },
        {
          "internalType": "address",
          "name": "to",
          "type": "address"
        },
        {
          "internalType": "uint256",
          "name": "tokenId",
          "type": "uint256"
        }
      ],
      "name": "transferFrom",
      "outputs": [],
      "stateMutability": "nonpayable",
      "type": "function"
    },
    {
      "inputs": [
        {
          "internalType": "address",
          "name": "newOwner",
          "type": "address"
        }
      ],
      "name": "transferOwnership",
      "outputs": [],
      "stateMutability": "nonpayable",
      "type": "function"
    },
    {
      "inputs": [
        {
          "internalType": "uint256",
          "name": "flightId",
          "type": "uint256"
        },
        {
          "internalType": "enum NomadBadge.FlightRewardStatus",
          "name": "status",
          "type": "uint8"
        }
      ],
      "name": "updateFlightStatus",
      "outputs": [],
      "stateMutability": "nonpayable",
      "type": "function"
    }
  ],
  "bytecode": "0x60806040526000600e553480156200001657600080fd5b50604051620029df380380620029df8339810160408190526200003991620001db565b604080518082018252600a8152694e6f6d6164426164676560b01b6020808301918252835180850190945260038452624e424760e81b908401528151919291620000869160009162000135565b5080516200009c90600190602084019062000135565b505050620000b9620000b3620000df60201b60201c565b620000e3565b600c80546001600160a01b0319166001600160a01b03929092169190911790556200024a565b3390565b600b80546001600160a01b038381166001600160a01b0319831681179093556040519116919082907f8be0079c531659141344cd1fd0a4f28419497f9722a3daafe3b4186f6b6457e090600090a35050565b82805462000143906200020d565b90600052602060002090601f016020900481019282620001675760008555620001b2565b82601f106200018257805160ff1916838001178555620001b2565b82800160010185558215620001b2579182015b82811115620001b257825182559160200191906001019062000195565b50620001c0929150620001c4565b5090565b5b80821115620001c05760008155600101620001c5565b600060208284031215620001ee57600080fd5b81516001600160a01b03811681146200020657600080fd5b9392505050565b600181811c908216806200022257607f821691505b602082108114156200024457634e487b7160e01b600052602260045260246000fd5b50919050565b612785806200025a6000396000f3fe6080604052600436106101c25760003560e01c80636352211e116100f7578063a22cb46511610095578063c87b56dd11610064578063c87b56dd146104c7578063e985e9c5146104e7578063eb6039c614610530578063f2fde38b1461055057600080fd5b8063a22cb46514610452578063a967eee414610472578063b10b22f414610492578063b88d4fde146104a757600080fd5b80637c89b580116100d15780637c89b580146103e95780638da5cb5b1461040957806395d89b411461042757806396fb21ce1461043c57600080fd5b80636352211e1461039457806370a08231146103b4578063715018a6146103d457600080fd5b80632d3715081161016457806342842e0e1161013e57806342842e0e146103145780634da3792f146103345780634f6ccce7146103545780635a5d096c1461037457600080fd5b80632d371508146102cc5780632f745c59146102e15780633f408da21461030157600080fd5b8063095ea7b3116101a0578063095ea7b31461025657806318160ddd1461027857806323b872dd1461029757806328a6f29d146102b757600080fd5b806301ffc9a7146101c757806306fdde03146101fc578063081812fc1461021e575b600080fd5b3480156101d357600080fd5b506101e76101e2366004612068565b610570565b60405190151581526020015b60405180910390f35b34801561020857600080fd5b50610211610581565b6040516101f391906120e4565b34801561022a57600080fd5b5061023e6102393660046120f7565b610613565b6040516001600160a01b0390911681526020016101f3565b34801561026257600080fd5b5061027661027136600461212c565b61063a565b005b34801561028457600080fd5b506008545b6040519081526020016101f3565b3480156102a357600080fd5b506102766102b2366004612156565b610755565b3480156102c357600080fd5b50600e54610289565b3480156102d857600080fd5b50610211610786565b3480156102ed57600080fd5b506102896102fc36600461212c565b610952565b61027661030f366004612192565b6109e8565b34801561032057600080fd5b5061027661032f366004612156565b610b60565b34801561034057600080fd5b5061027661034f3660046121be565b610b7b565b34801561036057600080fd5b5061028961036f3660046120f7565b610d1a565b34801561038057600080fd5b506101e761038f366004612192565b610dad565b3480156103a057600080fd5b5061023e6103af3660046120f7565b610dd3565b3480156103c057600080fd5b506102896103cf3660046121be565b610e33565b3480156103e057600080fd5b50610276610eb9565b3480156103f557600080fd5b506102766104043660046121d9565b610ecd565b34801561041557600080fd5b50600b546001600160a01b031661023e565b34801561043357600080fd5b50610211610f45565b34801561044857600080fd5b506102896103e881565b34801561045e57600080fd5b5061027661046d36600461220d565b610f54565b34801561047e57600080fd5b5061028961048d3660046120f7565b610f5f565b34801561049e57600080fd5b50610289610ff8565b3480156104b357600080fd5b506102766104c2366004612254565b611008565b3480156104d357600080fd5b506102116104e23660046120f7565b611040565b3480156104f357600080fd5b506101e7610502366004612330565b6001600160a01b03918216600090815260056020908152604080832093909416825291909152205460ff1690565b34801561053c57600080fd5b5061027661054b366004612192565b61104a565b34801561055c57600080fd5b5061027661056b3660046121be565b61117a565b600061057b826111f3565b92915050565b6060600080546105909061235a565b80601f01602080910402602001604051908101604052809291908181526020018280546105bc9061235a565b80156106095780601f106105de57610100808354040283529160200191610609565b820191906000526020600020905b8154815290600101906020018083116105ec57829003601f168201915b5050505050905090565b600061061e82611218565b506000908152600460205260409020546001600160a01b031690565b600061064582610dd3565b9050806001600160a01b0316836001600160a01b031614156106b85760405162461bcd60e51b815260206004820152602160248201527f4552433732313a20617070726f76616c20746f2063757272656e74206f776e656044820152603960f91b60648201526084015b60405180910390fd5b336001600160a01b03821614806106d457506106d48133610502565b6107465760405162461bcd60e51b815260206004820152603d60248201527f4552433732313a20617070726f76652063616c6c6572206973206e6f7420746f60448201527f6b656e206f776e6572206f7220617070726f76656420666f7220616c6c00000060648201526084016106af565b6107508383611277565b505050565b61075f33826112e5565b61077b5760405162461bcd60e51b81526004016106af90612395565b610750838383611364565b6060600060405160200161090d907f3c73766720786d6c6e733d27687474703a2f2f7777772e77332e6f72672f323081527f30302f737667272076657273696f6e3d27312e3127206865696768743d273131602082015270181813903bb4b23a341e9398989818139f60791b60408201527f3c636972636c652063783d27353030272063793d273530302720723d2731353060518201527f272066696c6c3d276c61776e677265656e27207374726f6b653d2723303031316071820152751919139039ba3937b5b296bbb4b23a341e939913979f60511b60918201527f3c7265637420783d273630302720793d27323530272077696474683d2733353060a78201527f27206865696768743d27323530272066696c6c3d277465616c27202f3e00000060c78201527f3c706f6c79676f6e20706f696e74733d273830302c323030203935302c34303060e48201527f203635302c343030272066696c6c3d276f72616e676527202f3e203c2f737667610104820152601f60f91b6101248201526101250190565b60405160208183030381529060405290506000610929826114d5565b90508060405160200161093c91906123e2565b6040516020818303038152906040529250505090565b600061095d83610e33565b82106109bf5760405162461bcd60e51b815260206004820152602b60248201527f455243373231456e756d657261626c653a206f776e657220696e646578206f7560448201526a74206f6620626f756e647360a81b60648201526084016106af565b506001600160a01b03919091166000908152600660209081526040808320938352929052205490565b600082815260106020526040902054821415610a465760405162461bcd60e51b815260206004820152601960248201527f466c6967687420616c726561647920726567697374657265640000000000000060448201526064016106af565b604080516060810190915282815260208101600281526001600160a01b03831660209182015260008481526010825260409020825181559082015160018083018054909160ff1990911690836004811115610aa357610aa3612427565b0217905550604091820151600191820180546001600160a01b0390921661010002610100600160a81b0319909216919091179055600f805491820181556000527f8d1108e10bcb7c27dddfc02ed9d693a074039d026cf4ea4240b40f7d581ac80201839055518281527f95c861c95c60378d96c8e5f74bed2f87e222f096e0a7ff8736bc6e48b9bc13f69060200160405180910390a1610b5c60405180606001604052806027815260200161272960279139838361163d565b5050565b61075083838360405180602001604052806000815250611008565b610b83611684565b60005b600f54811015610b5c576000600f8281548110610ba557610ba561243d565b6000918252602082200154915060008281526010602052604090206001015460ff166004811115610bd857610bd8612427565b1415610d07576000610be9600d5490565b6000818152600260205260409020549091506001600160a01b031615610c485760405162461bcd60e51b8152602060048201526014602482015273546f6b656e20616c72656164792065786973747360601b60448201526064016106af565b610c5284826116de565b610c60600d80546001019055565b610c6981611040565b5060008181526011602090815260409182902080546001600160a01b0319166001600160a01b0388161790558151606081019092526029808352610cb692916126c090830139828661163d565b6040516001600160a01b03851681527f2b6f69d559abc93b78b0d468740be7b8aa9bcb6a39fda6376e946cb01aed809f9060200160405180910390a1610cfc818561104a565b610d05846116f8565b505b5080610d1281612469565b915050610b86565b6000610d2560085490565b8210610d885760405162461bcd60e51b815260206004820152602c60248201527f455243373231456e756d657261626c653a20676c6f62616c20696e646578206f60448201526b7574206f6620626f756e647360a01b60648201526084016106af565b60088281548110610d9b57610d9b61243d565b90600052602060002001549050919050565b6000816001600160a01b0316610dc284610dd3565b6001600160a01b0316149392505050565b6000818152600260205260408120546001600160a01b03168061057b5760405162461bcd60e51b8152602060048201526018602482015277115490cdcc8c4e881a5b9d985b1a59081d1bdad95b88125160421b60448201526064016106af565b60006001600160a01b038216610e9d5760405162461bcd60e51b815260206004820152602960248201527f4552433732313a2061646472657373207a65726f206973206e6f7420612076616044820152683634b21037bbb732b960b91b60648201526084016106af565b506001600160a01b031660009081526003602052604090205490565b610ec1611684565b610ecb600061184d565b565b610ed5611684565b600082815260106020526040902060019081018054839260ff1990911690836004811115610f0557610f05612427565b02179055507f862e93a44de3578a10562508e4206814b11d4c3a4992c83b481c6100d07bc1b581604051610f399190612484565b60405180910390a15050565b6060600180546105909061235a565b610b5c33838361189f565b6000818152601160205260408120546001600160a01b031615610fe25760405162461bcd60e51b815260206004820152603560248201527f497420776173206e6f7420706f737369626c6520746f206765742072657761726044820152743239903837b4b73a3990313c903130b233b2a4b21760591b60648201526084016106af565b5060009081526011602052604090206001015490565b6000611003600d5490565b905090565b61101233836112e5565b61102e5760405162461bcd60e51b81526004016106af90612395565b61103a8484848461196e565b50505050565b606061057b610786565b6110548282610dad565b6110b75760405162461bcd60e51b815260206004820152602e60248201527f596f752063616e206f6e6c792061737369676e20706f696e747320746f20796f60448201526d3ab91037bbb7103a37b5b2b7399760911b60648201526084016106af565b600082815260116020526040812060010180546103e892906110da9084906124ac565b925050819055506103e8600e60008282546110f591906124ac565b9091555050604080518381526001600160a01b03831660208201526103e88183015290517fd7c236824feb9d39b4a052e9fbdb4ca22c53d1a04ee99be03514e3c408ad18189181900360600190a1610b5c6040518060600160405280602b8152602001612695602b91396000848152601160205260409020600101546103e8906119a1565b611182611684565b6001600160a01b0381166111e75760405162461bcd60e51b815260206004820152602660248201527f4f776e61626c653a206e6577206f776e657220697320746865207a65726f206160448201526564647265737360d01b60648201526084016106af565b6111f08161184d565b50565b60006001600160e01b0319821663780e9d6360e01b148061057b575061057b826119e8565b6000818152600260205260409020546001600160a01b03166111f05760405162461bcd60e51b8152602060048201526018602482015277115490cdcc8c4e881a5b9d985b1a59081d1bdad95b88125160421b60448201526064016106af565b600081815260046020526040902080546001600160a01b0319166001600160a01b03841690811790915581906112ac82610dd3565b6001600160a01b03167f8c5be1e5ebec7d5bd14f71427d1e84f3dd0314c0f7b2291e5b200ac8c7c3b92560405160405180910390a45050565b6000806112f183610dd3565b9050806001600160a01b0316846001600160a01b0316148061133857506001600160a01b0380821660009081526005602090815260408083209388168352929052205460ff165b8061135c5750836001600160a01b031661135184610613565b6001600160a01b0316145b949350505050565b826001600160a01b031661137782610dd3565b6001600160a01b03161461139d5760405162461bcd60e51b81526004016106af906124c4565b6001600160a01b0382166113ff5760405162461bcd60e51b8152602060048201526024808201527f4552433732313a207472616e7366657220746f20746865207a65726f206164646044820152637265737360e01b60648201526084016106af565b61140c8383836001611a38565b826001600160a01b031661141f82610dd3565b6001600160a01b0316146114455760405162461bcd60e51b81526004016106af906124c4565b600081815260046020908152604080832080546001600160a01b03199081169091556001600160a01b0387811680865260038552838620805460001901905590871680865283862080546001019055868652600290945282852080549092168417909155905184937fddf252ad1be2c89b69c2b068fc378daa952ba7f163c4a11628f55a4df523b3ef91a4505050565b60608151600014156114f557505060408051602081019091526000815290565b60006040518060600160405280604081526020016126e9604091399050600060038451600261152491906124ac565b61152e9190612509565b61153990600461252b565b905060006115488260206124ac565b67ffffffffffffffff8111156115605761156061223e565b6040519080825280601f01601f19166020018201604052801561158a576020820181803683370190505b509050818152600183018586518101602084015b818310156115f85760039283018051603f601282901c811687015160f890811b8552600c83901c8216880151811b6001860152600683901c8216880151811b60028601529116860151901b9382019390935260040161159e565b60038951066001811461161257600281146116235761162f565b613d3d60f01b60011983015261162f565b603d60f81b6000198301525b509398975050505050505050565b6107508383836040516024016116559392919061254a565b60408051601f198184030181529190526020810180516001600160e01b031663038fd88960e31b179052611a9b565b600b546001600160a01b03163314610ecb5760405162461bcd60e51b815260206004820181905260248201527f4f776e61626c653a2063616c6c6572206973206e6f7420746865206f776e657260448201526064016106af565b610b5c828260405180602001604052806000815250611abc565b611700611684565b600c546103e8906001600160a01b03166370a08231611727600b546001600160a01b031690565b6040516001600160e01b031960e084901b1681526001600160a01b03909116600482015260240160206040518083038186803b15801561176657600080fd5b505afa15801561177a573d6000803e3d6000fd5b505050506040513d601f19601f8201168201806040525081019061179e919061257d565b10156117e35760405162461bcd60e51b8152602060048201526014602482015273496e73756666696369656e742062616c616e636560601b60448201526064016106af565b600c5460405163413918c960e11b81526001600160a01b0383811660048301526103e8602483015290911690638272319290604401600060405180830381600087803b15801561183257600080fd5b505af1158015611846573d6000803e3d6000fd5b5050505050565b600b80546001600160a01b038381166001600160a01b0319831681179093556040519116919082907f8be0079c531659141344cd1fd0a4f28419497f9722a3daafe3b4186f6b6457e090600090a35050565b816001600160a01b0316836001600160a01b031614156119015760405162461bcd60e51b815260206004820152601960248201527f4552433732313a20617070726f766520746f2063616c6c65720000000000000060448201526064016106af565b6001600160a01b03838116600081815260056020908152604080832094871680845294825291829020805460ff191686151590811790915591519182527f17307eab39ab6107e8899845ad3d59bd9653f200f220920489ca2b5937696c31910160405180910390a3505050565b611979848484611364565b61198584848484611aef565b61103a5760405162461bcd60e51b81526004016106af90612596565b6107508383836040516024016119b9939291906125e8565b60408051601f198184030181529190526020810180516001600160e01b031663ca47c4eb60e01b179052611a9b565b60006001600160e01b031982166380ac58cd60e01b1480611a1957506001600160e01b03198216635b5e139f60e01b145b8061057b57506301ffc9a760e01b6001600160e01b031983161461057b565b6001600160a01b03841615611a8f5760405162461bcd60e51b815260206004820152601860248201527f426164676520746f6b656e20697320736f756c626f756e64000000000000000060448201526064016106af565b61103a84848484611bfc565b80516a636f6e736f6c652e6c6f67602083016000808483855afa5050505050565b611ac68383611d29565b611ad36000848484611aef565b6107505760405162461bcd60e51b81526004016106af90612596565b60006001600160a01b0384163b15611bf157604051630a85bd0160e11b81526001600160a01b0385169063150b7a0290611b3390339089908890889060040161260d565b602060405180830381600087803b158015611b4d57600080fd5b505af1925050508015611b7d575060408051601f3d908101601f19168201909252611b7a9181019061264a565b60015b611bd7573d808015611bab576040519150601f19603f3d011682016040523d82523d6000602084013e611bb0565b606091505b508051611bcf5760405162461bcd60e51b81526004016106af90612596565b805181602001fd5b6001600160e01b031916630a85bd0160e11b14905061135c565b506001949350505050565b6001811115611c6b5760405162461bcd60e51b815260206004820152603560248201527f455243373231456e756d657261626c653a20636f6e7365637574697665207472604482015274185b9cd9995c9cc81b9bdd081cdd5c1c1bdc9d1959605a1b60648201526084016106af565b816001600160a01b038516611cc757611cc281600880546000838152600960205260408120829055600182018355919091527ff3f7a9fe364faab93b216da50a3214154f22a0a2b415b23a84c8169e8b636ee30155565b611cea565b836001600160a01b0316856001600160a01b031614611cea57611cea8582611ec2565b6001600160a01b038416611d0657611d0181611f5f565b611846565b846001600160a01b0316846001600160a01b03161461184657611846848261200e565b6001600160a01b038216611d7f5760405162461bcd60e51b815260206004820181905260248201527f4552433732313a206d696e7420746f20746865207a65726f206164647265737360448201526064016106af565b6000818152600260205260409020546001600160a01b031615611de45760405162461bcd60e51b815260206004820152601c60248201527f4552433732313a20746f6b656e20616c7265616479206d696e7465640000000060448201526064016106af565b611df2600083836001611a38565b6000818152600260205260409020546001600160a01b031615611e575760405162461bcd60e51b815260206004820152601c60248201527f4552433732313a20746f6b656e20616c7265616479206d696e7465640000000060448201526064016106af565b6001600160a01b038216600081815260036020908152604080832080546001019055848352600290915280822080546001600160a01b0319168417905551839291907fddf252ad1be2c89b69c2b068fc378daa952ba7f163c4a11628f55a4df523b3ef908290a45050565b60006001611ecf84610e33565b611ed99190612667565b600083815260076020526040902054909150808214611f2c576001600160a01b03841660009081526006602090815260408083208584528252808320548484528184208190558352600790915290208190555b5060009182526007602090815260408084208490556001600160a01b039094168352600681528383209183525290812055565b600854600090611f7190600190612667565b60008381526009602052604081205460088054939450909284908110611f9957611f9961243d565b906000526020600020015490508060088381548110611fba57611fba61243d565b6000918252602080832090910192909255828152600990915260408082208490558582528120556008805480611ff257611ff261267e565b6001900381819060005260206000200160009055905550505050565b600061201983610e33565b6001600160a01b039093166000908152600660209081526040808320868452825280832085905593825260079052919091209190915550565b6001600160e01b0319811681146111f057600080fd5b60006020828403121561207a57600080fd5b813561208581612052565b9392505050565b60005b838110156120a757818101518382015260200161208f565b8381111561103a5750506000910152565b600081518084526120d081602086016020860161208c565b601f01601f19169290920160200192915050565b60208152600061208560208301846120b8565b60006020828403121561210957600080fd5b5035919050565b80356001600160a01b038116811461212757600080fd5b919050565b6000806040838503121561213f57600080fd5b61214883612110565b946020939093013593505050565b60008060006060848603121561216b57600080fd5b61217484612110565b925061218260208501612110565b9150604084013590509250925092565b600080604083850312156121a557600080fd5b823591506121b560208401612110565b90509250929050565b6000602082840312156121d057600080fd5b61208582612110565b600080604083850312156121ec57600080fd5b8235915060208301356005811061220257600080fd5b809150509250929050565b6000806040838503121561222057600080fd5b61222983612110565b91506020830135801515811461220257600080fd5b634e487b7160e01b600052604160045260246000fd5b6000806000806080858703121561226a57600080fd5b61227385612110565b935061228160208601612110565b925060408501359150606085013567ffffffffffffffff808211156122a557600080fd5b818701915087601f8301126122b957600080fd5b8135818111156122cb576122cb61223e565b604051601f8201601f19908116603f011681019083821181831017156122f3576122f361223e565b816040528281528a602084870101111561230c57600080fd5b82602086016020830137600060208483010152809550505050505092959194509250565b6000806040838503121561234357600080fd5b61234c83612110565b91506121b560208401612110565b600181811c9082168061236e57607f821691505b6020821081141561238f57634e487b7160e01b600052602260045260246000fd5b50919050565b6020808252602d908201527f4552433732313a2063616c6c6572206973206e6f7420746f6b656e206f776e6560408201526c1c881bdc88185c1c1c9bdd9959609a1b606082015260800190565b7f646174613a696d6167652f7376672b786d6c3b6261736536342c00000000000081526000825161241a81601a85016020870161208c565b91909101601a0192915050565b634e487b7160e01b600052602160045260246000fd5b634e487b7160e01b600052603260045260246000fd5b634e487b7160e01b600052601160045260246000fd5b600060001982141561247d5761247d612453565b5060010190565b60208101600583106124a657634e487b7160e01b600052602160045260246000fd5b91905290565b600082198211156124bf576124bf612453565b500190565b60208082526025908201527f4552433732313a207472616e736665722066726f6d20696e636f72726563742060408201526437bbb732b960d91b606082015260800190565b60008261252657634e487b7160e01b600052601260045260246000fd5b500490565b600081600019048311821515161561254557612545612453565b500290565b60608152600061255d60608301866120b8565b6020830194909452506001600160a01b0391909116604090910152919050565b60006020828403121561258f57600080fd5b5051919050565b60208082526032908201527f4552433732313a207472616e7366657220746f206e6f6e20455243373231526560408201527131b2b4bb32b91034b6b83632b6b2b73a32b960711b606082015260800190565b6060815260006125fb60608301866120b8565b60208301949094525060400152919050565b6001600160a01b0385811682528416602082015260408101839052608060608201819052600090612640908301846120b8565b9695505050505050565b60006020828403121561265c57600080fd5b815161208581612052565b60008282101561267957612679612453565b500390565b634e487b7160e01b600052603160045260246000fdfe506f696e74732061737369676e6564203d202573207c20746f74616c20616d6f756e74206f66203d20257342616467652067656e657261746564206964203d20257320746f2070617373656e676572203d2025734142434445464748494a4b4c4d4e4f505152535455565758595a6162636465666768696a6b6c6d6e6f707172737475767778797a303132333435363738392b2f416464696e6720666c69676874206964203d20257320746f207061782061646472657373202573a2646970667358221220ef6d1171d55cca0fabe5594f5c42a672c36ad99f193844a5fe3e5502247470d064736f6c63430008090033",
  "linkReferences": {},
  "deployedLinkReferences": {}
}