{
  "_format": "hh-sol-artifact-1",
  "contractName": "NomadRewardToken",
  "sourceName": "contracts/NomadRewardToken.sol",
  "abi": [
    {
      "inputs": [],
      "stateMutability": "nonpayable",
      "type": "constructor"
    },
    {
      "anonymous": false,
      "inputs": [
        {
          "indexed": true,
          "internalType": "address",
          "name": "owner",
          "type": "address"
        },
        {
          "indexed": true,
          "internalType": "address",
          "name": "spender",
          "type": "address"
        },
        {
          "indexed": false,
          "internalType": "uint256",
          "name": "value",
          "type": "uint256"
        }
      ],
      "name": "Approval",
      "type": "event"
    },
    {
      "anonymous": false,
      "inputs": [
        {
          "indexed": true,
          "internalType": "address",
          "name": "previousOwner",
          "type": "address"
        },
        {
          "indexed": true,
          "internalType": "address",
          "name": "newOwner",
          "type": "address"
        }
      ],
      "name": "OwnershipTransferred",
      "type": "event"
    },
    {
      "anonymous": false,
      "inputs": [
        {
          "indexed": true,
          "internalType": "address",
          "name": "from",
          "type": "address"
        },
        {
          "indexed": true,
          "internalType": "address",
          "name": "to",
          "type": "address"
        },
        {
          "indexed": false,
          "internalType": "uint256",
          "name": "value",
          "type": "uint256"
        }
      ],
      "name": "Transfer",
      "type": "event"
    },
    {
      "inputs": [
        {
          "internalType": "address",
          "name": "owner",
          "type": "address"
        },
        {
          "internalType": "address",
          "name": "spender",
          "type": "address"
        }
      ],
      "name": "allowance",
      "outputs": [
        {
          "internalType": "uint256",
          "name": "",
          "type": "uint256"
        }
      ],
      "stateMutability": "view",
      "type": "function"
    },
    {
      "inputs": [
        {
          "internalType": "address",
          "name": "spender",
          "type": "address"
        },
        {
          "internalType": "uint256",
          "name": "amount",
          "type": "uint256"
        }
      ],
      "name": "approve",
      "outputs": [
        {
          "internalType": "bool",
          "name": "",
          "type": "bool"
        }
      ],
      "stateMutability": "nonpayable",
      "type": "function"
    },
    {
      "inputs": [
        {
          "internalType": "address",
          "name": "account",
          "type": "address"
        }
      ],
      "name": "balanceOf",
      "outputs": [
        {
          "internalType": "uint256",
          "name": "",
          "type": "uint256"
        }
      ],
      "stateMutability": "view",
      "type": "function"
    },
    {
      "inputs": [
        {
          "internalType": "uint256",
          "name": "amount",
          "type": "uint256"
        }
      ],
      "name": "burn",
      "outputs": [],
      "stateMutability": "nonpayable",
      "type": "function"
    },
    {
      "inputs": [
        {
          "internalType": "address",
          "name": "account",
          "type": "address"
        },
        {
          "internalType": "uint256",
          "name": "amount",
          "type": "uint256"
        }
      ],
      "name": "burnFrom",
      "outputs": [],
      "stateMutability": "nonpayable",
      "type": "function"
    },
    {
      "inputs": [],
      "name": "decimals",
      "outputs": [
        {
          "internalType": "uint8",
          "name": "",
          "type": "uint8"
        }
      ],
      "stateMutability": "view",
      "type": "function"
    },
    {
      "inputs": [
        {
          "internalType": "address",
          "name": "spender",
          "type": "address"
        },
        {
          "internalType": "uint256",
          "name": "subtractedValue",
          "type": "uint256"
        }
      ],
      "name": "decreaseAllowance",
      "outputs": [
        {
          "internalType": "bool",
          "name": "",
          "type": "bool"
        }
      ],
      "stateMutability": "nonpayable",
      "type": "function"
    },
    {
      "inputs": [
        {
          "internalType": "address",
          "name": "spender",
          "type": "address"
        },
        {
          "internalType": "uint256",
          "name": "addedValue",
          "type": "uint256"
        }
      ],
      "name": "increaseAllowance",
      "outputs": [
        {
          "internalType": "bool",
          "name": "",
          "type": "bool"
        }
      ],
      "stateMutability": "nonpayable",
      "type": "function"
    },
    {
      "inputs": [],
      "name": "name",
      "outputs": [
        {
          "internalType": "string",
          "name": "",
          "type": "string"
        }
      ],
      "stateMutability": "view",
      "type": "function"
    },
    {
      "inputs": [],
      "name": "owner",
      "outputs": [
        {
          "internalType": "address",
          "name": "",
          "type": "address"
        }
      ],
      "stateMutability": "view",
      "type": "function"
    },
    {
      "inputs": [],
      "name": "renounceOwnership",
      "outputs": [],
      "stateMutability": "nonpayable",
      "type": "function"
    },
    {
      "inputs": [],
      "name": "symbol",
      "outputs": [
        {
          "internalType": "string",
          "name": "",
          "type": "string"
        }
      ],
      "stateMutability": "view",
      "type": "function"
    },
    {
      "inputs": [],
      "name": "totalSupply",
      "outputs": [
        {
          "internalType": "uint256",
          "name": "",
          "type": "uint256"
        }
      ],
      "stateMutability": "view",
      "type": "function"
    },
    {
      "inputs": [
        {
          "internalType": "address",
          "name": "to",
          "type": "address"
        },
        {
          "internalType": "uint256",
          "name": "amount",
          "type": "uint256"
        }
      ],
      "name": "transfer",
      "outputs": [
        {
          "internalType": "bool",
          "name": "",
          "type": "bool"
        }
      ],
      "stateMutability": "nonpayable",
      "type": "function"
    },
    {
      "inputs": [
        {
          "internalType": "address",
          "name": "from",
          "type": "address"
        },
        {
          "internalType": "address",
          "name": "to",
          "type": "address"
        },
        {
          "internalType": "uint256",
          "name": "amount",
          "type": "uint256"
        }
      ],
      "name": "transferFrom",
      "outputs": [
        {
          "internalType": "bool",
          "name": "",
          "type": "bool"
        }
      ],
      "stateMutability": "nonpayable",
      "type": "function"
    },
    {
      "inputs": [
        {
          "internalType": "address",
          "name": "newOwner",
          "type": "address"
        }
      ],
      "name": "transferOwnership",
      "outputs": [],
      "stateMutability": "nonpayable",
      "type": "function"
    }
  ],
  "bytecode": "0x60806040523480156200001157600080fd5b506040518060400160405280601081526020016f2737b6b0b22932bbb0b9322a37b5b2b760811b8152506040518060400160405280600381526020016213949560ea1b81525081600390805190602001906200006f92919062000231565b5080516200008590600490602084019062000231565b505050620000a26200009c6200012660201b60201c565b6200012a565b600a805460ff191660129081178255620000bc91620003ec565b620000cb90620f424062000404565b60078190553360008181526006602090815260408083208590555193845291929091600080516020620011b9833981519152910160405180910390a362000120336c01431e0fae6d7217caa00000006200017c565b6200047e565b3390565b600580546001600160a01b038381166001600160a01b0319831681179093556040519116919082907f8be0079c531659141344cd1fd0a4f28419497f9722a3daafe3b4186f6b6457e090600090a35050565b6001600160a01b038216620001d75760405162461bcd60e51b815260206004820152601f60248201527f45524332303a206d696e7420746f20746865207a65726f206164647265737300604482015260640160405180910390fd5b8060026000828254620001eb919062000426565b90915550506001600160a01b03821660008181526020818152604080832080548601905551848152600080516020620011b9833981519152910160405180910390a35050565b8280546200023f9062000441565b90600052602060002090601f016020900481019282620002635760008555620002ae565b82601f106200027e57805160ff1916838001178555620002ae565b82800160010185558215620002ae579182015b82811115620002ae57825182559160200191906001019062000291565b50620002bc929150620002c0565b5090565b5b80821115620002bc5760008155600101620002c1565b634e487b7160e01b600052601160045260246000fd5b600181815b808511156200032e578160001904821115620003125762000312620002d7565b808516156200032057918102915b93841c9390800290620002f2565b509250929050565b6000826200034757506001620003e6565b816200035657506000620003e6565b81600181146200036f57600281146200037a576200039a565b6001915050620003e6565b60ff8411156200038e576200038e620002d7565b50506001821b620003e6565b5060208310610133831016604e8410600b8410161715620003bf575081810a620003e6565b620003cb8383620002ed565b8060001904821115620003e257620003e2620002d7565b0290505b92915050565b6000620003fd60ff84168362000336565b9392505050565b6000816000190483118215151615620004215762000421620002d7565b500290565b600082198211156200043c576200043c620002d7565b500190565b600181811c908216806200045657607f821691505b602082108114156200047857634e487b7160e01b600052602260045260246000fd5b50919050565b610d2b806200048e6000396000f3fe608060405234801561001057600080fd5b50600436106101005760003560e01c8063715018a611610097578063a457c2d711610066578063a457c2d714610209578063a9059cbb1461021c578063dd62ed3e1461022f578063f2fde38b1461024257600080fd5b8063715018a6146101cb57806379cc6790146101d35780638da5cb5b146101e657806395d89b411461020157600080fd5b8063313ce567116100d3578063313ce5671461016b578063395093511461017a57806342966c681461018d57806370a08231146101a257600080fd5b806306fdde0314610105578063095ea7b31461012357806318160ddd1461014657806323b872dd14610158575b600080fd5b61010d610255565b60405161011a9190610b4a565b60405180910390f35b610136610131366004610b80565b6102e7565b604051901515815260200161011a565b6002545b60405190815260200161011a565b610136610166366004610baa565b6102ff565b6040516012815260200161011a565b610136610188366004610b80565b610323565b6101a061019b366004610be6565b610345565b005b61014a6101b0366004610bff565b6001600160a01b031660009081526020819052604090205490565b6101a0610352565b6101a06101e1366004610b80565b610366565b6005546040516001600160a01b03909116815260200161011a565b61010d61037f565b610136610217366004610b80565b61038e565b61013661022a366004610b80565b61040e565b61014a61023d366004610c1a565b61041c565b6101a0610250366004610bff565b610447565b60606003805461026490610c4d565b80601f016020809104026020016040519081016040528092919081815260200182805461029090610c4d565b80156102dd5780601f106102b2576101008083540402835291602001916102dd565b820191906000526020600020905b8154815290600101906020018083116102c057829003601f168201915b5050505050905090565b6000336102f58185856104bd565b5060019392505050565b60003361030d8582856105e2565b610318858585610693565b506001949350505050565b6000336102f5818585610336838361041c565b6103409190610c88565b6104bd565b61034f3382610879565b50565b61035a6109a8565b6103646000610a02565b565b6103718233836105e2565b61037b8282610879565b5050565b60606004805461026490610c4d565b6000338161039c828661041c565b9050838110156104015760405162461bcd60e51b815260206004820152602560248201527f45524332303a2064656372656173656420616c6c6f77616e63652062656c6f77604482015264207a65726f60d81b60648201526084015b60405180910390fd5b61031882868684036104bd565b6000336102f5818585610693565b6001600160a01b03918216600090815260016020908152604080832093909416825291909152205490565b61044f6109a8565b6001600160a01b0381166104b45760405162461bcd60e51b815260206004820152602660248201527f4f776e61626c653a206e6577206f776e657220697320746865207a65726f206160448201526564647265737360d01b60648201526084016103f8565b61034f81610a02565b6001600160a01b03831661051f5760405162461bcd60e51b8152602060048201526024808201527f45524332303a20617070726f76652066726f6d20746865207a65726f206164646044820152637265737360e01b60648201526084016103f8565b6001600160a01b0382166105805760405162461bcd60e51b815260206004820152602260248201527f45524332303a20617070726f766520746f20746865207a65726f206164647265604482015261737360f01b60648201526084016103f8565b6001600160a01b0383811660008181526001602090815260408083209487168084529482529182902085905590518481527f8c5be1e5ebec7d5bd14f71427d1e84f3dd0314c0f7b2291e5b200ac8c7c3b92591015b60405180910390a3505050565b60006105ee848461041c565b9050600019811461068d576106306040518060400160405280601581526020017463757272656e74416c6c6f77616e6365203d20257360581b81525082610a54565b818110156106805760405162461bcd60e51b815260206004820152601d60248201527f45524332303a20696e73756666696369656e7420616c6c6f77616e636500000060448201526064016103f8565b61068d84848484036104bd565b50505050565b6001600160a01b0383166106f75760405162461bcd60e51b815260206004820152602560248201527f45524332303a207472616e736665722066726f6d20746865207a65726f206164604482015264647265737360d81b60648201526084016103f8565b6001600160a01b0382166107595760405162461bcd60e51b815260206004820152602360248201527f45524332303a207472616e7366657220746f20746865207a65726f206164647260448201526265737360e81b60648201526084016103f8565b6001600160a01b03831660009081526020818152604091829020548251808401909352601e83527f66726f6d42616c616e6365203d202573207c20616d6f756e74203d202573000091830191909152906107b4908284610a99565b818110156108135760405162461bcd60e51b815260206004820152602660248201527f45524332303a207472616e7366657220616d6f756e7420657863656564732062604482015265616c616e636560d01b60648201526084016103f8565b6001600160a01b03848116600081815260208181526040808320878703905593871680835291849020805487019055925185815290927fddf252ad1be2c89b69c2b068fc378daa952ba7f163c4a11628f55a4df523b3ef910160405180910390a361068d565b6001600160a01b0382166108d95760405162461bcd60e51b815260206004820152602160248201527f45524332303a206275726e2066726f6d20746865207a65726f206164647265736044820152607360f81b60648201526084016103f8565b6001600160a01b0382166000908152602081905260409020548181101561094d5760405162461bcd60e51b815260206004820152602260248201527f45524332303a206275726e20616d6f756e7420657863656564732062616c616e604482015261636560f01b60648201526084016103f8565b6001600160a01b0383166000818152602081815260408083208686039055600280548790039055518581529192917fddf252ad1be2c89b69c2b068fc378daa952ba7f163c4a11628f55a4df523b3ef91016105d5565b505050565b6005546001600160a01b031633146103645760405162461bcd60e51b815260206004820181905260248201527f4f776e61626c653a2063616c6c6572206973206e6f7420746865206f776e657260448201526064016103f8565b600580546001600160a01b038381166001600160a01b0319831681179093556040519116919082907f8be0079c531659141344cd1fd0a4f28419497f9722a3daafe3b4186f6b6457e090600090a35050565b61037b8282604051602401610a6a929190610cae565b60408051601f198184030181529190526020810180516001600160e01b0316632d839cb360e21b179052610adc565b6109a3838383604051602401610ab193929190610cd0565b60408051601f198184030181529190526020810180516001600160e01b031663ca47c4eb60e01b1790525b80516a636f6e736f6c652e6c6f67602083016000808483855afa5050505050565b6000815180845260005b81811015610b2357602081850181015186830182015201610b07565b81811115610b35576000602083870101525b50601f01601f19169290920160200192915050565b602081526000610b5d6020830184610afd565b9392505050565b80356001600160a01b0381168114610b7b57600080fd5b919050565b60008060408385031215610b9357600080fd5b610b9c83610b64565b946020939093013593505050565b600080600060608486031215610bbf57600080fd5b610bc884610b64565b9250610bd660208501610b64565b9150604084013590509250925092565b600060208284031215610bf857600080fd5b5035919050565b600060208284031215610c1157600080fd5b610b5d82610b64565b60008060408385031215610c2d57600080fd5b610c3683610b64565b9150610c4460208401610b64565b90509250929050565b600181811c90821680610c6157607f821691505b60208210811415610c8257634e487b7160e01b600052602260045260246000fd5b50919050565b60008219821115610ca957634e487b7160e01b600052601160045260246000fd5b500190565b604081526000610cc16040830185610afd565b90508260208301529392505050565b606081526000610ce36060830186610afd565b6020830194909452506040015291905056fea264697066735822122011dcbf91cbd0d43658ea62a279e97855d5dd5f4856e99d33658e1592de87fa6d64736f6c63430008090033ddf252ad1be2c89b69c2b068fc378daa952ba7f163c4a11628f55a4df523b3ef",
  "linkReferences": {},
  "deployedLinkReferences": {}
}