{
  "_format": "hh-sol-artifact-1",
  "contractName": "NomadBadge",
  "sourceName": "contracts/NomadBadge.sol",
  "abi": [
    {
      "inputs": [
        {
          "internalType": "address",
          "name": "erc20Address",
          "type": "address"
        }
      ],
      "stateMutability": "nonpayable",
      "type": "constructor"
    },
    {
      "anonymous": false,
      "inputs": [
        {
          "indexed": true,
          "internalType": "address",
          "name": "owner",
          "type": "address"
        },
        {
          "indexed": true,
          "internalType": "address",
          "name": "approved",
          "type": "address"
        },
        {
          "indexed": true,
          "internalType": "uint256",
          "name": "tokenId",
          "type": "uint256"
        }
      ],
      "name": "Approval",
      "type": "event"
    },
    {
      "anonymous": false,
      "inputs": [
        {
          "indexed": true,
          "internalType": "address",
          "name": "owner",
          "type": "address"
        },
        {
          "indexed": true,
          "internalType": "address",
          "name": "operator",
          "type": "address"
        },
        {
          "indexed": false,
          "internalType": "bool",
          "name": "approved",
          "type": "bool"
        }
      ],
      "name": "ApprovalForAll",
      "type": "event"
    },
    {
      "anonymous": false,
      "inputs": [
        {
          "indexed": false,
          "internalType": "uint256",
          "name": "_flightId",
          "type": "uint256"
        }
      ],
      "name": "FlightAdded",
      "type": "event"
    },
    {
      "anonymous": false,
      "inputs": [
        {
          "indexed": true,
          "internalType": "address",
          "name": "previousOwner",
          "type": "address"
        },
        {
          "indexed": true,
          "internalType": "address",
          "name": "newOwner",
          "type": "address"
        }
      ],
      "name": "OwnershipTransferred",
      "type": "event"
    },
    {
      "anonymous": false,
      "inputs": [
        {
          "indexed": false,
          "internalType": "uint256",
          "name": "badgeId",
          "type": "uint256"
        },
        {
          "indexed": false,
          "internalType": "address",
          "name": "to",
          "type": "address"
        },
        {
          "indexed": false,
          "internalType": "uint256",
          "name": "points",
          "type": "uint256"
        }
      ],
      "name": "RewardsPointsAssigned",
      "type": "event"
    },
    {
      "anonymous": false,
      "inputs": [
        {
          "indexed": false,
          "internalType": "address",
          "name": "to",
          "type": "address"
        }
      ],
      "name": "RewardsProvided",
      "type": "event"
    },
    {
      "anonymous": false,
      "inputs": [
        {
          "indexed": true,
          "internalType": "address",
          "name": "from",
          "type": "address"
        },
        {
          "indexed": true,
          "internalType": "address",
          "name": "to",
          "type": "address"
        },
        {
          "indexed": true,
          "internalType": "uint256",
          "name": "tokenId",
          "type": "uint256"
        }
      ],
      "name": "Transfer",
      "type": "event"
    },
    {
      "inputs": [
        {
          "internalType": "uint256",
          "name": "_flightId",
          "type": "uint256"
        },
        {
          "internalType": "address",
          "name": "owner",
          "type": "address"
        }
      ],
      "name": "addFlight",
      "outputs": [],
      "stateMutability": "payable",
      "type": "function"
    },
    {
      "inputs": [
        {
          "internalType": "address",
          "name": "to",
          "type": "address"
        },
        {
          "internalType": "uint256",
          "name": "tokenId",
          "type": "uint256"
        }
      ],
      "name": "approve",
      "outputs": [],
      "stateMutability": "nonpayable",
      "type": "function"
    },
    {
      "inputs": [
        {
          "internalType": "uint256",
          "name": "badgeId",
          "type": "uint256"
        },
        {
          "internalType": "address",
          "name": "to",
          "type": "address"
        },
        {
          "internalType": "uint256",
          "name": "points",
          "type": "uint256"
        }
      ],
      "name": "assignPoints",
      "outputs": [],
      "stateMutability": "nonpayable",
      "type": "function"
    },
    {
      "inputs": [
        {
          "internalType": "address",
          "name": "owner",
          "type": "address"
        }
      ],
      "name": "balanceOf",
      "outputs": [
        {
          "internalType": "uint256",
          "name": "",
          "type": "uint256"
        }
      ],
      "stateMutability": "view",
      "type": "function"
    },
    {
      "inputs": [
        {
          "internalType": "uint256",
          "name": "tokenId",
          "type": "uint256"
        }
      ],
      "name": "getApproved",
      "outputs": [
        {
          "internalType": "address",
          "name": "",
          "type": "address"
        }
      ],
      "stateMutability": "view",
      "type": "function"
    },
    {
      "inputs": [
        {
          "internalType": "uint256",
          "name": "badgeId",
          "type": "uint256"
        }
      ],
      "name": "getPoints",
      "outputs": [
        {
          "internalType": "uint256",
          "name": "",
          "type": "uint256"
        }
      ],
      "stateMutability": "view",
      "type": "function"
    },
    {
      "inputs": [
        {
          "internalType": "address",
          "name": "owner",
          "type": "address"
        },
        {
          "internalType": "address",
          "name": "operator",
          "type": "address"
        }
      ],
      "name": "isApprovedForAll",
      "outputs": [
        {
          "internalType": "bool",
          "name": "",
          "type": "bool"
        }
      ],
      "stateMutability": "view",
      "type": "function"
    },
    {
      "inputs": [
        {
          "internalType": "uint256",
          "name": "badgeId",
          "type": "uint256"
        },
        {
          "internalType": "address",
          "name": "owner",
          "type": "address"
        }
      ],
      "name": "isOwner",
      "outputs": [
        {
          "internalType": "bool",
          "name": "",
          "type": "bool"
        }
      ],
      "stateMutability": "view",
      "type": "function"
    },
    {
      "inputs": [],
      "name": "name",
      "outputs": [
        {
          "internalType": "string",
          "name": "",
          "type": "string"
        }
      ],
      "stateMutability": "view",
      "type": "function"
    },
    {
      "inputs": [],
      "name": "owner",
      "outputs": [
        {
          "internalType": "address",
          "name": "",
          "type": "address"
        }
      ],
      "stateMutability": "view",
      "type": "function"
    },
    {
      "inputs": [
        {
          "internalType": "uint256",
          "name": "tokenId",
          "type": "uint256"
        }
      ],
      "name": "ownerOf",
      "outputs": [
        {
          "internalType": "address",
          "name": "",
          "type": "address"
        }
      ],
      "stateMutability": "view",
      "type": "function"
    },
    {
      "inputs": [],
      "name": "renounceOwnership",
      "outputs": [],
      "stateMutability": "nonpayable",
      "type": "function"
    },
    {
      "inputs": [
        {
          "internalType": "uint256",
          "name": "",
          "type": "uint256"
        }
      ],
      "name": "rewardPoints",
      "outputs": [
        {
          "internalType": "uint256",
          "name": "",
          "type": "uint256"
        }
      ],
      "stateMutability": "view",
      "type": "function"
    },
    {
      "inputs": [
        {
          "internalType": "address",
          "name": "to",
          "type": "address"
        }
      ],
      "name": "runRewardProcess",
      "outputs": [],
      "stateMutability": "nonpayable",
      "type": "function"
    },
    {
      "inputs": [
        {
          "internalType": "address",
          "name": "from",
          "type": "address"
        },
        {
          "internalType": "address",
          "name": "to",
          "type": "address"
        },
        {
          "internalType": "uint256",
          "name": "tokenId",
          "type": "uint256"
        }
      ],
      "name": "safeTransferFrom",
      "outputs": [],
      "stateMutability": "nonpayable",
      "type": "function"
    },
    {
      "inputs": [
        {
          "internalType": "address",
          "name": "from",
          "type": "address"
        },
        {
          "internalType": "address",
          "name": "to",
          "type": "address"
        },
        {
          "internalType": "uint256",
          "name": "tokenId",
          "type": "uint256"
        },
        {
          "internalType": "bytes",
          "name": "data",
          "type": "bytes"
        }
      ],
      "name": "safeTransferFrom",
      "outputs": [],
      "stateMutability": "nonpayable",
      "type": "function"
    },
    {
      "inputs": [
        {
          "internalType": "address",
          "name": "operator",
          "type": "address"
        },
        {
          "internalType": "bool",
          "name": "approved",
          "type": "bool"
        }
      ],
      "name": "setApprovalForAll",
      "outputs": [],
      "stateMutability": "nonpayable",
      "type": "function"
    },
    {
      "inputs": [
        {
          "internalType": "bytes4",
          "name": "interfaceId",
          "type": "bytes4"
        }
      ],
      "name": "supportsInterface",
      "outputs": [
        {
          "internalType": "bool",
          "name": "",
          "type": "bool"
        }
      ],
      "stateMutability": "view",
      "type": "function"
    },
    {
      "inputs": [],
      "name": "symbol",
      "outputs": [
        {
          "internalType": "string",
          "name": "",
          "type": "string"
        }
      ],
      "stateMutability": "view",
      "type": "function"
    },
    {
      "inputs": [
        {
          "internalType": "uint256",
          "name": "index",
          "type": "uint256"
        }
      ],
      "name": "tokenByIndex",
      "outputs": [
        {
          "internalType": "uint256",
          "name": "",
          "type": "uint256"
        }
      ],
      "stateMutability": "view",
      "type": "function"
    },
    {
      "inputs": [
        {
          "internalType": "address",
          "name": "owner",
          "type": "address"
        },
        {
          "internalType": "uint256",
          "name": "index",
          "type": "uint256"
        }
      ],
      "name": "tokenOfOwnerByIndex",
      "outputs": [
        {
          "internalType": "uint256",
          "name": "",
          "type": "uint256"
        }
      ],
      "stateMutability": "view",
      "type": "function"
    },
    {
      "inputs": [
        {
          "internalType": "uint256",
          "name": "tokenId",
          "type": "uint256"
        }
      ],
      "name": "tokenURI",
      "outputs": [
        {
          "internalType": "string",
          "name": "",
          "type": "string"
        }
      ],
      "stateMutability": "view",
      "type": "function"
    },
    {
      "inputs": [],
      "name": "totalSupply",
      "outputs": [
        {
          "internalType": "uint256",
          "name": "",
          "type": "uint256"
        }
      ],
      "stateMutability": "view",
      "type": "function"
    },
    {
      "inputs": [
        {
          "internalType": "address",
          "name": "from",
          "type": "address"
        },
        {
          "internalType": "address",
          "name": "to",
          "type": "address"
        },
        {
          "internalType": "uint256",
          "name": "tokenId",
          "type": "uint256"
        }
      ],
      "name": "transferFrom",
      "outputs": [],
      "stateMutability": "nonpayable",
      "type": "function"
    },
    {
      "inputs": [
        {
          "internalType": "address",
          "name": "newOwner",
          "type": "address"
        }
      ],
      "name": "transferOwnership",
      "outputs": [],
      "stateMutability": "nonpayable",
      "type": "function"
    }
  ],
  "bytecode": "0x60806040526103e86010553480156200001757600080fd5b5060405162002335380380620023358339810160408190526200003a91620001dc565b604080518082018252600a8152694e6f6d6164426164676560b01b6020808301918252835180850190945260038452624e424760e81b908401528151919291620000879160009162000136565b5080516200009d90600190602084019062000136565b505050620000ba620000b4620000e060201b60201c565b620000e4565b600b80546001600160a01b0319166001600160a01b03929092169190911790556200024b565b3390565b600a80546001600160a01b038381166001600160a01b0319831681179093556040519116919082907f8be0079c531659141344cd1fd0a4f28419497f9722a3daafe3b4186f6b6457e090600090a35050565b82805462000144906200020e565b90600052602060002090601f016020900481019282620001685760008555620001b3565b82601f106200018357805160ff1916838001178555620001b3565b82800160010185558215620001b3579182015b82811115620001b357825182559160200191906001019062000196565b50620001c1929150620001c5565b5090565b5b80821115620001c15760008155600101620001c6565b600060208284031215620001ef57600080fd5b81516001600160a01b03811681146200020757600080fd5b9392505050565b600181811c908216806200022357607f821691505b602082108114156200024557634e487b7160e01b600052602260045260246000fd5b50919050565b6120da806200025b6000396000f3fe6080604052600436106101665760003560e01c80635a5d096c116100d1578063a22cb4651161008a578063c87b56dd11610064578063c87b56dd14610430578063e985e9c514610450578063eb02396814610499578063f2fde38b146104b957600080fd5b8063a22cb465146103c3578063a967eee4146103e3578063b88d4fde1461041057600080fd5b80635a5d096c1461031b5780636352211e1461033b57806370a082311461035b578063715018a61461037b5780638da5cb5b1461039057806395d89b41146103ae57600080fd5b80632f745c59116101235780632f745c591461025b57806335fa0bb81461027b5780633f408da2146102a857806342842e0e146102bb5780634da3792f146102db5780634f6ccce7146102fb57600080fd5b806301ffc9a71461016b57806306fdde03146101a0578063081812fc146101c2578063095ea7b3146101fa57806318160ddd1461021c57806323b872dd1461023b575b600080fd5b34801561017757600080fd5b5061018b610186366004611ad4565b6104d9565b60405190151581526020015b60405180910390f35b3480156101ac57600080fd5b506101b56104ea565b6040516101979190611b49565b3480156101ce57600080fd5b506101e26101dd366004611b5c565b61057c565b6040516001600160a01b039091168152602001610197565b34801561020657600080fd5b5061021a610215366004611b91565b6105a3565b005b34801561022857600080fd5b506008545b604051908152602001610197565b34801561024757600080fd5b5061021a610256366004611bbb565b6106be565b34801561026757600080fd5b5061022d610276366004611b91565b6106ef565b34801561028757600080fd5b5061022d610296366004611b5c565b600f6020526000908152604090205481565b61021a6102b6366004611bf7565b610785565b3480156102c757600080fd5b5061021a6102d6366004611bbb565b610869565b3480156102e757600080fd5b5061021a6102f6366004611c23565b610884565b34801561030757600080fd5b5061022d610316366004611b5c565b6109a3565b34801561032757600080fd5b5061018b610336366004611bf7565b610a36565b34801561034757600080fd5b506101e2610356366004611b5c565b610a5c565b34801561036757600080fd5b5061022d610376366004611c23565b610abc565b34801561038757600080fd5b5061021a610b42565b34801561039c57600080fd5b50600a546001600160a01b03166101e2565b3480156103ba57600080fd5b506101b5610b56565b3480156103cf57600080fd5b5061021a6103de366004611c3e565b610b65565b3480156103ef57600080fd5b5061022d6103fe366004611b5c565b6000908152600f602052604090205490565b34801561041c57600080fd5b5061021a61042b366004611c90565b610b70565b34801561043c57600080fd5b506101b561044b366004611b5c565b610ba8565b34801561045c57600080fd5b5061018b61046b366004611d6c565b6001600160a01b03918216600090815260056020908152604080832093909416825291909152205460ff1690565b3480156104a557600080fd5b5061021a6104b4366004611d96565b610c1c565b3480156104c557600080fd5b5061021a6104d4366004611c23565b610d27565b60006104e482610da0565b92915050565b6060600080546104f990611dbb565b80601f016020809104026020016040519081016040528092919081815260200182805461052590611dbb565b80156105725780601f1061054757610100808354040283529160200191610572565b820191906000526020600020905b81548152906001019060200180831161055557829003601f168201915b5050505050905090565b600061058782610dc5565b506000908152600460205260409020546001600160a01b031690565b60006105ae82610a5c565b9050806001600160a01b0316836001600160a01b031614156106215760405162461bcd60e51b815260206004820152602160248201527f4552433732313a20617070726f76616c20746f2063757272656e74206f776e656044820152603960f91b60648201526084015b60405180910390fd5b336001600160a01b038216148061063d575061063d813361046b565b6106af5760405162461bcd60e51b815260206004820152603d60248201527f4552433732313a20617070726f76652063616c6c6572206973206e6f7420746f60448201527f6b656e206f776e6572206f7220617070726f76656420666f7220616c6c0000006064820152608401610618565b6106b98383610e24565b505050565b6106c83382610e92565b6106e45760405162461bcd60e51b815260040161061890611df6565b6106b9838383610f11565b60006106fa83610abc565b821061075c5760405162461bcd60e51b815260206004820152602b60248201527f455243373231456e756d657261626c653a206f776e657220696e646578206f7560448201526a74206f6620626f756e647360a81b6064820152608401610618565b506001600160a01b03919091166000908152600660209081526040808320938352929052205490565b6001600160a01b0381166000908152600d60205260409020548214156107ed5760405162461bcd60e51b815260206004820152601960248201527f466c6967687420616c72656164792072656769737465726564000000000000006044820152606401610618565b6001600160a01b0381166000908152600d602052604090819020839055517f95c861c95c60378d96c8e5f74bed2f87e222f096e0a7ff8736bc6e48b9bc13f69061083a9084815260200190565b60405180910390a161086560405180606001604052806026815260200161202d602691398383611082565b5050565b6106b983838360405180602001604052806000815250610b70565b61088c6110c9565b6000610897600c5490565b6000818152600260205260409020549091506001600160a01b0316156108f65760405162461bcd60e51b8152602060048201526014602482015273546f6b656e20616c72656164792065786973747360601b6044820152606401610618565b610904600c80546001019055565b61090e8282611123565b6000818152600e602090815260409182902080546001600160a01b0319166001600160a01b038616179055815160608101909252602780835261095a929161207e908301398284611082565b6040516001600160a01b03831681527f2b6f69d559abc93b78b0d468740be7b8aa9bcb6a39fda6376e946cb01aed809f9060200160405180910390a16108658183601054610c1c565b60006109ae60085490565b8210610a115760405162461bcd60e51b815260206004820152602c60248201527f455243373231456e756d657261626c653a20676c6f62616c20696e646578206f60448201526b7574206f6620626f756e647360a01b6064820152608401610618565b60088281548110610a2457610a24611e43565b90600052602060002001549050919050565b6000816001600160a01b0316610a4b84610a5c565b6001600160a01b0316149392505050565b6000818152600260205260408120546001600160a01b0316806104e45760405162461bcd60e51b8152602060048201526018602482015277115490cdcc8c4e881a5b9d985b1a59081d1bdad95b88125160421b6044820152606401610618565b60006001600160a01b038216610b265760405162461bcd60e51b815260206004820152602960248201527f4552433732313a2061646472657373207a65726f206973206e6f7420612076616044820152683634b21037bbb732b960b91b6064820152608401610618565b506001600160a01b031660009081526003602052604090205490565b610b4a6110c9565b610b54600061113d565b565b6060600180546104f990611dbb565b61086533838361118f565b610b7a3383610e92565b610b965760405162461bcd60e51b815260040161061890611df6565b610ba28484848461125e565b50505050565b6060610bb382610dc5565b6000610bca60408051602081019091526000815290565b90506000815111610bea5760405180602001604052806000815250610c15565b80610bf484611291565b604051602001610c05929190611e59565b6040516020818303038152906040525b9392505050565b610c268383610a36565b610c895760405162461bcd60e51b815260206004820152602e60248201527f596f752063616e206f6e6c792061737369676e20706f696e747320746f20796f60448201526d3ab91037bbb7103a37b5b2b7399760911b6064820152608401610618565b6000838152600f602052604081208054839290610ca7908490611e9e565b9091555050604080518481526001600160a01b03841660208201529081018290527fd7c236824feb9d39b4a052e9fbdb4ca22c53d1a04ee99be03514e3c408ad18189060600160405180910390a16106b96040518060600160405280602b8152602001612053602b91396000858152600f6020526040902054839061132e565b610d2f6110c9565b6001600160a01b038116610d945760405162461bcd60e51b815260206004820152602660248201527f4f776e61626c653a206e6577206f776e657220697320746865207a65726f206160448201526564647265737360d01b6064820152608401610618565b610d9d8161113d565b50565b60006001600160e01b0319821663780e9d6360e01b14806104e457506104e482611375565b6000818152600260205260409020546001600160a01b0316610d9d5760405162461bcd60e51b8152602060048201526018602482015277115490cdcc8c4e881a5b9d985b1a59081d1bdad95b88125160421b6044820152606401610618565b600081815260046020526040902080546001600160a01b0319166001600160a01b0384169081179091558190610e5982610a5c565b6001600160a01b03167f8c5be1e5ebec7d5bd14f71427d1e84f3dd0314c0f7b2291e5b200ac8c7c3b92560405160405180910390a45050565b600080610e9e83610a5c565b9050806001600160a01b0316846001600160a01b03161480610ee557506001600160a01b0380821660009081526005602090815260408083209388168352929052205460ff165b80610f095750836001600160a01b0316610efe8461057c565b6001600160a01b0316145b949350505050565b826001600160a01b0316610f2482610a5c565b6001600160a01b031614610f4a5760405162461bcd60e51b815260040161061890611eb6565b6001600160a01b038216610fac5760405162461bcd60e51b8152602060048201526024808201527f4552433732313a207472616e7366657220746f20746865207a65726f206164646044820152637265737360e01b6064820152608401610618565b610fb983838360016113c5565b826001600160a01b0316610fcc82610a5c565b6001600160a01b031614610ff25760405162461bcd60e51b815260040161061890611eb6565b600081815260046020908152604080832080546001600160a01b03199081169091556001600160a01b0387811680865260038552838620805460001901905590871680865283862080546001019055868652600290945282852080549092168417909155905184937fddf252ad1be2c89b69c2b068fc378daa952ba7f163c4a11628f55a4df523b3ef91a4505050565b6106b983838360405160240161109a93929190611efb565b60408051601f198184030181529190526020810180516001600160e01b031663038fd88960e31b179052611428565b600a546001600160a01b03163314610b545760405162461bcd60e51b815260206004820181905260248201527f4f776e61626c653a2063616c6c6572206973206e6f7420746865206f776e65726044820152606401610618565b610865828260405180602001604052806000815250611449565b600a80546001600160a01b038381166001600160a01b0319831681179093556040519116919082907f8be0079c531659141344cd1fd0a4f28419497f9722a3daafe3b4186f6b6457e090600090a35050565b816001600160a01b0316836001600160a01b031614156111f15760405162461bcd60e51b815260206004820152601960248201527f4552433732313a20617070726f766520746f2063616c6c6572000000000000006044820152606401610618565b6001600160a01b03838116600081815260056020908152604080832094871680845294825291829020805460ff191686151590811790915591519182527f17307eab39ab6107e8899845ad3d59bd9653f200f220920489ca2b5937696c31910160405180910390a3505050565b611269848484610f11565b6112758484848461147c565b610ba25760405162461bcd60e51b815260040161061890611f2e565b6060600061129e83611589565b600101905060008167ffffffffffffffff8111156112be576112be611c7a565b6040519080825280601f01601f1916602001820160405280156112e8576020820181803683370190505b5090508181016020015b600019016f181899199a1a9b1b9c1cb0b131b232b360811b600a86061a8153600a850494508461132157611326565b6112f2565b509392505050565b6106b983838360405160240161134693929190611f80565b60408051601f198184030181529190526020810180516001600160e01b031663ca47c4eb60e01b179052611428565b60006001600160e01b031982166380ac58cd60e01b14806113a657506001600160e01b03198216635b5e139f60e01b145b806104e457506301ffc9a760e01b6001600160e01b03198316146104e4565b6001600160a01b0384161561141c5760405162461bcd60e51b815260206004820152601860248201527f426164676520746f6b656e20697320736f756c626f756e6400000000000000006044820152606401610618565b610ba284848484611661565b80516a636f6e736f6c652e6c6f67602083016000808483855afa5050505050565b6114538383611795565b611460600084848461147c565b6106b95760405162461bcd60e51b815260040161061890611f2e565b60006001600160a01b0384163b1561157e57604051630a85bd0160e11b81526001600160a01b0385169063150b7a02906114c0903390899088908890600401611fa5565b602060405180830381600087803b1580156114da57600080fd5b505af192505050801561150a575060408051601f3d908101601f1916820190925261150791810190611fe2565b60015b611564573d808015611538576040519150601f19603f3d011682016040523d82523d6000602084013e61153d565b606091505b50805161155c5760405162461bcd60e51b815260040161061890611f2e565b805181602001fd5b6001600160e01b031916630a85bd0160e11b149050610f09565b506001949350505050565b60008072184f03e93ff9f4daa797ed6e38ed64bf6a1f0160401b83106115c85772184f03e93ff9f4daa797ed6e38ed64bf6a1f0160401b830492506040015b6d04ee2d6d415b85acef810000000083106115f4576d04ee2d6d415b85acef8100000000830492506020015b662386f26fc10000831061161257662386f26fc10000830492506010015b6305f5e100831061162a576305f5e100830492506008015b612710831061163e57612710830492506004015b60648310611650576064830492506002015b600a83106104e45760010192915050565b60018111156116d05760405162461bcd60e51b815260206004820152603560248201527f455243373231456e756d657261626c653a20636f6e7365637574697665207472604482015274185b9cd9995c9cc81b9bdd081cdd5c1c1bdc9d1959605a1b6064820152608401610618565b816001600160a01b03851661172c5761172781600880546000838152600960205260408120829055600182018355919091527ff3f7a9fe364faab93b216da50a3214154f22a0a2b415b23a84c8169e8b636ee30155565b61174f565b836001600160a01b0316856001600160a01b03161461174f5761174f858261192e565b6001600160a01b03841661176b57611766816119cb565b61178e565b846001600160a01b0316846001600160a01b03161461178e5761178e8482611a7a565b5050505050565b6001600160a01b0382166117eb5760405162461bcd60e51b815260206004820181905260248201527f4552433732313a206d696e7420746f20746865207a65726f20616464726573736044820152606401610618565b6000818152600260205260409020546001600160a01b0316156118505760405162461bcd60e51b815260206004820152601c60248201527f4552433732313a20746f6b656e20616c7265616479206d696e746564000000006044820152606401610618565b61185e6000838360016113c5565b6000818152600260205260409020546001600160a01b0316156118c35760405162461bcd60e51b815260206004820152601c60248201527f4552433732313a20746f6b656e20616c7265616479206d696e746564000000006044820152606401610618565b6001600160a01b038216600081815260036020908152604080832080546001019055848352600290915280822080546001600160a01b0319168417905551839291907fddf252ad1be2c89b69c2b068fc378daa952ba7f163c4a11628f55a4df523b3ef908290a45050565b6000600161193b84610abc565b6119459190611fff565b600083815260076020526040902054909150808214611998576001600160a01b03841660009081526006602090815260408083208584528252808320548484528184208190558352600790915290208190555b5060009182526007602090815260408084208490556001600160a01b039094168352600681528383209183525290812055565b6008546000906119dd90600190611fff565b60008381526009602052604081205460088054939450909284908110611a0557611a05611e43565b906000526020600020015490508060088381548110611a2657611a26611e43565b6000918252602080832090910192909255828152600990915260408082208490558582528120556008805480611a5e57611a5e612016565b6001900381819060005260206000200160009055905550505050565b6000611a8583610abc565b6001600160a01b039093166000908152600660209081526040808320868452825280832085905593825260079052919091209190915550565b6001600160e01b031981168114610d9d57600080fd5b600060208284031215611ae657600080fd5b8135610c1581611abe565b60005b83811015611b0c578181015183820152602001611af4565b83811115610ba25750506000910152565b60008151808452611b35816020860160208601611af1565b601f01601f19169290920160200192915050565b602081526000610c156020830184611b1d565b600060208284031215611b6e57600080fd5b5035919050565b80356001600160a01b0381168114611b8c57600080fd5b919050565b60008060408385031215611ba457600080fd5b611bad83611b75565b946020939093013593505050565b600080600060608486031215611bd057600080fd5b611bd984611b75565b9250611be760208501611b75565b9150604084013590509250925092565b60008060408385031215611c0a57600080fd5b82359150611c1a60208401611b75565b90509250929050565b600060208284031215611c3557600080fd5b610c1582611b75565b60008060408385031215611c5157600080fd5b611c5a83611b75565b915060208301358015158114611c6f57600080fd5b809150509250929050565b634e487b7160e01b600052604160045260246000fd5b60008060008060808587031215611ca657600080fd5b611caf85611b75565b9350611cbd60208601611b75565b925060408501359150606085013567ffffffffffffffff80821115611ce157600080fd5b818701915087601f830112611cf557600080fd5b813581811115611d0757611d07611c7a565b604051601f8201601f19908116603f01168101908382118183101715611d2f57611d2f611c7a565b816040528281528a6020848701011115611d4857600080fd5b82602086016020830137600060208483010152809550505050505092959194509250565b60008060408385031215611d7f57600080fd5b611d8883611b75565b9150611c1a60208401611b75565b600080600060608486031215611dab57600080fd5b83359250611be760208501611b75565b600181811c90821680611dcf57607f821691505b60208210811415611df057634e487b7160e01b600052602260045260246000fd5b50919050565b6020808252602d908201527f4552433732313a2063616c6c6572206973206e6f7420746f6b656e206f776e6560408201526c1c881bdc88185c1c1c9bdd9959609a1b606082015260800190565b634e487b7160e01b600052603260045260246000fd5b60008351611e6b818460208801611af1565b835190830190611e7f818360208801611af1565b01949350505050565b634e487b7160e01b600052601160045260246000fd5b60008219821115611eb157611eb1611e88565b500190565b60208082526025908201527f4552433732313a207472616e736665722066726f6d20696e636f72726563742060408201526437bbb732b960d91b606082015260800190565b606081526000611f0e6060830186611b1d565b6020830194909452506001600160a01b0391909116604090910152919050565b60208082526032908201527f4552433732313a207472616e7366657220746f206e6f6e20455243373231526560408201527131b2b4bb32b91034b6b83632b6b2b73a32b960711b606082015260800190565b606081526000611f936060830186611b1d565b60208301949094525060400152919050565b6001600160a01b0385811682528416602082015260408101839052608060608201819052600090611fd890830184611b1d565b9695505050505050565b600060208284031215611ff457600080fd5b8151610c1581611abe565b60008282101561201157612011611e88565b500390565b634e487b7160e01b600052603160045260246000fdfe416464696e6720666c6967687420696420203d20257320746f2061646472657373203d202573506f696e74732061737369676e6564203d202573207c20746f74616c20616d6f756e74206f66203d20257342616467652067656e657261746564206964203d20257320746f2061646472657373203d202573a264697066735822122075a957e807febc56a08927bb8f567328b460e1fa79cf716da21e78421cbb804564736f6c63430008090033",
  "linkReferences": {},
  "deployedLinkReferences": {}
}