{
  "_format": "hh-sol-artifact-1",
  "contractName": "NomadBadge",
  "sourceName": "contracts/NomadBadge.sol",
  "abi": [
    {
      "inputs": [
        {
          "internalType": "address",
          "name": "erc20Address",
          "type": "address"
        }
      ],
      "stateMutability": "nonpayable",
      "type": "constructor"
    },
    {
      "anonymous": false,
      "inputs": [
        {
          "indexed": true,
          "internalType": "address",
          "name": "owner",
          "type": "address"
        },
        {
          "indexed": true,
          "internalType": "address",
          "name": "approved",
          "type": "address"
        },
        {
          "indexed": true,
          "internalType": "uint256",
          "name": "tokenId",
          "type": "uint256"
        }
      ],
      "name": "Approval",
      "type": "event"
    },
    {
      "anonymous": false,
      "inputs": [
        {
          "indexed": true,
          "internalType": "address",
          "name": "owner",
          "type": "address"
        },
        {
          "indexed": true,
          "internalType": "address",
          "name": "operator",
          "type": "address"
        },
        {
          "indexed": false,
          "internalType": "bool",
          "name": "approved",
          "type": "bool"
        }
      ],
      "name": "ApprovalForAll",
      "type": "event"
    },
    {
      "anonymous": false,
      "inputs": [
        {
          "indexed": false,
          "internalType": "uint256",
          "name": "_flightId",
          "type": "uint256"
        }
      ],
      "name": "FlightAdded",
      "type": "event"
    },
    {
      "anonymous": false,
      "inputs": [
        {
          "indexed": true,
          "internalType": "address",
          "name": "previousOwner",
          "type": "address"
        },
        {
          "indexed": true,
          "internalType": "address",
          "name": "newOwner",
          "type": "address"
        }
      ],
      "name": "OwnershipTransferred",
      "type": "event"
    },
    {
      "anonymous": false,
      "inputs": [
        {
          "indexed": false,
          "internalType": "uint256",
          "name": "badgeId",
          "type": "uint256"
        },
        {
          "indexed": false,
          "internalType": "address",
          "name": "to",
          "type": "address"
        },
        {
          "indexed": false,
          "internalType": "uint256",
          "name": "points",
          "type": "uint256"
        }
      ],
      "name": "RewardsPointsAssigned",
      "type": "event"
    },
    {
      "anonymous": false,
      "inputs": [
        {
          "indexed": false,
          "internalType": "address",
          "name": "to",
          "type": "address"
        }
      ],
      "name": "RewardsProvided",
      "type": "event"
    },
    {
      "anonymous": false,
      "inputs": [
        {
          "indexed": true,
          "internalType": "address",
          "name": "from",
          "type": "address"
        },
        {
          "indexed": true,
          "internalType": "address",
          "name": "to",
          "type": "address"
        },
        {
          "indexed": true,
          "internalType": "uint256",
          "name": "tokenId",
          "type": "uint256"
        }
      ],
      "name": "Transfer",
      "type": "event"
    },
    {
      "inputs": [],
      "name": "DEFAULT_REWARD_POINTS",
      "outputs": [
        {
          "internalType": "uint256",
          "name": "",
          "type": "uint256"
        }
      ],
      "stateMutability": "view",
      "type": "function"
    },
    {
      "inputs": [
        {
          "internalType": "uint256",
          "name": "flightId",
          "type": "uint256"
        },
        {
          "internalType": "address",
          "name": "passenger",
          "type": "address"
        }
      ],
      "name": "addFlight",
      "outputs": [],
      "stateMutability": "payable",
      "type": "function"
    },
    {
      "inputs": [
        {
          "internalType": "address",
          "name": "to",
          "type": "address"
        },
        {
          "internalType": "uint256",
          "name": "tokenId",
          "type": "uint256"
        }
      ],
      "name": "approve",
      "outputs": [],
      "stateMutability": "nonpayable",
      "type": "function"
    },
    {
      "inputs": [
        {
          "internalType": "uint256",
          "name": "badgeId",
          "type": "uint256"
        },
        {
          "internalType": "address",
          "name": "passenger",
          "type": "address"
        }
      ],
      "name": "assignPoints",
      "outputs": [],
      "stateMutability": "nonpayable",
      "type": "function"
    },
    {
      "inputs": [
        {
          "internalType": "address",
          "name": "owner",
          "type": "address"
        }
      ],
      "name": "balanceOf",
      "outputs": [
        {
          "internalType": "uint256",
          "name": "",
          "type": "uint256"
        }
      ],
      "stateMutability": "view",
      "type": "function"
    },
    {
      "inputs": [
        {
          "internalType": "uint256",
          "name": "badgeId",
          "type": "uint256"
        }
      ],
      "name": "constructTokenURI",
      "outputs": [
        {
          "internalType": "string",
          "name": "",
          "type": "string"
        }
      ],
      "stateMutability": "view",
      "type": "function"
    },
    {
      "inputs": [
        {
          "internalType": "uint256",
          "name": "tokenId",
          "type": "uint256"
        }
      ],
      "name": "getApproved",
      "outputs": [
        {
          "internalType": "address",
          "name": "",
          "type": "address"
        }
      ],
      "stateMutability": "view",
      "type": "function"
    },
    {
      "inputs": [
        {
          "internalType": "uint256",
          "name": "badgeId",
          "type": "uint256"
        }
      ],
      "name": "getPoints",
      "outputs": [
        {
          "internalType": "uint256",
          "name": "",
          "type": "uint256"
        }
      ],
      "stateMutability": "view",
      "type": "function"
    },
    {
      "inputs": [],
      "name": "getTotalBadgesMinted",
      "outputs": [
        {
          "internalType": "uint256",
          "name": "",
          "type": "uint256"
        }
      ],
      "stateMutability": "view",
      "type": "function"
    },
    {
      "inputs": [],
      "name": "getTotalPointsDistributed",
      "outputs": [
        {
          "internalType": "uint256",
          "name": "",
          "type": "uint256"
        }
      ],
      "stateMutability": "view",
      "type": "function"
    },
    {
      "inputs": [
        {
          "internalType": "address",
          "name": "owner",
          "type": "address"
        },
        {
          "internalType": "address",
          "name": "operator",
          "type": "address"
        }
      ],
      "name": "isApprovedForAll",
      "outputs": [
        {
          "internalType": "bool",
          "name": "",
          "type": "bool"
        }
      ],
      "stateMutability": "view",
      "type": "function"
    },
    {
      "inputs": [
        {
          "internalType": "uint256",
          "name": "badgeId",
          "type": "uint256"
        },
        {
          "internalType": "address",
          "name": "owner",
          "type": "address"
        }
      ],
      "name": "isOwner",
      "outputs": [
        {
          "internalType": "bool",
          "name": "",
          "type": "bool"
        }
      ],
      "stateMutability": "view",
      "type": "function"
    },
    {
      "inputs": [],
      "name": "name",
      "outputs": [
        {
          "internalType": "string",
          "name": "",
          "type": "string"
        }
      ],
      "stateMutability": "view",
      "type": "function"
    },
    {
      "inputs": [],
      "name": "owner",
      "outputs": [
        {
          "internalType": "address",
          "name": "",
          "type": "address"
        }
      ],
      "stateMutability": "view",
      "type": "function"
    },
    {
      "inputs": [
        {
          "internalType": "uint256",
          "name": "tokenId",
          "type": "uint256"
        }
      ],
      "name": "ownerOf",
      "outputs": [
        {
          "internalType": "address",
          "name": "",
          "type": "address"
        }
      ],
      "stateMutability": "view",
      "type": "function"
    },
    {
      "inputs": [],
      "name": "renounceOwnership",
      "outputs": [],
      "stateMutability": "nonpayable",
      "type": "function"
    },
    {
      "inputs": [
        {
          "internalType": "address",
          "name": "passenger",
          "type": "address"
        }
      ],
      "name": "runRewardProcess",
      "outputs": [],
      "stateMutability": "nonpayable",
      "type": "function"
    },
    {
      "inputs": [
        {
          "internalType": "address",
          "name": "from",
          "type": "address"
        },
        {
          "internalType": "address",
          "name": "to",
          "type": "address"
        },
        {
          "internalType": "uint256",
          "name": "tokenId",
          "type": "uint256"
        }
      ],
      "name": "safeTransferFrom",
      "outputs": [],
      "stateMutability": "nonpayable",
      "type": "function"
    },
    {
      "inputs": [
        {
          "internalType": "address",
          "name": "from",
          "type": "address"
        },
        {
          "internalType": "address",
          "name": "to",
          "type": "address"
        },
        {
          "internalType": "uint256",
          "name": "tokenId",
          "type": "uint256"
        },
        {
          "internalType": "bytes",
          "name": "data",
          "type": "bytes"
        }
      ],
      "name": "safeTransferFrom",
      "outputs": [],
      "stateMutability": "nonpayable",
      "type": "function"
    },
    {
      "inputs": [
        {
          "internalType": "address",
          "name": "operator",
          "type": "address"
        },
        {
          "internalType": "bool",
          "name": "approved",
          "type": "bool"
        }
      ],
      "name": "setApprovalForAll",
      "outputs": [],
      "stateMutability": "nonpayable",
      "type": "function"
    },
    {
      "inputs": [
        {
          "internalType": "bytes4",
          "name": "interfaceId",
          "type": "bytes4"
        }
      ],
      "name": "supportsInterface",
      "outputs": [
        {
          "internalType": "bool",
          "name": "",
          "type": "bool"
        }
      ],
      "stateMutability": "view",
      "type": "function"
    },
    {
      "inputs": [],
      "name": "symbol",
      "outputs": [
        {
          "internalType": "string",
          "name": "",
          "type": "string"
        }
      ],
      "stateMutability": "view",
      "type": "function"
    },
    {
      "inputs": [
        {
          "internalType": "uint256",
          "name": "index",
          "type": "uint256"
        }
      ],
      "name": "tokenByIndex",
      "outputs": [
        {
          "internalType": "uint256",
          "name": "",
          "type": "uint256"
        }
      ],
      "stateMutability": "view",
      "type": "function"
    },
    {
      "inputs": [
        {
          "internalType": "address",
          "name": "owner",
          "type": "address"
        },
        {
          "internalType": "uint256",
          "name": "index",
          "type": "uint256"
        }
      ],
      "name": "tokenOfOwnerByIndex",
      "outputs": [
        {
          "internalType": "uint256",
          "name": "",
          "type": "uint256"
        }
      ],
      "stateMutability": "view",
      "type": "function"
    },
    {
      "inputs": [
        {
          "internalType": "uint256",
          "name": "badgeId",
          "type": "uint256"
        }
      ],
      "name": "tokenURI",
      "outputs": [
        {
          "internalType": "string",
          "name": "",
          "type": "string"
        }
      ],
      "stateMutability": "view",
      "type": "function"
    },
    {
      "inputs": [],
      "name": "totalSupply",
      "outputs": [
        {
          "internalType": "uint256",
          "name": "",
          "type": "uint256"
        }
      ],
      "stateMutability": "view",
      "type": "function"
    },
    {
      "inputs": [
        {
          "internalType": "address",
          "name": "to",
          "type": "address"
        }
      ],
      "name": "transferERC20",
      "outputs": [],
      "stateMutability": "nonpayable",
      "type": "function"
    },
    {
      "inputs": [
        {
          "internalType": "address",
          "name": "from",
          "type": "address"
        },
        {
          "internalType": "address",
          "name": "to",
          "type": "address"
        },
        {
          "internalType": "uint256",
          "name": "tokenId",
          "type": "uint256"
        }
      ],
      "name": "transferFrom",
      "outputs": [],
      "stateMutability": "nonpayable",
      "type": "function"
    },
    {
      "inputs": [
        {
          "internalType": "address",
          "name": "newOwner",
          "type": "address"
        }
      ],
      "name": "transferOwnership",
      "outputs": [],
      "stateMutability": "nonpayable",
      "type": "function"
    }
  ],
  "bytecode": "0x60806040526000600e553480156200001657600080fd5b5060405162002903380380620029038339810160408190526200003991620001db565b604080518082018252600a8152694e6f6d6164426164676560b01b6020808301918252835180850190945260038452624e424760e81b908401528151919291620000869160009162000135565b5080516200009c90600190602084019062000135565b505050620000b9620000b3620000df60201b60201c565b620000e3565b600c80546001600160a01b0319166001600160a01b03929092169190911790556200024a565b3390565b600b80546001600160a01b038381166001600160a01b0319831681179093556040519116919082907f8be0079c531659141344cd1fd0a4f28419497f9722a3daafe3b4186f6b6457e090600090a35050565b82805462000143906200020d565b90600052602060002090601f016020900481019282620001675760008555620001b2565b82601f106200018257805160ff1916838001178555620001b2565b82800160010185558215620001b2579182015b82811115620001b257825182559160200191906001019062000195565b50620001c0929150620001c4565b5090565b5b80821115620001c05760008155600101620001c5565b600060208284031215620001ee57600080fd5b81516001600160a01b03811681146200020657600080fd5b9392505050565b600181811c908216806200022257607f821691505b602082108114156200024457634e487b7160e01b600052602260045260246000fd5b50919050565b6126a9806200025a6000396000f3fe6080604052600436106101c25760003560e01c806370a08231116100f7578063a967eee411610095578063d1d6b73911610064578063d1d6b739146104d2578063e985e9c5146104f0578063eb6039c614610539578063f2fde38b1461055957600080fd5b8063a967eee41461045d578063b10b22f41461047d578063b88d4fde14610492578063c87b56dd146104b257600080fd5b80638da5cb5b116100d15780638da5cb5b146103f457806395d89b411461041257806396fb21ce14610427578063a22cb4651461043d57600080fd5b806370a082311461039f578063715018a6146103bf578063894b4c2e146103d457600080fd5b80632f745c59116101645780634da3792f1161013e5780634da3792f1461031f5780634f6ccce71461033f5780635a5d096c1461035f5780636352211e1461037f57600080fd5b80632f745c59146102cc5780633f408da2146102ec57806342842e0e146102ff57600080fd5b8063095ea7b3116101a0578063095ea7b31461025657806318160ddd1461027857806323b872dd1461029757806328a6f29d146102b757600080fd5b806301ffc9a7146101c757806306fdde03146101fc578063081812fc1461021e575b600080fd5b3480156101d357600080fd5b506101e76101e2366004611e1d565b610579565b60405190151581526020015b60405180910390f35b34801561020857600080fd5b5061021161058a565b6040516101f39190611e99565b34801561022a57600080fd5b5061023e610239366004611eac565b61061c565b6040516001600160a01b0390911681526020016101f3565b34801561026257600080fd5b50610276610271366004611ee1565b610643565b005b34801561028457600080fd5b506008545b6040519081526020016101f3565b3480156102a357600080fd5b506102766102b2366004611f0b565b61075e565b3480156102c357600080fd5b50600e54610289565b3480156102d857600080fd5b506102896102e7366004611ee1565b61078f565b6102766102fa366004611f47565b610825565b34801561030b57600080fd5b5061027661031a366004611f0b565b610909565b34801561032b57600080fd5b5061027661033a366004611f73565b610924565b34801561034b57600080fd5b5061028961035a366004611eac565b610a40565b34801561036b57600080fd5b506101e761037a366004611f47565b610ad3565b34801561038b57600080fd5b5061023e61039a366004611eac565b610af9565b3480156103ab57600080fd5b506102896103ba366004611f73565b610b59565b3480156103cb57600080fd5b50610276610bdf565b3480156103e057600080fd5b506102116103ef366004611eac565b610bf3565b34801561040057600080fd5b50600b546001600160a01b031661023e565b34801561041e57600080fd5b50610211610c38565b34801561043357600080fd5b506102896103e881565b34801561044957600080fd5b50610276610458366004611f8e565b610c47565b34801561046957600080fd5b50610289610478366004611eac565b610c52565b34801561048957600080fd5b50610289610ceb565b34801561049e57600080fd5b506102766104ad366004611fe0565b610cfb565b3480156104be57600080fd5b506102116104cd366004611eac565b610d33565b3480156104de57600080fd5b506102766104ed366004611f73565b50565b3480156104fc57600080fd5b506101e761050b3660046120bc565b6001600160a01b03918216600090815260056020908152604080832093909416825291909152205460ff1690565b34801561054557600080fd5b50610276610554366004611f47565b610d3e565b34801561056557600080fd5b50610276610574366004611f73565b610e6e565b600061058482610ee4565b92915050565b606060008054610599906120e6565b80601f01602080910402602001604051908101604052809291908181526020018280546105c5906120e6565b80156106125780601f106105e757610100808354040283529160200191610612565b820191906000526020600020905b8154815290600101906020018083116105f557829003601f168201915b5050505050905090565b600061062782610f09565b506000908152600460205260409020546001600160a01b031690565b600061064e82610af9565b9050806001600160a01b0316836001600160a01b031614156106c15760405162461bcd60e51b815260206004820152602160248201527f4552433732313a20617070726f76616c20746f2063757272656e74206f776e656044820152603960f91b60648201526084015b60405180910390fd5b336001600160a01b03821614806106dd57506106dd813361050b565b61074f5760405162461bcd60e51b815260206004820152603d60248201527f4552433732313a20617070726f76652063616c6c6572206973206e6f7420746f60448201527f6b656e206f776e6572206f7220617070726f76656420666f7220616c6c00000060648201526084016106b8565b6107598383610f68565b505050565b6107683382610fd6565b6107845760405162461bcd60e51b81526004016106b890612121565b610759838383611055565b600061079a83610b59565b82106107fc5760405162461bcd60e51b815260206004820152602b60248201527f455243373231456e756d657261626c653a206f776e657220696e646578206f7560448201526a74206f6620626f756e647360a81b60648201526084016106b8565b506001600160a01b03919091166000908152600660209081526040808320938352929052205490565b6001600160a01b03811660009081526010602052604090205482141561088d5760405162461bcd60e51b815260206004820152601960248201527f466c6967687420616c726561647920726567697374657265640000000000000060448201526064016106b8565b6001600160a01b03811660009081526010602052604090819020839055517f95c861c95c60378d96c8e5f74bed2f87e222f096e0a7ff8736bc6e48b9bc13f6906108da9084815260200190565b60405180910390a16109056040518060600160405280602681526020016125ba6026913983836111c6565b5050565b61075983838360405180602001604052806000815250610cfb565b61092c61120d565b6000610937600d5490565b6000818152600260205260409020549091506001600160a01b0316156109965760405162461bcd60e51b8152602060048201526014602482015273546f6b656e20616c72656164792065786973747360601b60448201526064016106b8565b6109a4600d80546001019055565b6109ae8282611267565b60008181526011602090815260409182902080546001600160a01b0319166001600160a01b03861617905581516060810190925260298083526109fa929161260b9083013982846111c6565b6040516001600160a01b03831681527f2b6f69d559abc93b78b0d468740be7b8aa9bcb6a39fda6376e946cb01aed809f9060200160405180910390a16109058183610d3e565b6000610a4b60085490565b8210610aae5760405162461bcd60e51b815260206004820152602c60248201527f455243373231456e756d657261626c653a20676c6f62616c20696e646578206f60448201526b7574206f6620626f756e647360a01b60648201526084016106b8565b60088281548110610ac157610ac161216e565b90600052602060002001549050919050565b6000816001600160a01b0316610ae884610af9565b6001600160a01b0316149392505050565b6000818152600260205260408120546001600160a01b0316806105845760405162461bcd60e51b8152602060048201526018602482015277115490cdcc8c4e881a5b9d985b1a59081d1bdad95b88125160421b60448201526064016106b8565b60006001600160a01b038216610bc35760405162461bcd60e51b815260206004820152602960248201527f4552433732313a2061646472657373207a65726f206973206e6f7420612076616044820152683634b21037bbb732b960b91b60648201526084016106b8565b506001600160a01b031660009081526003602052604090205490565b610be761120d565b610bf16000611281565b565b60606000610c00836112d3565b90506000610c0d82611370565b905080604051602001610c209190612184565b60405160208183030381529060405292505050919050565b606060018054610599906120e6565b6109053383836114d8565b6000818152601160205260408120546001600160a01b031615610cd55760405162461bcd60e51b815260206004820152603560248201527f497420776173206e6f7420706f737369626c6520746f206765742072657761726044820152743239903837b4b73a3990313c903130b233b2a4b21760591b60648201526084016106b8565b5060009081526011602052604090206001015490565b6000610cf6600d5490565b905090565b610d053383610fd6565b610d215760405162461bcd60e51b81526004016106b890612121565b610d2d848484846115a7565b50505050565b606061058482610bf3565b610d488282610ad3565b610dab5760405162461bcd60e51b815260206004820152602e60248201527f596f752063616e206f6e6c792061737369676e20706f696e747320746f20796f60448201526d3ab91037bbb7103a37b5b2b7399760911b60648201526084016106b8565b600082815260116020526040812060010180546103e89290610dce9084906121df565b925050819055506103e8600e6000828254610de991906121df565b9091555050604080518381526001600160a01b03831660208201526103e88183015290517fd7c236824feb9d39b4a052e9fbdb4ca22c53d1a04ee99be03514e3c408ad18189181900360600190a16109056040518060600160405280602b81526020016125e0602b91396000848152601160205260409020600101546103e8906115da565b610e7661120d565b6001600160a01b038116610edb5760405162461bcd60e51b815260206004820152602660248201527f4f776e61626c653a206e6577206f776e657220697320746865207a65726f206160448201526564647265737360d01b60648201526084016106b8565b6104ed81611281565b60006001600160e01b0319821663780e9d6360e01b1480610584575061058482611621565b6000818152600260205260409020546001600160a01b03166104ed5760405162461bcd60e51b8152602060048201526018602482015277115490cdcc8c4e881a5b9d985b1a59081d1bdad95b88125160421b60448201526064016106b8565b600081815260046020526040902080546001600160a01b0319166001600160a01b0384169081179091558190610f9d82610af9565b6001600160a01b03167f8c5be1e5ebec7d5bd14f71427d1e84f3dd0314c0f7b2291e5b200ac8c7c3b92560405160405180910390a45050565b600080610fe283610af9565b9050806001600160a01b0316846001600160a01b0316148061102957506001600160a01b0380821660009081526005602090815260408083209388168352929052205460ff165b8061104d5750836001600160a01b03166110428461061c565b6001600160a01b0316145b949350505050565b826001600160a01b031661106882610af9565b6001600160a01b03161461108e5760405162461bcd60e51b81526004016106b8906121f7565b6001600160a01b0382166110f05760405162461bcd60e51b8152602060048201526024808201527f4552433732313a207472616e7366657220746f20746865207a65726f206164646044820152637265737360e01b60648201526084016106b8565b6110fd8383836001611671565b826001600160a01b031661111082610af9565b6001600160a01b0316146111365760405162461bcd60e51b81526004016106b8906121f7565b600081815260046020908152604080832080546001600160a01b03199081169091556001600160a01b0387811680865260038552838620805460001901905590871680865283862080546001019055868652600290945282852080549092168417909155905184937fddf252ad1be2c89b69c2b068fc378daa952ba7f163c4a11628f55a4df523b3ef91a4505050565b6107598383836040516024016111de9392919061223c565b60408051601f198184030181529190526020810180516001600160e01b031663038fd88960e31b1790526116d4565b600b546001600160a01b03163314610bf15760405162461bcd60e51b815260206004820181905260248201527f4f776e61626c653a2063616c6c6572206973206e6f7420746865206f776e657260448201526064016106b8565b6109058282604051806020016040528060008152506116f5565b600b80546001600160a01b038381166001600160a01b0319831681179093556040519116919082907f8be0079c531659141344cd1fd0a4f28419497f9722a3daafe3b4186f6b6457e090600090a35050565b606061303960006112e5600a85612285565b90506113056112f682610384612299565b6113009084612285565b611728565b61131e611314836103e8612299565b6113009085612285565b61133661132c846064612299565b6113009086612285565b600f611343600a87612285565b815481106113535761135361216e565b90600052602060002001604051602001610c20949392919061234a565b606081516000141561139057505060408051602081019091526000815290565b600060405180606001604052806040815260200161263460409139905060006003845160026113bf91906121df565b6113c9919061249f565b6113d49060046124b3565b905060006113e38260206121df565b67ffffffffffffffff8111156113fb576113fb611fca565b6040519080825280601f01601f191660200182016040528015611425576020820181803683370190505b509050818152600183018586518101602084015b818310156114935760039283018051603f601282901c811687015160f890811b8552600c83901c8216880151811b6001860152600683901c8216880151811b60028601529116860151901b93820193909352600401611439565b6003895106600181146114ad57600281146114be576114ca565b613d3d60f01b6001198301526114ca565b603d60f81b6000198301525b509398975050505050505050565b816001600160a01b0316836001600160a01b0316141561153a5760405162461bcd60e51b815260206004820152601960248201527f4552433732313a20617070726f766520746f2063616c6c65720000000000000060448201526064016106b8565b6001600160a01b03838116600081815260056020908152604080832094871680845294825291829020805460ff191686151590811790915591519182527f17307eab39ab6107e8899845ad3d59bd9653f200f220920489ca2b5937696c31910160405180910390a3505050565b6115b2848484611055565b6115be848484846117c5565b610d2d5760405162461bcd60e51b81526004016106b8906124d2565b6107598383836040516024016115f293929190612524565b60408051601f198184030181529190526020810180516001600160e01b031663ca47c4eb60e01b1790526116d4565b60006001600160e01b031982166380ac58cd60e01b148061165257506001600160e01b03198216635b5e139f60e01b145b8061058457506301ffc9a760e01b6001600160e01b0319831614610584565b6001600160a01b038416156116c85760405162461bcd60e51b815260206004820152601860248201527f426164676520746f6b656e20697320736f756c626f756e64000000000000000060448201526064016106b8565b610d2d848484846118d2565b80516a636f6e736f6c652e6c6f67602083016000808483855afa5050505050565b6116ff8383611a06565b61170c60008484846117c5565b6107595760405162461bcd60e51b81526004016106b8906124d2565b6060600061173583611b9f565b600101905060008167ffffffffffffffff81111561175557611755611fca565b6040519080825280601f01601f19166020018201604052801561177f576020820181803683370190505b5090508181016020015b600019016f181899199a1a9b1b9c1cb0b131b232b360811b600a86061a8153600a85049450846117b8576117bd565b611789565b509392505050565b60006001600160a01b0384163b156118c757604051630a85bd0160e11b81526001600160a01b0385169063150b7a0290611809903390899088908890600401612549565b602060405180830381600087803b15801561182357600080fd5b505af1925050508015611853575060408051601f3d908101601f1916820190925261185091810190612586565b60015b6118ad573d808015611881576040519150601f19603f3d011682016040523d82523d6000602084013e611886565b606091505b5080516118a55760405162461bcd60e51b81526004016106b8906124d2565b805181602001fd5b6001600160e01b031916630a85bd0160e11b14905061104d565b506001949350505050565b60018111156119415760405162461bcd60e51b815260206004820152603560248201527f455243373231456e756d657261626c653a20636f6e7365637574697665207472604482015274185b9cd9995c9cc81b9bdd081cdd5c1c1bdc9d1959605a1b60648201526084016106b8565b816001600160a01b03851661199d5761199881600880546000838152600960205260408120829055600182018355919091527ff3f7a9fe364faab93b216da50a3214154f22a0a2b415b23a84c8169e8b636ee30155565b6119c0565b836001600160a01b0316856001600160a01b0316146119c0576119c08582611c77565b6001600160a01b0384166119dc576119d781611d14565b6119ff565b846001600160a01b0316846001600160a01b0316146119ff576119ff8482611dc3565b5050505050565b6001600160a01b038216611a5c5760405162461bcd60e51b815260206004820181905260248201527f4552433732313a206d696e7420746f20746865207a65726f206164647265737360448201526064016106b8565b6000818152600260205260409020546001600160a01b031615611ac15760405162461bcd60e51b815260206004820152601c60248201527f4552433732313a20746f6b656e20616c7265616479206d696e7465640000000060448201526064016106b8565b611acf600083836001611671565b6000818152600260205260409020546001600160a01b031615611b345760405162461bcd60e51b815260206004820152601c60248201527f4552433732313a20746f6b656e20616c7265616479206d696e7465640000000060448201526064016106b8565b6001600160a01b038216600081815260036020908152604080832080546001019055848352600290915280822080546001600160a01b0319168417905551839291907fddf252ad1be2c89b69c2b068fc378daa952ba7f163c4a11628f55a4df523b3ef908290a45050565b60008072184f03e93ff9f4daa797ed6e38ed64bf6a1f0160401b8310611bde5772184f03e93ff9f4daa797ed6e38ed64bf6a1f0160401b830492506040015b6d04ee2d6d415b85acef81000000008310611c0a576d04ee2d6d415b85acef8100000000830492506020015b662386f26fc100008310611c2857662386f26fc10000830492506010015b6305f5e1008310611c40576305f5e100830492506008015b6127108310611c5457612710830492506004015b60648310611c66576064830492506002015b600a83106105845760010192915050565b60006001611c8484610b59565b611c8e9190612299565b600083815260076020526040902054909150808214611ce1576001600160a01b03841660009081526006602090815260408083208584528252808320548484528184208190558352600790915290208190555b5060009182526007602090815260408084208490556001600160a01b039094168352600681528383209183525290812055565b600854600090611d2690600190612299565b60008381526009602052604081205460088054939450909284908110611d4e57611d4e61216e565b906000526020600020015490508060088381548110611d6f57611d6f61216e565b6000918252602080832090910192909255828152600990915260408082208490558582528120556008805480611da757611da76125a3565b6001900381819060005260206000200160009055905550505050565b6000611dce83610b59565b6001600160a01b039093166000908152600660209081526040808320868452825280832085905593825260079052919091209190915550565b6001600160e01b0319811681146104ed57600080fd5b600060208284031215611e2f57600080fd5b8135611e3a81611e07565b9392505050565b60005b83811015611e5c578181015183820152602001611e44565b83811115610d2d5750506000910152565b60008151808452611e85816020860160208601611e41565b601f01601f19169290920160200192915050565b602081526000611e3a6020830184611e6d565b600060208284031215611ebe57600080fd5b5035919050565b80356001600160a01b0381168114611edc57600080fd5b919050565b60008060408385031215611ef457600080fd5b611efd83611ec5565b946020939093013593505050565b600080600060608486031215611f2057600080fd5b611f2984611ec5565b9250611f3760208501611ec5565b9150604084013590509250925092565b60008060408385031215611f5a57600080fd5b82359150611f6a60208401611ec5565b90509250929050565b600060208284031215611f8557600080fd5b611e3a82611ec5565b60008060408385031215611fa157600080fd5b611faa83611ec5565b915060208301358015158114611fbf57600080fd5b809150509250929050565b634e487b7160e01b600052604160045260246000fd5b60008060008060808587031215611ff657600080fd5b611fff85611ec5565b935061200d60208601611ec5565b925060408501359150606085013567ffffffffffffffff8082111561203157600080fd5b818701915087601f83011261204557600080fd5b81358181111561205757612057611fca565b604051601f8201601f19908116603f0116810190838211818310171561207f5761207f611fca565b816040528281528a602084870101111561209857600080fd5b82602086016020830137600060208483010152809550505050505092959194509250565b600080604083850312156120cf57600080fd5b6120d883611ec5565b9150611f6a60208401611ec5565b600181811c908216806120fa57607f821691505b6020821081141561211b57634e487b7160e01b600052602260045260246000fd5b50919050565b6020808252602d908201527f4552433732313a2063616c6c6572206973206e6f7420746f6b656e206f776e6560408201526c1c881bdc88185c1c1c9bdd9959609a1b606082015260800190565b634e487b7160e01b600052603260045260246000fd5b7f646174613a696d6167652f7376672b786d6c3b6261736536342c0000000000008152600082516121bc81601a850160208701611e41565b91909101601a0192915050565b634e487b7160e01b600052601160045260246000fd5b600082198211156121f2576121f26121c9565b500190565b60208082526025908201527f4552433732313a207472616e736665722066726f6d20696e636f72726563742060408201526437bbb732b960d91b606082015260800190565b60608152600061224f6060830186611e6d565b6020830194909452506001600160a01b0391909116604090910152919050565b634e487b7160e01b600052601260045260246000fd5b6000826122945761229461226f565b500690565b6000828210156122ab576122ab6121c9565b500390565b8054600090600181811c90808316806122ca57607f831692505b60208084108214156122ec57634e487b7160e01b600052602260045260246000fd5b81801561230057600181146123115761233e565b60ff1986168952848901965061233e565b60008881526020902060005b868110156123365781548b82015290850190830161231d565b505084890196505b50505050505092915050565b7f3c737667206865696768743d2731313030272077696474683d2731313030272081527f786d6c6e733d27687474703a2f2f7777772e77332e6f72672f323030302f737660208201527103393903b32b939b4b7b71e93989718939f160751b60408201526b3c636972636c652063783d2760a01b6052820152600085516123d881605e850160208a01611e41565b65272063793d2760d01b605e9184019182015285516123fe816064840160208a01611e41565b642720723d2760d81b606492909101918201528451612424816069840160208901611e41565b7f27207374726f6b653d27626c61636b27207374726f6b652d77696474683d27336069929091019182015267272066696c6c3d2760c01b608982015261249461248261247360918401876122b0565b6213979f60e91b815260030190565b651e17b9bb339f60d11b815260060190565b979650505050505050565b6000826124ae576124ae61226f565b500490565b60008160001904831182151516156124cd576124cd6121c9565b500290565b60208082526032908201527f4552433732313a207472616e7366657220746f206e6f6e20455243373231526560408201527131b2b4bb32b91034b6b83632b6b2b73a32b960711b606082015260800190565b6060815260006125376060830186611e6d565b60208301949094525060400152919050565b6001600160a01b038581168252841660208201526040810183905260806060820181905260009061257c90830184611e6d565b9695505050505050565b60006020828403121561259857600080fd5b8151611e3a81611e07565b634e487b7160e01b600052603160045260246000fdfe416464696e6720666c6967687420696420203d20257320746f2061646472657373203d202573506f696e74732061737369676e6564203d202573207c20746f74616c20616d6f756e74206f66203d20257342616467652067656e657261746564206964203d20257320746f2070617373656e676572203d2025734142434445464748494a4b4c4d4e4f505152535455565758595a6162636465666768696a6b6c6d6e6f707172737475767778797a303132333435363738392b2fa264697066735822122096339665be79e4629709e6739d0b415253f522bb616ff290baab155684ce3b5064736f6c63430008090033",
  "linkReferences": {},
  "deployedLinkReferences": {}
}